{
	"contracts/PharmaSupplyChain.sol": {
		"PharmaSupplyChain": {
			"abi": [
				{
					"anonymous": false,
					"inputs": [
						{
							"indexed": false,
							"internalType": "string",
							"name": "batchNumber",
							"type": "string"
						},
						{
							"indexed": false,
							"internalType": "string",
							"name": "manufacturer",
							"type": "string"
						},
						{
							"indexed": false,
							"internalType": "address",
							"name": "owner",
							"type": "address"
						}
					],
					"name": "BatchCreated",
					"type": "event"
				},
				{
					"anonymous": false,
					"inputs": [
						{
							"indexed": false,
							"internalType": "string",
							"name": "batchNumber",
							"type": "string"
						},
						{
							"indexed": false,
							"internalType": "address",
							"name": "oldOwner",
							"type": "address"
						},
						{
							"indexed": false,
							"internalType": "address",
							"name": "newOwner",
							"type": "address"
						}
					],
					"name": "BatchTransferred",
					"type": "event"
				},
				{
					"inputs": [
						{
							"internalType": "string",
							"name": "",
							"type": "string"
						}
					],
					"name": "batches",
					"outputs": [
						{
							"internalType": "string",
							"name": "batchNumber",
							"type": "string"
						},
						{
							"internalType": "string",
							"name": "manufacturer",
							"type": "string"
						},
						{
							"internalType": "string",
							"name": "expirationDate",
							"type": "string"
						},
						{
							"internalType": "address",
							"name": "owner",
							"type": "address"
						},
						{
							"internalType": "enum PharmaSupplyChain.BatchStatus",
							"name": "status",
							"type": "uint8"
						},
						{
							"internalType": "uint256",
							"name": "createdAt",
							"type": "uint256"
						}
					],
					"stateMutability": "view",
					"type": "function"
				},
				{
					"inputs": [
						{
							"internalType": "string",
							"name": "_batchNumber",
							"type": "string"
						},
						{
							"internalType": "string",
							"name": "_manufacturer",
							"type": "string"
						},
						{
							"internalType": "string",
							"name": "_expirationDate",
							"type": "string"
						}
					],
					"name": "createDrugBatch",
					"outputs": [],
					"stateMutability": "nonpayable",
					"type": "function"
				},
				{
					"inputs": [
						{
							"internalType": "string",
							"name": "_batchNumber",
							"type": "string"
						}
					],
					"name": "getBatch",
					"outputs": [
						{
							"internalType": "string",
							"name": "",
							"type": "string"
						},
						{
							"internalType": "string",
							"name": "",
							"type": "string"
						},
						{
							"internalType": "string",
							"name": "",
							"type": "string"
						},
						{
							"internalType": "address",
							"name": "",
							"type": "address"
						},
						{
							"internalType": "enum PharmaSupplyChain.BatchStatus",
							"name": "",
							"type": "uint8"
						},
						{
							"internalType": "uint256",
							"name": "",
							"type": "uint256"
						}
					],
					"stateMutability": "view",
					"type": "function"
				},
				{
					"inputs": [
						{
							"internalType": "string",
							"name": "_batchNumber",
							"type": "string"
						},
						{
							"internalType": "address",
							"name": "_newOwner",
							"type": "address"
						}
					],
					"name": "transferBatch",
					"outputs": [],
					"stateMutability": "nonpayable",
					"type": "function"
				},
				{
					"inputs": [
						{
							"internalType": "string",
							"name": "_batchNumber",
							"type": "string"
						},
						{
							"internalType": "enum PharmaSupplyChain.BatchStatus",
							"name": "_status",
							"type": "uint8"
						}
					],
					"name": "updateBatchStatus",
					"outputs": [],
					"stateMutability": "nonpayable",
					"type": "function"
				}
			],
			"devdoc": {
				"kind": "dev",
				"methods": {},
				"version": 1
			},
			"evm": {
				"assembly": "    /* \"contracts/PharmaSupplyChain.sol\":60:3289  contract PharmaSupplyChain {... */\n  mstore(0x40, 0x80)\n  callvalue\n  dup1\n  iszero\n  tag_1\n  jumpi\n  0x00\n  dup1\n  revert\ntag_1:\n  pop\n  dataSize(sub_0)\n  dup1\n  dataOffset(sub_0)\n  0x00\n  codecopy\n  0x00\n  return\nstop\n\nsub_0: assembly {\n        /* \"contracts/PharmaSupplyChain.sol\":60:3289  contract PharmaSupplyChain {... */\n      mstore(0x40, 0x80)\n      callvalue\n      dup1\n      iszero\n      tag_1\n      jumpi\n      0x00\n      dup1\n      revert\n    tag_1:\n      pop\n      jumpi(tag_2, lt(calldatasize, 0x04))\n      shr(0xe0, calldataload(0x00))\n      dup1\n      0x7614faf0\n      eq\n      tag_3\n      jumpi\n      dup1\n      0x7ef1446a\n      eq\n      tag_4\n      jumpi\n      dup1\n      0xb401563b\n      eq\n      tag_5\n      jumpi\n      dup1\n      0xb50a3c87\n      eq\n      tag_6\n      jumpi\n      dup1\n      0xf9ca4274\n      eq\n      tag_7\n      jumpi\n    tag_2:\n      0x00\n      dup1\n      revert\n        /* \"contracts/PharmaSupplyChain.sol\":890:1507  function createDrugBatch(string memory _batchNumber, string memory _manufacturer, string memory _expirationDate) public {... */\n    tag_3:\n      tag_8\n      0x04\n      dup1\n      calldatasize\n      sub\n      dup2\n      add\n      swap1\n      tag_9\n      swap2\n      swap1\n      tag_10\n      jump\t// in\n    tag_9:\n      tag_11\n      jump\t// in\n    tag_8:\n      stop\n        /* \"contracts/PharmaSupplyChain.sol\":499:542  mapping(string => DrugBatch) public batches */\n    tag_4:\n      tag_12\n      0x04\n      dup1\n      calldatasize\n      sub\n      dup2\n      add\n      swap1\n      tag_13\n      swap2\n      swap1\n      tag_14\n      jump\t// in\n    tag_13:\n      tag_15\n      jump\t// in\n    tag_12:\n      mload(0x40)\n      tag_16\n      swap7\n      swap6\n      swap5\n      swap4\n      swap3\n      swap2\n      swap1\n      tag_17\n      jump\t// in\n    tag_16:\n      mload(0x40)\n      dup1\n      swap2\n      sub\n      swap1\n      return\n        /* \"contracts/PharmaSupplyChain.sol\":1569:2151  function transferBatch(string memory _batchNumber, address _newOwner) public {... */\n    tag_5:\n      tag_18\n      0x04\n      dup1\n      calldatasize\n      sub\n      dup2\n      add\n      swap1\n      tag_19\n      swap2\n      swap1\n      tag_20\n      jump\t// in\n    tag_19:\n      tag_21\n      jump\t// in\n    tag_18:\n      stop\n        /* \"contracts/PharmaSupplyChain.sol\":2665:3286  function updateBatchStatus(string memory _batchNumber, BatchStatus _status) public {... */\n    tag_6:\n      tag_22\n      0x04\n      dup1\n      calldatasize\n      sub\n      dup2\n      add\n      swap1\n      tag_23\n      swap2\n      swap1\n      tag_24\n      jump\t// in\n    tag_23:\n      tag_25\n      jump\t// in\n    tag_22:\n      stop\n        /* \"contracts/PharmaSupplyChain.sol\":2210:2604  function getBatch(string memory _batchNumber) public view returns (string memory, string memory, string memory, address, BatchStatus, uint) {... */\n    tag_7:\n      tag_26\n      0x04\n      dup1\n      calldatasize\n      sub\n      dup2\n      add\n      swap1\n      tag_27\n      swap2\n      swap1\n      tag_14\n      jump\t// in\n    tag_27:\n      tag_28\n      jump\t// in\n    tag_26:\n      mload(0x40)\n      tag_29\n      swap7\n      swap6\n      swap5\n      swap4\n      swap3\n      swap2\n      swap1\n      tag_17\n      jump\t// in\n    tag_29:\n      mload(0x40)\n      dup1\n      swap2\n      sub\n      swap1\n      return\n        /* \"contracts/PharmaSupplyChain.sol\":890:1507  function createDrugBatch(string memory _batchNumber, string memory _manufacturer, string memory _expirationDate) public {... */\n    tag_11:\n        /* \"contracts/PharmaSupplyChain.sol\":1064:1065  0 */\n      0x00\n        /* \"contracts/PharmaSupplyChain.sol\":1029:1036  batches */\n      dup1\n        /* \"contracts/PharmaSupplyChain.sol\":1037:1049  _batchNumber */\n      dup5\n        /* \"contracts/PharmaSupplyChain.sol\":1029:1050  batches[_batchNumber] */\n      mload(0x40)\n      tag_31\n      swap2\n      swap1\n      tag_32\n      jump\t// in\n    tag_31:\n      swap1\n      dup2\n      mstore\n      0x20\n      add\n      mload(0x40)\n      dup1\n      swap2\n      sub\n      swap1\n      keccak256\n        /* \"contracts/PharmaSupplyChain.sol\":1029:1060  batches[_batchNumber].createdAt */\n      0x04\n      add\n      sload\n        /* \"contracts/PharmaSupplyChain.sol\":1029:1065  batches[_batchNumber].createdAt == 0 */\n      eq\n        /* \"contracts/PharmaSupplyChain.sol\":1021:1090  require(batches[_batchNumber].createdAt == 0, \"Batch already exists\") */\n      tag_33\n      jumpi\n      mload(0x40)\n      0x08c379a000000000000000000000000000000000000000000000000000000000\n      dup2\n      mstore\n      0x04\n      add\n      tag_34\n      swap1\n      tag_35\n      jump\t// in\n    tag_34:\n      mload(0x40)\n      dup1\n      swap2\n      sub\n      swap1\n      revert\n    tag_33:\n        /* \"contracts/PharmaSupplyChain.sol\":1158:1428  DrugBatch({... */\n      mload(0x40)\n      dup1\n      0xc0\n      add\n      0x40\n      mstore\n      dup1\n        /* \"contracts/PharmaSupplyChain.sol\":1196:1208  _batchNumber */\n      dup5\n        /* \"contracts/PharmaSupplyChain.sol\":1158:1428  DrugBatch({... */\n      dup2\n      mstore\n      0x20\n      add\n        /* \"contracts/PharmaSupplyChain.sol\":1237:1250  _manufacturer */\n      dup4\n        /* \"contracts/PharmaSupplyChain.sol\":1158:1428  DrugBatch({... */\n      dup2\n      mstore\n      0x20\n      add\n        /* \"contracts/PharmaSupplyChain.sol\":1281:1296  _expirationDate */\n      dup3\n        /* \"contracts/PharmaSupplyChain.sol\":1158:1428  DrugBatch({... */\n      dup2\n      mstore\n      0x20\n      add\n        /* \"contracts/PharmaSupplyChain.sol\":1318:1328  msg.sender */\n      caller\n        /* \"contracts/PharmaSupplyChain.sol\":1158:1428  DrugBatch({... */\n      0xffffffffffffffffffffffffffffffffffffffff\n      and\n      dup2\n      mstore\n      0x20\n      add\n        /* \"contracts/PharmaSupplyChain.sol\":1351:1375  BatchStatus.Manufactured */\n      0x00\n        /* \"contracts/PharmaSupplyChain.sol\":1158:1428  DrugBatch({... */\n      0x02\n      dup2\n      gt\n      iszero\n      tag_36\n      jumpi\n      tag_37\n      tag_38\n      jump\t// in\n    tag_37:\n    tag_36:\n      dup2\n      mstore\n      0x20\n      add\n        /* \"contracts/PharmaSupplyChain.sol\":1401:1416  block.timestamp */\n      timestamp\n        /* \"contracts/PharmaSupplyChain.sol\":1158:1428  DrugBatch({... */\n      dup2\n      mstore\n      pop\n        /* \"contracts/PharmaSupplyChain.sol\":1134:1141  batches */\n      0x00\n        /* \"contracts/PharmaSupplyChain.sol\":1142:1154  _batchNumber */\n      dup5\n        /* \"contracts/PharmaSupplyChain.sol\":1134:1155  batches[_batchNumber] */\n      mload(0x40)\n      tag_39\n      swap2\n      swap1\n      tag_32\n      jump\t// in\n    tag_39:\n      swap1\n      dup2\n      mstore\n      0x20\n      add\n      mload(0x40)\n      dup1\n      swap2\n      sub\n      swap1\n      keccak256\n        /* \"contracts/PharmaSupplyChain.sol\":1134:1428  batches[_batchNumber] = DrugBatch({... */\n      0x00\n      dup3\n      add\n      mload\n      dup2\n      0x00\n      add\n      swap1\n      dup2\n      tag_40\n      swap2\n      swap1\n      tag_41\n      jump\t// in\n    tag_40:\n      pop\n      0x20\n      dup3\n      add\n      mload\n      dup2\n      0x01\n      add\n      swap1\n      dup2\n      tag_42\n      swap2\n      swap1\n      tag_41\n      jump\t// in\n    tag_42:\n      pop\n      0x40\n      dup3\n      add\n      mload\n      dup2\n      0x02\n      add\n      swap1\n      dup2\n      tag_43\n      swap2\n      swap1\n      tag_41\n      jump\t// in\n    tag_43:\n      pop\n      0x60\n      dup3\n      add\n      mload\n      dup2\n      0x03\n      add\n      exp(0x0100, 0x00)\n      dup2\n      sload\n      dup2\n      0xffffffffffffffffffffffffffffffffffffffff\n      mul\n      not\n      and\n      swap1\n      dup4\n      0xffffffffffffffffffffffffffffffffffffffff\n      and\n      mul\n      or\n      swap1\n      sstore\n      pop\n      0x80\n      dup3\n      add\n      mload\n      dup2\n      0x03\n      add\n      exp(0x0100, 0x14)\n      dup2\n      sload\n      dup2\n      0xff\n      mul\n      not\n      and\n      swap1\n      dup4\n      0x02\n      dup2\n      gt\n      iszero\n      tag_44\n      jumpi\n      tag_45\n      tag_38\n      jump\t// in\n    tag_45:\n    tag_44:\n      mul\n      or\n      swap1\n      sstore\n      pop\n      0xa0\n      dup3\n      add\n      mload\n      dup2\n      0x04\n      add\n      sstore\n      swap1\n      pop\n      pop\n        /* \"contracts/PharmaSupplyChain.sol\":1446:1499  BatchCreated(_batchNumber, _manufacturer, msg.sender) */\n      0x14a4819b534290cb8ccfb4060d5410e04c15b9493bccae224d5b9ae9e6f939d0\n        /* \"contracts/PharmaSupplyChain.sol\":1459:1471  _batchNumber */\n      dup4\n        /* \"contracts/PharmaSupplyChain.sol\":1473:1486  _manufacturer */\n      dup4\n        /* \"contracts/PharmaSupplyChain.sol\":1488:1498  msg.sender */\n      caller\n        /* \"contracts/PharmaSupplyChain.sol\":1446:1499  BatchCreated(_batchNumber, _manufacturer, msg.sender) */\n      mload(0x40)\n      tag_46\n      swap4\n      swap3\n      swap2\n      swap1\n      tag_47\n      jump\t// in\n    tag_46:\n      mload(0x40)\n      dup1\n      swap2\n      sub\n      swap1\n      log1\n        /* \"contracts/PharmaSupplyChain.sol\":890:1507  function createDrugBatch(string memory _batchNumber, string memory _manufacturer, string memory _expirationDate) public {... */\n      pop\n      pop\n      pop\n      jump\t// out\n        /* \"contracts/PharmaSupplyChain.sol\":499:542  mapping(string => DrugBatch) public batches */\n    tag_15:\n      0x00\n      dup2\n      dup1\n      mload\n      0x20\n      dup2\n      add\n      dup3\n      add\n      dup1\n      mload\n      dup5\n      dup3\n      mstore\n      0x20\n      dup4\n      add\n      0x20\n      dup6\n      add\n      keccak256\n      dup2\n      dup4\n      mstore\n      dup1\n      swap6\n      pop\n      pop\n      pop\n      pop\n      pop\n      pop\n      0x00\n      swap2\n      pop\n      swap1\n      pop\n      dup1\n      0x00\n      add\n      dup1\n      sload\n      tag_48\n      swap1\n      tag_49\n      jump\t// in\n    tag_48:\n      dup1\n      0x1f\n      add\n      0x20\n      dup1\n      swap2\n      div\n      mul\n      0x20\n      add\n      mload(0x40)\n      swap1\n      dup2\n      add\n      0x40\n      mstore\n      dup1\n      swap3\n      swap2\n      swap1\n      dup2\n      dup2\n      mstore\n      0x20\n      add\n      dup3\n      dup1\n      sload\n      tag_50\n      swap1\n      tag_49\n      jump\t// in\n    tag_50:\n      dup1\n      iszero\n      tag_51\n      jumpi\n      dup1\n      0x1f\n      lt\n      tag_52\n      jumpi\n      0x0100\n      dup1\n      dup4\n      sload\n      div\n      mul\n      dup4\n      mstore\n      swap2\n      0x20\n      add\n      swap2\n      jump(tag_51)\n    tag_52:\n      dup3\n      add\n      swap2\n      swap1\n      0x00\n      mstore\n      keccak256(0x00, 0x20)\n      swap1\n    tag_53:\n      dup2\n      sload\n      dup2\n      mstore\n      swap1\n      0x01\n      add\n      swap1\n      0x20\n      add\n      dup1\n      dup4\n      gt\n      tag_53\n      jumpi\n      dup3\n      swap1\n      sub\n      0x1f\n      and\n      dup3\n      add\n      swap2\n    tag_51:\n      pop\n      pop\n      pop\n      pop\n      pop\n      swap1\n      dup1\n      0x01\n      add\n      dup1\n      sload\n      tag_54\n      swap1\n      tag_49\n      jump\t// in\n    tag_54:\n      dup1\n      0x1f\n      add\n      0x20\n      dup1\n      swap2\n      div\n      mul\n      0x20\n      add\n      mload(0x40)\n      swap1\n      dup2\n      add\n      0x40\n      mstore\n      dup1\n      swap3\n      swap2\n      swap1\n      dup2\n      dup2\n      mstore\n      0x20\n      add\n      dup3\n      dup1\n      sload\n      tag_55\n      swap1\n      tag_49\n      jump\t// in\n    tag_55:\n      dup1\n      iszero\n      tag_56\n      jumpi\n      dup1\n      0x1f\n      lt\n      tag_57\n      jumpi\n      0x0100\n      dup1\n      dup4\n      sload\n      div\n      mul\n      dup4\n      mstore\n      swap2\n      0x20\n      add\n      swap2\n      jump(tag_56)\n    tag_57:\n      dup3\n      add\n      swap2\n      swap1\n      0x00\n      mstore\n      keccak256(0x00, 0x20)\n      swap1\n    tag_58:\n      dup2\n      sload\n      dup2\n      mstore\n      swap1\n      0x01\n      add\n      swap1\n      0x20\n      add\n      dup1\n      dup4\n      gt\n      tag_58\n      jumpi\n      dup3\n      swap1\n      sub\n      0x1f\n      and\n      dup3\n      add\n      swap2\n    tag_56:\n      pop\n      pop\n      pop\n      pop\n      pop\n      swap1\n      dup1\n      0x02\n      add\n      dup1\n      sload\n      tag_59\n      swap1\n      tag_49\n      jump\t// in\n    tag_59:\n      dup1\n      0x1f\n      add\n      0x20\n      dup1\n      swap2\n      div\n      mul\n      0x20\n      add\n      mload(0x40)\n      swap1\n      dup2\n      add\n      0x40\n      mstore\n      dup1\n      swap3\n      swap2\n      swap1\n      dup2\n      dup2\n      mstore\n      0x20\n      add\n      dup3\n      dup1\n      sload\n      tag_60\n      swap1\n      tag_49\n      jump\t// in\n    tag_60:\n      dup1\n      iszero\n      tag_61\n      jumpi\n      dup1\n      0x1f\n      lt\n      tag_62\n      jumpi\n      0x0100\n      dup1\n      dup4\n      sload\n      div\n      mul\n      dup4\n      mstore\n      swap2\n      0x20\n      add\n      swap2\n      jump(tag_61)\n    tag_62:\n      dup3\n      add\n      swap2\n      swap1\n      0x00\n      mstore\n      keccak256(0x00, 0x20)\n      swap1\n    tag_63:\n      dup2\n      sload\n      dup2\n      mstore\n      swap1\n      0x01\n      add\n      swap1\n      0x20\n      add\n      dup1\n      dup4\n      gt\n      tag_63\n      jumpi\n      dup3\n      swap1\n      sub\n      0x1f\n      and\n      dup3\n      add\n      swap2\n    tag_61:\n      pop\n      pop\n      pop\n      pop\n      pop\n      swap1\n      dup1\n      0x03\n      add\n      0x00\n      swap1\n      sload\n      swap1\n      0x0100\n      exp\n      swap1\n      div\n      0xffffffffffffffffffffffffffffffffffffffff\n      and\n      swap1\n      dup1\n      0x03\n      add\n      0x14\n      swap1\n      sload\n      swap1\n      0x0100\n      exp\n      swap1\n      div\n      0xff\n      and\n      swap1\n      dup1\n      0x04\n      add\n      sload\n      swap1\n      pop\n      dup7\n      jump\t// out\n        /* \"contracts/PharmaSupplyChain.sol\":1569:2151  function transferBatch(string memory _batchNumber, address _newOwner) public {... */\n    tag_21:\n        /* \"contracts/PharmaSupplyChain.sol\":1736:1737  0 */\n      0x00\n        /* \"contracts/PharmaSupplyChain.sol\":1701:1708  batches */\n      dup1\n        /* \"contracts/PharmaSupplyChain.sol\":1709:1721  _batchNumber */\n      dup4\n        /* \"contracts/PharmaSupplyChain.sol\":1701:1722  batches[_batchNumber] */\n      mload(0x40)\n      tag_65\n      swap2\n      swap1\n      tag_32\n      jump\t// in\n    tag_65:\n      swap1\n      dup2\n      mstore\n      0x20\n      add\n      mload(0x40)\n      dup1\n      swap2\n      sub\n      swap1\n      keccak256\n        /* \"contracts/PharmaSupplyChain.sol\":1701:1732  batches[_batchNumber].createdAt */\n      0x04\n      add\n      sload\n        /* \"contracts/PharmaSupplyChain.sol\":1701:1737  batches[_batchNumber].createdAt != 0 */\n      sub\n        /* \"contracts/PharmaSupplyChain.sol\":1693:1762  require(batches[_batchNumber].createdAt != 0, \"Batch does not exist\") */\n      tag_66\n      jumpi\n      mload(0x40)\n      0x08c379a000000000000000000000000000000000000000000000000000000000\n      dup2\n      mstore\n      0x04\n      add\n      tag_67\n      swap1\n      tag_68\n      jump\t// in\n    tag_67:\n      mload(0x40)\n      dup1\n      swap2\n      sub\n      swap1\n      revert\n    tag_66:\n        /* \"contracts/PharmaSupplyChain.sol\":1865:1875  msg.sender */\n      caller\n        /* \"contracts/PharmaSupplyChain.sol\":1834:1875  batches[_batchNumber].owner == msg.sender */\n      0xffffffffffffffffffffffffffffffffffffffff\n      and\n        /* \"contracts/PharmaSupplyChain.sol\":1834:1841  batches */\n      0x00\n        /* \"contracts/PharmaSupplyChain.sol\":1842:1854  _batchNumber */\n      dup4\n        /* \"contracts/PharmaSupplyChain.sol\":1834:1855  batches[_batchNumber] */\n      mload(0x40)\n      tag_69\n      swap2\n      swap1\n      tag_32\n      jump\t// in\n    tag_69:\n      swap1\n      dup2\n      mstore\n      0x20\n      add\n      mload(0x40)\n      dup1\n      swap2\n      sub\n      swap1\n      keccak256\n        /* \"contracts/PharmaSupplyChain.sol\":1834:1861  batches[_batchNumber].owner */\n      0x03\n      add\n      0x00\n      swap1\n      sload\n      swap1\n      0x0100\n      exp\n      swap1\n      div\n      0xffffffffffffffffffffffffffffffffffffffff\n      and\n        /* \"contracts/PharmaSupplyChain.sol\":1834:1875  batches[_batchNumber].owner == msg.sender */\n      0xffffffffffffffffffffffffffffffffffffffff\n      and\n      eq\n        /* \"contracts/PharmaSupplyChain.sol\":1826:1917  require(batches[_batchNumber].owner == msg.sender, \"Only the owner can transfer the batch\") */\n      tag_70\n      jumpi\n      mload(0x40)\n      0x08c379a000000000000000000000000000000000000000000000000000000000\n      dup2\n      mstore\n      0x04\n      add\n      tag_71\n      swap1\n      tag_72\n      jump\t// in\n    tag_71:\n      mload(0x40)\n      dup1\n      swap2\n      sub\n      swap1\n      revert\n    tag_70:\n        /* \"contracts/PharmaSupplyChain.sol\":1978:1994  address oldOwner */\n      0x00\n        /* \"contracts/PharmaSupplyChain.sol\":1997:2004  batches */\n      dup1\n        /* \"contracts/PharmaSupplyChain.sol\":2005:2017  _batchNumber */\n      dup4\n        /* \"contracts/PharmaSupplyChain.sol\":1997:2018  batches[_batchNumber] */\n      mload(0x40)\n      tag_73\n      swap2\n      swap1\n      tag_32\n      jump\t// in\n    tag_73:\n      swap1\n      dup2\n      mstore\n      0x20\n      add\n      mload(0x40)\n      dup1\n      swap2\n      sub\n      swap1\n      keccak256\n        /* \"contracts/PharmaSupplyChain.sol\":1997:2024  batches[_batchNumber].owner */\n      0x03\n      add\n      0x00\n      swap1\n      sload\n      swap1\n      0x0100\n      exp\n      swap1\n      div\n      0xffffffffffffffffffffffffffffffffffffffff\n      and\n        /* \"contracts/PharmaSupplyChain.sol\":1978:2024  address oldOwner = batches[_batchNumber].owner */\n      swap1\n      pop\n        /* \"contracts/PharmaSupplyChain.sol\":2065:2074  _newOwner */\n      dup2\n        /* \"contracts/PharmaSupplyChain.sol\":2035:2042  batches */\n      0x00\n        /* \"contracts/PharmaSupplyChain.sol\":2043:2055  _batchNumber */\n      dup5\n        /* \"contracts/PharmaSupplyChain.sol\":2035:2056  batches[_batchNumber] */\n      mload(0x40)\n      tag_74\n      swap2\n      swap1\n      tag_32\n      jump\t// in\n    tag_74:\n      swap1\n      dup2\n      mstore\n      0x20\n      add\n      mload(0x40)\n      dup1\n      swap2\n      sub\n      swap1\n      keccak256\n        /* \"contracts/PharmaSupplyChain.sol\":2035:2062  batches[_batchNumber].owner */\n      0x03\n      add\n      0x00\n        /* \"contracts/PharmaSupplyChain.sol\":2035:2074  batches[_batchNumber].owner = _newOwner */\n      0x0100\n      exp\n      dup2\n      sload\n      dup2\n      0xffffffffffffffffffffffffffffffffffffffff\n      mul\n      not\n      and\n      swap1\n      dup4\n      0xffffffffffffffffffffffffffffffffffffffff\n      and\n      mul\n      or\n      swap1\n      sstore\n      pop\n        /* \"contracts/PharmaSupplyChain.sol\":2092:2143  BatchTransferred(_batchNumber, oldOwner, _newOwner) */\n      0xa8b047db3c9b378a978a9cc59c0f75a2671f935a140d6799f8f56104f0ec6dd6\n        /* \"contracts/PharmaSupplyChain.sol\":2109:2121  _batchNumber */\n      dup4\n        /* \"contracts/PharmaSupplyChain.sol\":2123:2131  oldOwner */\n      dup3\n        /* \"contracts/PharmaSupplyChain.sol\":2133:2142  _newOwner */\n      dup5\n        /* \"contracts/PharmaSupplyChain.sol\":2092:2143  BatchTransferred(_batchNumber, oldOwner, _newOwner) */\n      mload(0x40)\n      tag_75\n      swap4\n      swap3\n      swap2\n      swap1\n      tag_76\n      jump\t// in\n    tag_75:\n      mload(0x40)\n      dup1\n      swap2\n      sub\n      swap1\n      log1\n        /* \"contracts/PharmaSupplyChain.sol\":1646:2151  {... */\n      pop\n        /* \"contracts/PharmaSupplyChain.sol\":1569:2151  function transferBatch(string memory _batchNumber, address _newOwner) public {... */\n      pop\n      pop\n      jump\t// out\n        /* \"contracts/PharmaSupplyChain.sol\":2665:3286  function updateBatchStatus(string memory _batchNumber, BatchStatus _status) public {... */\n    tag_25:\n        /* \"contracts/PharmaSupplyChain.sol\":2838:2839  0 */\n      0x00\n        /* \"contracts/PharmaSupplyChain.sol\":2803:2810  batches */\n      dup1\n        /* \"contracts/PharmaSupplyChain.sol\":2811:2823  _batchNumber */\n      dup4\n        /* \"contracts/PharmaSupplyChain.sol\":2803:2824  batches[_batchNumber] */\n      mload(0x40)\n      tag_78\n      swap2\n      swap1\n      tag_32\n      jump\t// in\n    tag_78:\n      swap1\n      dup2\n      mstore\n      0x20\n      add\n      mload(0x40)\n      dup1\n      swap2\n      sub\n      swap1\n      keccak256\n        /* \"contracts/PharmaSupplyChain.sol\":2803:2834  batches[_batchNumber].createdAt */\n      0x04\n      add\n      sload\n        /* \"contracts/PharmaSupplyChain.sol\":2803:2839  batches[_batchNumber].createdAt != 0 */\n      sub\n        /* \"contracts/PharmaSupplyChain.sol\":2795:2864  require(batches[_batchNumber].createdAt != 0, \"Batch does not exist\") */\n      tag_79\n      jumpi\n      mload(0x40)\n      0x08c379a000000000000000000000000000000000000000000000000000000000\n      dup2\n      mstore\n      0x04\n      add\n      tag_80\n      swap1\n      tag_68\n      jump\t// in\n    tag_80:\n      mload(0x40)\n      dup1\n      swap2\n      sub\n      swap1\n      revert\n    tag_79:\n        /* \"contracts/PharmaSupplyChain.sol\":2959:2969  msg.sender */\n      caller\n        /* \"contracts/PharmaSupplyChain.sol\":2928:2969  batches[_batchNumber].owner == msg.sender */\n      0xffffffffffffffffffffffffffffffffffffffff\n      and\n        /* \"contracts/PharmaSupplyChain.sol\":2928:2935  batches */\n      0x00\n        /* \"contracts/PharmaSupplyChain.sol\":2936:2948  _batchNumber */\n      dup4\n        /* \"contracts/PharmaSupplyChain.sol\":2928:2949  batches[_batchNumber] */\n      mload(0x40)\n      tag_81\n      swap2\n      swap1\n      tag_32\n      jump\t// in\n    tag_81:\n      swap1\n      dup2\n      mstore\n      0x20\n      add\n      mload(0x40)\n      dup1\n      swap2\n      sub\n      swap1\n      keccak256\n        /* \"contracts/PharmaSupplyChain.sol\":2928:2955  batches[_batchNumber].owner */\n      0x03\n      add\n      0x00\n      swap1\n      sload\n      swap1\n      0x0100\n      exp\n      swap1\n      div\n      0xffffffffffffffffffffffffffffffffffffffff\n      and\n        /* \"contracts/PharmaSupplyChain.sol\":2928:2969  batches[_batchNumber].owner == msg.sender */\n      0xffffffffffffffffffffffffffffffffffffffff\n      and\n      eq\n        /* \"contracts/PharmaSupplyChain.sol\":2920:3016  require(batches[_batchNumber].owner == msg.sender, \"Only the owner can update the batch status\") */\n      tag_82\n      jumpi\n      mload(0x40)\n      0x08c379a000000000000000000000000000000000000000000000000000000000\n      dup2\n      mstore\n      0x04\n      add\n      tag_83\n      swap1\n      tag_84\n      jump\t// in\n    tag_83:\n      mload(0x40)\n      dup1\n      swap2\n      sub\n      swap1\n      revert\n    tag_82:\n        /* \"contracts/PharmaSupplyChain.sol\":3096:3103  _status */\n      dup1\n        /* \"contracts/PharmaSupplyChain.sol\":3065:3072  batches */\n      0x00\n        /* \"contracts/PharmaSupplyChain.sol\":3073:3085  _batchNumber */\n      dup4\n        /* \"contracts/PharmaSupplyChain.sol\":3065:3086  batches[_batchNumber] */\n      mload(0x40)\n      tag_85\n      swap2\n      swap1\n      tag_32\n      jump\t// in\n    tag_85:\n      swap1\n      dup2\n      mstore\n      0x20\n      add\n      mload(0x40)\n      dup1\n      swap2\n      sub\n      swap1\n      keccak256\n        /* \"contracts/PharmaSupplyChain.sol\":3065:3093  batches[_batchNumber].status */\n      0x03\n      add\n      0x14\n        /* \"contracts/PharmaSupplyChain.sol\":3065:3103  batches[_batchNumber].status = _status */\n      0x0100\n      exp\n      dup2\n      sload\n      dup2\n      0xff\n      mul\n      not\n      and\n      swap1\n      dup4\n      0x02\n      dup2\n      gt\n      iszero\n      tag_86\n      jumpi\n      tag_87\n      tag_38\n      jump\t// in\n    tag_87:\n    tag_86:\n      mul\n      or\n      swap1\n      sstore\n      pop\n        /* \"contracts/PharmaSupplyChain.sol\":3156:3177  BatchStatus.InTransit */\n      0x01\n        /* \"contracts/PharmaSupplyChain.sol\":3124:3177  batches[_batchNumber].status == BatchStatus.InTransit */\n      0x02\n      dup2\n      gt\n      iszero\n      tag_88\n      jumpi\n      tag_89\n      tag_38\n      jump\t// in\n    tag_89:\n    tag_88:\n        /* \"contracts/PharmaSupplyChain.sol\":3124:3131  batches */\n      0x00\n        /* \"contracts/PharmaSupplyChain.sol\":3132:3144  _batchNumber */\n      dup4\n        /* \"contracts/PharmaSupplyChain.sol\":3124:3145  batches[_batchNumber] */\n      mload(0x40)\n      tag_90\n      swap2\n      swap1\n      tag_32\n      jump\t// in\n    tag_90:\n      swap1\n      dup2\n      mstore\n      0x20\n      add\n      mload(0x40)\n      dup1\n      swap2\n      sub\n      swap1\n      keccak256\n        /* \"contracts/PharmaSupplyChain.sol\":3124:3152  batches[_batchNumber].status */\n      0x03\n      add\n      0x14\n      swap1\n      sload\n      swap1\n      0x0100\n      exp\n      swap1\n      div\n      0xff\n      and\n        /* \"contracts/PharmaSupplyChain.sol\":3124:3177  batches[_batchNumber].status == BatchStatus.InTransit */\n      0x02\n      dup2\n      gt\n      iszero\n      tag_91\n      jumpi\n      tag_92\n      tag_38\n      jump\t// in\n    tag_92:\n    tag_91:\n      eq\n        /* \"contracts/PharmaSupplyChain.sol\":3116:3191  require(batches[_batchNumber].status == BatchStatus.InTransit, \"Intransit\") */\n      tag_93\n      jumpi\n      mload(0x40)\n      0x08c379a000000000000000000000000000000000000000000000000000000000\n      dup2\n      mstore\n      0x04\n      add\n      tag_94\n      swap1\n      tag_95\n      jump\t// in\n    tag_94:\n      mload(0x40)\n      dup1\n      swap2\n      sub\n      swap1\n      revert\n    tag_93:\n        /* \"contracts/PharmaSupplyChain.sol\":3243:3264  BatchStatus.Delivered */\n      0x02\n        /* \"contracts/PharmaSupplyChain.sol\":3212:3264  batches[_batchNumber].status== BatchStatus.Delivered */\n      dup1\n      dup2\n      gt\n      iszero\n      tag_96\n      jumpi\n      tag_97\n      tag_38\n      jump\t// in\n    tag_97:\n    tag_96:\n        /* \"contracts/PharmaSupplyChain.sol\":3212:3219  batches */\n      0x00\n        /* \"contracts/PharmaSupplyChain.sol\":3220:3232  _batchNumber */\n      dup4\n        /* \"contracts/PharmaSupplyChain.sol\":3212:3233  batches[_batchNumber] */\n      mload(0x40)\n      tag_98\n      swap2\n      swap1\n      tag_32\n      jump\t// in\n    tag_98:\n      swap1\n      dup2\n      mstore\n      0x20\n      add\n      mload(0x40)\n      dup1\n      swap2\n      sub\n      swap1\n      keccak256\n        /* \"contracts/PharmaSupplyChain.sol\":3212:3240  batches[_batchNumber].status */\n      0x03\n      add\n      0x14\n      swap1\n      sload\n      swap1\n      0x0100\n      exp\n      swap1\n      div\n      0xff\n      and\n        /* \"contracts/PharmaSupplyChain.sol\":3212:3264  batches[_batchNumber].status== BatchStatus.Delivered */\n      0x02\n      dup2\n      gt\n      iszero\n      tag_99\n      jumpi\n      tag_100\n      tag_38\n      jump\t// in\n    tag_100:\n    tag_99:\n      eq\n        /* \"contracts/PharmaSupplyChain.sol\":3204:3278  require(batches[_batchNumber].status== BatchStatus.Delivered, \"Delivered\") */\n      tag_101\n      jumpi\n      mload(0x40)\n      0x08c379a000000000000000000000000000000000000000000000000000000000\n      dup2\n      mstore\n      0x04\n      add\n      tag_102\n      swap1\n      tag_103\n      jump\t// in\n    tag_102:\n      mload(0x40)\n      dup1\n      swap2\n      sub\n      swap1\n      revert\n    tag_101:\n        /* \"contracts/PharmaSupplyChain.sol\":2665:3286  function updateBatchStatus(string memory _batchNumber, BatchStatus _status) public {... */\n      pop\n      pop\n      jump\t// out\n        /* \"contracts/PharmaSupplyChain.sol\":2210:2604  function getBatch(string memory _batchNumber) public view returns (string memory, string memory, string memory, address, BatchStatus, uint) {... */\n    tag_28:\n        /* \"contracts/PharmaSupplyChain.sol\":2277:2290  string memory */\n      0x60\n        /* \"contracts/PharmaSupplyChain.sol\":2292:2305  string memory */\n      dup1\n        /* \"contracts/PharmaSupplyChain.sol\":2307:2320  string memory */\n      0x60\n        /* \"contracts/PharmaSupplyChain.sol\":2322:2329  address */\n      0x00\n        /* \"contracts/PharmaSupplyChain.sol\":2331:2342  BatchStatus */\n      dup1\n        /* \"contracts/PharmaSupplyChain.sol\":2344:2348  uint */\n      0x00\n        /* \"contracts/PharmaSupplyChain.sol\":2361:2383  DrugBatch memory batch */\n      dup1\n        /* \"contracts/PharmaSupplyChain.sol\":2386:2393  batches */\n      0x00\n        /* \"contracts/PharmaSupplyChain.sol\":2394:2406  _batchNumber */\n      dup9\n        /* \"contracts/PharmaSupplyChain.sol\":2386:2407  batches[_batchNumber] */\n      mload(0x40)\n      tag_105\n      swap2\n      swap1\n      tag_32\n      jump\t// in\n    tag_105:\n      swap1\n      dup2\n      mstore\n      0x20\n      add\n      mload(0x40)\n      dup1\n      swap2\n      sub\n      swap1\n      keccak256\n        /* \"contracts/PharmaSupplyChain.sol\":2361:2407  DrugBatch memory batch = batches[_batchNumber] */\n      mload(0x40)\n      dup1\n      0xc0\n      add\n      0x40\n      mstore\n      swap1\n      dup2\n      0x00\n      dup3\n      add\n      dup1\n      sload\n      tag_106\n      swap1\n      tag_49\n      jump\t// in\n    tag_106:\n      dup1\n      0x1f\n      add\n      0x20\n      dup1\n      swap2\n      div\n      mul\n      0x20\n      add\n      mload(0x40)\n      swap1\n      dup2\n      add\n      0x40\n      mstore\n      dup1\n      swap3\n      swap2\n      swap1\n      dup2\n      dup2\n      mstore\n      0x20\n      add\n      dup3\n      dup1\n      sload\n      tag_107\n      swap1\n      tag_49\n      jump\t// in\n    tag_107:\n      dup1\n      iszero\n      tag_108\n      jumpi\n      dup1\n      0x1f\n      lt\n      tag_109\n      jumpi\n      0x0100\n      dup1\n      dup4\n      sload\n      div\n      mul\n      dup4\n      mstore\n      swap2\n      0x20\n      add\n      swap2\n      jump(tag_108)\n    tag_109:\n      dup3\n      add\n      swap2\n      swap1\n      0x00\n      mstore\n      keccak256(0x00, 0x20)\n      swap1\n    tag_110:\n      dup2\n      sload\n      dup2\n      mstore\n      swap1\n      0x01\n      add\n      swap1\n      0x20\n      add\n      dup1\n      dup4\n      gt\n      tag_110\n      jumpi\n      dup3\n      swap1\n      sub\n      0x1f\n      and\n      dup3\n      add\n      swap2\n    tag_108:\n      pop\n      pop\n      pop\n      pop\n      pop\n      dup2\n      mstore\n      0x20\n      add\n      0x01\n      dup3\n      add\n      dup1\n      sload\n      tag_111\n      swap1\n      tag_49\n      jump\t// in\n    tag_111:\n      dup1\n      0x1f\n      add\n      0x20\n      dup1\n      swap2\n      div\n      mul\n      0x20\n      add\n      mload(0x40)\n      swap1\n      dup2\n      add\n      0x40\n      mstore\n      dup1\n      swap3\n      swap2\n      swap1\n      dup2\n      dup2\n      mstore\n      0x20\n      add\n      dup3\n      dup1\n      sload\n      tag_112\n      swap1\n      tag_49\n      jump\t// in\n    tag_112:\n      dup1\n      iszero\n      tag_113\n      jumpi\n      dup1\n      0x1f\n      lt\n      tag_114\n      jumpi\n      0x0100\n      dup1\n      dup4\n      sload\n      div\n      mul\n      dup4\n      mstore\n      swap2\n      0x20\n      add\n      swap2\n      jump(tag_113)\n    tag_114:\n      dup3\n      add\n      swap2\n      swap1\n      0x00\n      mstore\n      keccak256(0x00, 0x20)\n      swap1\n    tag_115:\n      dup2\n      sload\n      dup2\n      mstore\n      swap1\n      0x01\n      add\n      swap1\n      0x20\n      add\n      dup1\n      dup4\n      gt\n      tag_115\n      jumpi\n      dup3\n      swap1\n      sub\n      0x1f\n      and\n      dup3\n      add\n      swap2\n    tag_113:\n      pop\n      pop\n      pop\n      pop\n      pop\n      dup2\n      mstore\n      0x20\n      add\n      0x02\n      dup3\n      add\n      dup1\n      sload\n      tag_116\n      swap1\n      tag_49\n      jump\t// in\n    tag_116:\n      dup1\n      0x1f\n      add\n      0x20\n      dup1\n      swap2\n      div\n      mul\n      0x20\n      add\n      mload(0x40)\n      swap1\n      dup2\n      add\n      0x40\n      mstore\n      dup1\n      swap3\n      swap2\n      swap1\n      dup2\n      dup2\n      mstore\n      0x20\n      add\n      dup3\n      dup1\n      sload\n      tag_117\n      swap1\n      tag_49\n      jump\t// in\n    tag_117:\n      dup1\n      iszero\n      tag_118\n      jumpi\n      dup1\n      0x1f\n      lt\n      tag_119\n      jumpi\n      0x0100\n      dup1\n      dup4\n      sload\n      div\n      mul\n      dup4\n      mstore\n      swap2\n      0x20\n      add\n      swap2\n      jump(tag_118)\n    tag_119:\n      dup3\n      add\n      swap2\n      swap1\n      0x00\n      mstore\n      keccak256(0x00, 0x20)\n      swap1\n    tag_120:\n      dup2\n      sload\n      dup2\n      mstore\n      swap1\n      0x01\n      add\n      swap1\n      0x20\n      add\n      dup1\n      dup4\n      gt\n      tag_120\n      jumpi\n      dup3\n      swap1\n      sub\n      0x1f\n      and\n      dup3\n      add\n      swap2\n    tag_118:\n      pop\n      pop\n      pop\n      pop\n      pop\n      dup2\n      mstore\n      0x20\n      add\n      0x03\n      dup3\n      add\n      0x00\n      swap1\n      sload\n      swap1\n      0x0100\n      exp\n      swap1\n      div\n      0xffffffffffffffffffffffffffffffffffffffff\n      and\n      0xffffffffffffffffffffffffffffffffffffffff\n      and\n      0xffffffffffffffffffffffffffffffffffffffff\n      and\n      dup2\n      mstore\n      0x20\n      add\n      0x03\n      dup3\n      add\n      0x14\n      swap1\n      sload\n      swap1\n      0x0100\n      exp\n      swap1\n      div\n      0xff\n      and\n      0x02\n      dup2\n      gt\n      iszero\n      tag_121\n      jumpi\n      tag_122\n      tag_38\n      jump\t// in\n    tag_122:\n    tag_121:\n      0x02\n      dup2\n      gt\n      iszero\n      tag_123\n      jumpi\n      tag_124\n      tag_38\n      jump\t// in\n    tag_124:\n    tag_123:\n      dup2\n      mstore\n      0x20\n      add\n      0x04\n      dup3\n      add\n      sload\n      dup2\n      mstore\n      pop\n      pop\n      swap1\n      pop\n        /* \"contracts/PharmaSupplyChain.sol\":2445:2446  0 */\n      0x00\n        /* \"contracts/PharmaSupplyChain.sol\":2426:2431  batch */\n      dup2\n        /* \"contracts/PharmaSupplyChain.sol\":2426:2441  batch.createdAt */\n      0xa0\n      add\n      mload\n        /* \"contracts/PharmaSupplyChain.sol\":2426:2446  batch.createdAt != 0 */\n      sub\n        /* \"contracts/PharmaSupplyChain.sol\":2418:2471  require(batch.createdAt != 0, \"Batch does not exist\") */\n      tag_125\n      jumpi\n      mload(0x40)\n      0x08c379a000000000000000000000000000000000000000000000000000000000\n      dup2\n      mstore\n      0x04\n      add\n      tag_126\n      swap1\n      tag_68\n      jump\t// in\n    tag_126:\n      mload(0x40)\n      dup1\n      swap2\n      sub\n      swap1\n      revert\n    tag_125:\n        /* \"contracts/PharmaSupplyChain.sol\":2492:2497  batch */\n      dup1\n        /* \"contracts/PharmaSupplyChain.sol\":2492:2509  batch.batchNumber */\n      0x00\n      add\n      mload\n        /* \"contracts/PharmaSupplyChain.sol\":2511:2516  batch */\n      dup2\n        /* \"contracts/PharmaSupplyChain.sol\":2511:2529  batch.manufacturer */\n      0x20\n      add\n      mload\n        /* \"contracts/PharmaSupplyChain.sol\":2531:2536  batch */\n      dup3\n        /* \"contracts/PharmaSupplyChain.sol\":2531:2551  batch.expirationDate */\n      0x40\n      add\n      mload\n        /* \"contracts/PharmaSupplyChain.sol\":2553:2558  batch */\n      dup4\n        /* \"contracts/PharmaSupplyChain.sol\":2553:2564  batch.owner */\n      0x60\n      add\n      mload\n        /* \"contracts/PharmaSupplyChain.sol\":2566:2571  batch */\n      dup5\n        /* \"contracts/PharmaSupplyChain.sol\":2566:2578  batch.status */\n      0x80\n      add\n      mload\n        /* \"contracts/PharmaSupplyChain.sol\":2580:2585  batch */\n      dup6\n        /* \"contracts/PharmaSupplyChain.sol\":2580:2595  batch.createdAt */\n      0xa0\n      add\n      mload\n        /* \"contracts/PharmaSupplyChain.sol\":2484:2596  return (batch.batchNumber, batch.manufacturer, batch.expirationDate, batch.owner, batch.status, batch.createdAt) */\n      swap7\n      pop\n      swap7\n      pop\n      swap7\n      pop\n      swap7\n      pop\n      swap7\n      pop\n      swap7\n      pop\n      pop\n        /* \"contracts/PharmaSupplyChain.sol\":2210:2604  function getBatch(string memory _batchNumber) public view returns (string memory, string memory, string memory, address, BatchStatus, uint) {... */\n      swap2\n      swap4\n      swap6\n      pop\n      swap2\n      swap4\n      swap6\n      jump\t// out\n        /* \"#utility.yul\":7:82   */\n    tag_127:\n        /* \"#utility.yul\":40:46   */\n      0x00\n        /* \"#utility.yul\":73:75   */\n      0x40\n        /* \"#utility.yul\":67:76   */\n      mload\n        /* \"#utility.yul\":57:76   */\n      swap1\n      pop\n        /* \"#utility.yul\":7:82   */\n      swap1\n      jump\t// out\n        /* \"#utility.yul\":88:205   */\n    tag_128:\n        /* \"#utility.yul\":197:198   */\n      0x00\n        /* \"#utility.yul\":194:195   */\n      dup1\n        /* \"#utility.yul\":187:199   */\n      revert\n        /* \"#utility.yul\":211:328   */\n    tag_129:\n        /* \"#utility.yul\":320:321   */\n      0x00\n        /* \"#utility.yul\":317:318   */\n      dup1\n        /* \"#utility.yul\":310:322   */\n      revert\n        /* \"#utility.yul\":334:451   */\n    tag_130:\n        /* \"#utility.yul\":443:444   */\n      0x00\n        /* \"#utility.yul\":440:441   */\n      dup1\n        /* \"#utility.yul\":433:445   */\n      revert\n        /* \"#utility.yul\":457:574   */\n    tag_131:\n        /* \"#utility.yul\":566:567   */\n      0x00\n        /* \"#utility.yul\":563:564   */\n      dup1\n        /* \"#utility.yul\":556:568   */\n      revert\n        /* \"#utility.yul\":580:682   */\n    tag_132:\n        /* \"#utility.yul\":621:627   */\n      0x00\n        /* \"#utility.yul\":672:674   */\n      0x1f\n        /* \"#utility.yul\":668:675   */\n      not\n        /* \"#utility.yul\":663:665   */\n      0x1f\n        /* \"#utility.yul\":656:661   */\n      dup4\n        /* \"#utility.yul\":652:666   */\n      add\n        /* \"#utility.yul\":648:676   */\n      and\n        /* \"#utility.yul\":638:676   */\n      swap1\n      pop\n        /* \"#utility.yul\":580:682   */\n      swap2\n      swap1\n      pop\n      jump\t// out\n        /* \"#utility.yul\":688:868   */\n    tag_133:\n        /* \"#utility.yul\":736:813   */\n      0x4e487b7100000000000000000000000000000000000000000000000000000000\n        /* \"#utility.yul\":733:734   */\n      0x00\n        /* \"#utility.yul\":726:814   */\n      mstore\n        /* \"#utility.yul\":833:837   */\n      0x41\n        /* \"#utility.yul\":830:831   */\n      0x04\n        /* \"#utility.yul\":823:838   */\n      mstore\n        /* \"#utility.yul\":857:861   */\n      0x24\n        /* \"#utility.yul\":854:855   */\n      0x00\n        /* \"#utility.yul\":847:862   */\n      revert\n        /* \"#utility.yul\":874:1155   */\n    tag_134:\n        /* \"#utility.yul\":957:984   */\n      tag_196\n        /* \"#utility.yul\":979:983   */\n      dup3\n        /* \"#utility.yul\":957:984   */\n      tag_132\n      jump\t// in\n    tag_196:\n        /* \"#utility.yul\":949:955   */\n      dup2\n        /* \"#utility.yul\":945:985   */\n      add\n        /* \"#utility.yul\":1087:1093   */\n      dup2\n        /* \"#utility.yul\":1075:1085   */\n      dup2\n        /* \"#utility.yul\":1072:1094   */\n      lt\n        /* \"#utility.yul\":1051:1069   */\n      0xffffffffffffffff\n        /* \"#utility.yul\":1039:1049   */\n      dup3\n        /* \"#utility.yul\":1036:1070   */\n      gt\n        /* \"#utility.yul\":1033:1095   */\n      or\n        /* \"#utility.yul\":1030:1118   */\n      iszero\n      tag_197\n      jumpi\n        /* \"#utility.yul\":1098:1116   */\n      tag_198\n      tag_133\n      jump\t// in\n    tag_198:\n        /* \"#utility.yul\":1030:1118   */\n    tag_197:\n        /* \"#utility.yul\":1138:1148   */\n      dup1\n        /* \"#utility.yul\":1134:1136   */\n      0x40\n        /* \"#utility.yul\":1127:1149   */\n      mstore\n        /* \"#utility.yul\":917:1155   */\n      pop\n        /* \"#utility.yul\":874:1155   */\n      pop\n      pop\n      jump\t// out\n        /* \"#utility.yul\":1161:1290   */\n    tag_135:\n        /* \"#utility.yul\":1195:1201   */\n      0x00\n        /* \"#utility.yul\":1222:1242   */\n      tag_200\n      tag_127\n      jump\t// in\n    tag_200:\n        /* \"#utility.yul\":1212:1242   */\n      swap1\n      pop\n        /* \"#utility.yul\":1251:1284   */\n      tag_201\n        /* \"#utility.yul\":1279:1283   */\n      dup3\n        /* \"#utility.yul\":1271:1277   */\n      dup3\n        /* \"#utility.yul\":1251:1284   */\n      tag_134\n      jump\t// in\n    tag_201:\n        /* \"#utility.yul\":1161:1290   */\n      swap2\n      swap1\n      pop\n      jump\t// out\n        /* \"#utility.yul\":1296:1604   */\n    tag_136:\n        /* \"#utility.yul\":1358:1362   */\n      0x00\n        /* \"#utility.yul\":1448:1466   */\n      0xffffffffffffffff\n        /* \"#utility.yul\":1440:1446   */\n      dup3\n        /* \"#utility.yul\":1437:1467   */\n      gt\n        /* \"#utility.yul\":1434:1490   */\n      iszero\n      tag_203\n      jumpi\n        /* \"#utility.yul\":1470:1488   */\n      tag_204\n      tag_133\n      jump\t// in\n    tag_204:\n        /* \"#utility.yul\":1434:1490   */\n    tag_203:\n        /* \"#utility.yul\":1508:1537   */\n      tag_205\n        /* \"#utility.yul\":1530:1536   */\n      dup3\n        /* \"#utility.yul\":1508:1537   */\n      tag_132\n      jump\t// in\n    tag_205:\n        /* \"#utility.yul\":1500:1537   */\n      swap1\n      pop\n        /* \"#utility.yul\":1592:1596   */\n      0x20\n        /* \"#utility.yul\":1586:1590   */\n      dup2\n        /* \"#utility.yul\":1582:1597   */\n      add\n        /* \"#utility.yul\":1574:1597   */\n      swap1\n      pop\n        /* \"#utility.yul\":1296:1604   */\n      swap2\n      swap1\n      pop\n      jump\t// out\n        /* \"#utility.yul\":1610:1758   */\n    tag_137:\n        /* \"#utility.yul\":1708:1714   */\n      dup3\n        /* \"#utility.yul\":1703:1706   */\n      dup2\n        /* \"#utility.yul\":1698:1701   */\n      dup4\n        /* \"#utility.yul\":1685:1715   */\n      calldatacopy\n        /* \"#utility.yul\":1749:1750   */\n      0x00\n        /* \"#utility.yul\":1740:1746   */\n      dup4\n        /* \"#utility.yul\":1735:1738   */\n      dup4\n        /* \"#utility.yul\":1731:1747   */\n      add\n        /* \"#utility.yul\":1724:1751   */\n      mstore\n        /* \"#utility.yul\":1610:1758   */\n      pop\n      pop\n      pop\n      jump\t// out\n        /* \"#utility.yul\":1764:2189   */\n    tag_138:\n        /* \"#utility.yul\":1842:1847   */\n      0x00\n        /* \"#utility.yul\":1867:1933   */\n      tag_208\n        /* \"#utility.yul\":1883:1932   */\n      tag_209\n        /* \"#utility.yul\":1925:1931   */\n      dup5\n        /* \"#utility.yul\":1883:1932   */\n      tag_136\n      jump\t// in\n    tag_209:\n        /* \"#utility.yul\":1867:1933   */\n      tag_135\n      jump\t// in\n    tag_208:\n        /* \"#utility.yul\":1858:1933   */\n      swap1\n      pop\n        /* \"#utility.yul\":1956:1962   */\n      dup3\n        /* \"#utility.yul\":1949:1954   */\n      dup2\n        /* \"#utility.yul\":1942:1963   */\n      mstore\n        /* \"#utility.yul\":1994:1998   */\n      0x20\n        /* \"#utility.yul\":1987:1992   */\n      dup2\n        /* \"#utility.yul\":1983:1999   */\n      add\n        /* \"#utility.yul\":2032:2035   */\n      dup5\n        /* \"#utility.yul\":2023:2029   */\n      dup5\n        /* \"#utility.yul\":2018:2021   */\n      dup5\n        /* \"#utility.yul\":2014:2030   */\n      add\n        /* \"#utility.yul\":2011:2036   */\n      gt\n        /* \"#utility.yul\":2008:2120   */\n      iszero\n      tag_210\n      jumpi\n        /* \"#utility.yul\":2039:2118   */\n      tag_211\n      tag_131\n      jump\t// in\n    tag_211:\n        /* \"#utility.yul\":2008:2120   */\n    tag_210:\n        /* \"#utility.yul\":2129:2183   */\n      tag_212\n        /* \"#utility.yul\":2176:2182   */\n      dup5\n        /* \"#utility.yul\":2171:2174   */\n      dup3\n        /* \"#utility.yul\":2166:2169   */\n      dup6\n        /* \"#utility.yul\":2129:2183   */\n      tag_137\n      jump\t// in\n    tag_212:\n        /* \"#utility.yul\":1848:2189   */\n      pop\n        /* \"#utility.yul\":1764:2189   */\n      swap4\n      swap3\n      pop\n      pop\n      pop\n      jump\t// out\n        /* \"#utility.yul\":2209:2549   */\n    tag_139:\n        /* \"#utility.yul\":2265:2270   */\n      0x00\n        /* \"#utility.yul\":2314:2317   */\n      dup3\n        /* \"#utility.yul\":2307:2311   */\n      0x1f\n        /* \"#utility.yul\":2299:2305   */\n      dup4\n        /* \"#utility.yul\":2295:2312   */\n      add\n        /* \"#utility.yul\":2291:2318   */\n      slt\n        /* \"#utility.yul\":2281:2403   */\n      tag_214\n      jumpi\n        /* \"#utility.yul\":2322:2401   */\n      tag_215\n      tag_130\n      jump\t// in\n    tag_215:\n        /* \"#utility.yul\":2281:2403   */\n    tag_214:\n        /* \"#utility.yul\":2439:2445   */\n      dup2\n        /* \"#utility.yul\":2426:2446   */\n      calldataload\n        /* \"#utility.yul\":2464:2543   */\n      tag_216\n        /* \"#utility.yul\":2539:2542   */\n      dup5\n        /* \"#utility.yul\":2531:2537   */\n      dup3\n        /* \"#utility.yul\":2524:2528   */\n      0x20\n        /* \"#utility.yul\":2516:2522   */\n      dup7\n        /* \"#utility.yul\":2512:2529   */\n      add\n        /* \"#utility.yul\":2464:2543   */\n      tag_138\n      jump\t// in\n    tag_216:\n        /* \"#utility.yul\":2455:2543   */\n      swap2\n      pop\n        /* \"#utility.yul\":2271:2549   */\n      pop\n        /* \"#utility.yul\":2209:2549   */\n      swap3\n      swap2\n      pop\n      pop\n      jump\t// out\n        /* \"#utility.yul\":2555:3714   */\n    tag_10:\n        /* \"#utility.yul\":2662:2668   */\n      0x00\n        /* \"#utility.yul\":2670:2676   */\n      dup1\n        /* \"#utility.yul\":2678:2684   */\n      0x00\n        /* \"#utility.yul\":2727:2729   */\n      0x60\n        /* \"#utility.yul\":2715:2724   */\n      dup5\n        /* \"#utility.yul\":2706:2713   */\n      dup7\n        /* \"#utility.yul\":2702:2725   */\n      sub\n        /* \"#utility.yul\":2698:2730   */\n      slt\n        /* \"#utility.yul\":2695:2814   */\n      iszero\n      tag_218\n      jumpi\n        /* \"#utility.yul\":2733:2812   */\n      tag_219\n      tag_128\n      jump\t// in\n    tag_219:\n        /* \"#utility.yul\":2695:2814   */\n    tag_218:\n        /* \"#utility.yul\":2881:2882   */\n      0x00\n        /* \"#utility.yul\":2870:2879   */\n      dup5\n        /* \"#utility.yul\":2866:2883   */\n      add\n        /* \"#utility.yul\":2853:2884   */\n      calldataload\n        /* \"#utility.yul\":2911:2929   */\n      0xffffffffffffffff\n        /* \"#utility.yul\":2903:2909   */\n      dup2\n        /* \"#utility.yul\":2900:2930   */\n      gt\n        /* \"#utility.yul\":2897:3014   */\n      iszero\n      tag_220\n      jumpi\n        /* \"#utility.yul\":2933:3012   */\n      tag_221\n      tag_129\n      jump\t// in\n    tag_221:\n        /* \"#utility.yul\":2897:3014   */\n    tag_220:\n        /* \"#utility.yul\":3038:3101   */\n      tag_222\n        /* \"#utility.yul\":3093:3100   */\n      dup7\n        /* \"#utility.yul\":3084:3090   */\n      dup3\n        /* \"#utility.yul\":3073:3082   */\n      dup8\n        /* \"#utility.yul\":3069:3091   */\n      add\n        /* \"#utility.yul\":3038:3101   */\n      tag_139\n      jump\t// in\n    tag_222:\n        /* \"#utility.yul\":3028:3101   */\n      swap4\n      pop\n        /* \"#utility.yul\":2824:3111   */\n      pop\n        /* \"#utility.yul\":3178:3180   */\n      0x20\n        /* \"#utility.yul\":3167:3176   */\n      dup5\n        /* \"#utility.yul\":3163:3181   */\n      add\n        /* \"#utility.yul\":3150:3182   */\n      calldataload\n        /* \"#utility.yul\":3209:3227   */\n      0xffffffffffffffff\n        /* \"#utility.yul\":3201:3207   */\n      dup2\n        /* \"#utility.yul\":3198:3228   */\n      gt\n        /* \"#utility.yul\":3195:3312   */\n      iszero\n      tag_223\n      jumpi\n        /* \"#utility.yul\":3231:3310   */\n      tag_224\n      tag_129\n      jump\t// in\n    tag_224:\n        /* \"#utility.yul\":3195:3312   */\n    tag_223:\n        /* \"#utility.yul\":3336:3399   */\n      tag_225\n        /* \"#utility.yul\":3391:3398   */\n      dup7\n        /* \"#utility.yul\":3382:3388   */\n      dup3\n        /* \"#utility.yul\":3371:3380   */\n      dup8\n        /* \"#utility.yul\":3367:3389   */\n      add\n        /* \"#utility.yul\":3336:3399   */\n      tag_139\n      jump\t// in\n    tag_225:\n        /* \"#utility.yul\":3326:3399   */\n      swap3\n      pop\n        /* \"#utility.yul\":3121:3409   */\n      pop\n        /* \"#utility.yul\":3476:3478   */\n      0x40\n        /* \"#utility.yul\":3465:3474   */\n      dup5\n        /* \"#utility.yul\":3461:3479   */\n      add\n        /* \"#utility.yul\":3448:3480   */\n      calldataload\n        /* \"#utility.yul\":3507:3525   */\n      0xffffffffffffffff\n        /* \"#utility.yul\":3499:3505   */\n      dup2\n        /* \"#utility.yul\":3496:3526   */\n      gt\n        /* \"#utility.yul\":3493:3610   */\n      iszero\n      tag_226\n      jumpi\n        /* \"#utility.yul\":3529:3608   */\n      tag_227\n      tag_129\n      jump\t// in\n    tag_227:\n        /* \"#utility.yul\":3493:3610   */\n    tag_226:\n        /* \"#utility.yul\":3634:3697   */\n      tag_228\n        /* \"#utility.yul\":3689:3696   */\n      dup7\n        /* \"#utility.yul\":3680:3686   */\n      dup3\n        /* \"#utility.yul\":3669:3678   */\n      dup8\n        /* \"#utility.yul\":3665:3687   */\n      add\n        /* \"#utility.yul\":3634:3697   */\n      tag_139\n      jump\t// in\n    tag_228:\n        /* \"#utility.yul\":3624:3697   */\n      swap2\n      pop\n        /* \"#utility.yul\":3419:3707   */\n      pop\n        /* \"#utility.yul\":2555:3714   */\n      swap3\n      pop\n      swap3\n      pop\n      swap3\n      jump\t// out\n        /* \"#utility.yul\":3720:4229   */\n    tag_14:\n        /* \"#utility.yul\":3789:3795   */\n      0x00\n        /* \"#utility.yul\":3838:3840   */\n      0x20\n        /* \"#utility.yul\":3826:3835   */\n      dup3\n        /* \"#utility.yul\":3817:3824   */\n      dup5\n        /* \"#utility.yul\":3813:3836   */\n      sub\n        /* \"#utility.yul\":3809:3841   */\n      slt\n        /* \"#utility.yul\":3806:3925   */\n      iszero\n      tag_230\n      jumpi\n        /* \"#utility.yul\":3844:3923   */\n      tag_231\n      tag_128\n      jump\t// in\n    tag_231:\n        /* \"#utility.yul\":3806:3925   */\n    tag_230:\n        /* \"#utility.yul\":3992:3993   */\n      0x00\n        /* \"#utility.yul\":3981:3990   */\n      dup3\n        /* \"#utility.yul\":3977:3994   */\n      add\n        /* \"#utility.yul\":3964:3995   */\n      calldataload\n        /* \"#utility.yul\":4022:4040   */\n      0xffffffffffffffff\n        /* \"#utility.yul\":4014:4020   */\n      dup2\n        /* \"#utility.yul\":4011:4041   */\n      gt\n        /* \"#utility.yul\":4008:4125   */\n      iszero\n      tag_232\n      jumpi\n        /* \"#utility.yul\":4044:4123   */\n      tag_233\n      tag_129\n      jump\t// in\n    tag_233:\n        /* \"#utility.yul\":4008:4125   */\n    tag_232:\n        /* \"#utility.yul\":4149:4212   */\n      tag_234\n        /* \"#utility.yul\":4204:4211   */\n      dup5\n        /* \"#utility.yul\":4195:4201   */\n      dup3\n        /* \"#utility.yul\":4184:4193   */\n      dup6\n        /* \"#utility.yul\":4180:4202   */\n      add\n        /* \"#utility.yul\":4149:4212   */\n      tag_139\n      jump\t// in\n    tag_234:\n        /* \"#utility.yul\":4139:4212   */\n      swap2\n      pop\n        /* \"#utility.yul\":3935:4222   */\n      pop\n        /* \"#utility.yul\":3720:4229   */\n      swap3\n      swap2\n      pop\n      pop\n      jump\t// out\n        /* \"#utility.yul\":4235:4334   */\n    tag_140:\n        /* \"#utility.yul\":4287:4293   */\n      0x00\n        /* \"#utility.yul\":4321:4326   */\n      dup2\n        /* \"#utility.yul\":4315:4327   */\n      mload\n        /* \"#utility.yul\":4305:4327   */\n      swap1\n      pop\n        /* \"#utility.yul\":4235:4334   */\n      swap2\n      swap1\n      pop\n      jump\t// out\n        /* \"#utility.yul\":4340:4509   */\n    tag_141:\n        /* \"#utility.yul\":4424:4435   */\n      0x00\n        /* \"#utility.yul\":4458:4464   */\n      dup3\n        /* \"#utility.yul\":4453:4456   */\n      dup3\n        /* \"#utility.yul\":4446:4465   */\n      mstore\n        /* \"#utility.yul\":4498:4502   */\n      0x20\n        /* \"#utility.yul\":4493:4496   */\n      dup3\n        /* \"#utility.yul\":4489:4503   */\n      add\n        /* \"#utility.yul\":4474:4503   */\n      swap1\n      pop\n        /* \"#utility.yul\":4340:4509   */\n      swap3\n      swap2\n      pop\n      pop\n      jump\t// out\n        /* \"#utility.yul\":4515:4654   */\n    tag_142:\n        /* \"#utility.yul\":4604:4610   */\n      dup3\n        /* \"#utility.yul\":4599:4602   */\n      dup2\n        /* \"#utility.yul\":4594:4597   */\n      dup4\n        /* \"#utility.yul\":4588:4611   */\n      mcopy\n        /* \"#utility.yul\":4645:4646   */\n      0x00\n        /* \"#utility.yul\":4636:4642   */\n      dup4\n        /* \"#utility.yul\":4631:4634   */\n      dup4\n        /* \"#utility.yul\":4627:4643   */\n      add\n        /* \"#utility.yul\":4620:4647   */\n      mstore\n        /* \"#utility.yul\":4515:4654   */\n      pop\n      pop\n      pop\n      jump\t// out\n        /* \"#utility.yul\":4660:5037   */\n    tag_143:\n        /* \"#utility.yul\":4748:4751   */\n      0x00\n        /* \"#utility.yul\":4776:4815   */\n      tag_239\n        /* \"#utility.yul\":4809:4814   */\n      dup3\n        /* \"#utility.yul\":4776:4815   */\n      tag_140\n      jump\t// in\n    tag_239:\n        /* \"#utility.yul\":4831:4902   */\n      tag_240\n        /* \"#utility.yul\":4895:4901   */\n      dup2\n        /* \"#utility.yul\":4890:4893   */\n      dup6\n        /* \"#utility.yul\":4831:4902   */\n      tag_141\n      jump\t// in\n    tag_240:\n        /* \"#utility.yul\":4824:4902   */\n      swap4\n      pop\n        /* \"#utility.yul\":4911:4976   */\n      tag_241\n        /* \"#utility.yul\":4969:4975   */\n      dup2\n        /* \"#utility.yul\":4964:4967   */\n      dup6\n        /* \"#utility.yul\":4957:4961   */\n      0x20\n        /* \"#utility.yul\":4950:4955   */\n      dup7\n        /* \"#utility.yul\":4946:4962   */\n      add\n        /* \"#utility.yul\":4911:4976   */\n      tag_142\n      jump\t// in\n    tag_241:\n        /* \"#utility.yul\":5001:5030   */\n      tag_242\n        /* \"#utility.yul\":5023:5029   */\n      dup2\n        /* \"#utility.yul\":5001:5030   */\n      tag_132\n      jump\t// in\n    tag_242:\n        /* \"#utility.yul\":4996:4999   */\n      dup5\n        /* \"#utility.yul\":4992:5031   */\n      add\n        /* \"#utility.yul\":4985:5031   */\n      swap2\n      pop\n        /* \"#utility.yul\":4752:5037   */\n      pop\n        /* \"#utility.yul\":4660:5037   */\n      swap3\n      swap2\n      pop\n      pop\n      jump\t// out\n        /* \"#utility.yul\":5043:5169   */\n    tag_144:\n        /* \"#utility.yul\":5080:5087   */\n      0x00\n        /* \"#utility.yul\":5120:5162   */\n      0xffffffffffffffffffffffffffffffffffffffff\n        /* \"#utility.yul\":5113:5118   */\n      dup3\n        /* \"#utility.yul\":5109:5163   */\n      and\n        /* \"#utility.yul\":5098:5163   */\n      swap1\n      pop\n        /* \"#utility.yul\":5043:5169   */\n      swap2\n      swap1\n      pop\n      jump\t// out\n        /* \"#utility.yul\":5175:5271   */\n    tag_145:\n        /* \"#utility.yul\":5212:5219   */\n      0x00\n        /* \"#utility.yul\":5241:5265   */\n      tag_245\n        /* \"#utility.yul\":5259:5264   */\n      dup3\n        /* \"#utility.yul\":5241:5265   */\n      tag_144\n      jump\t// in\n    tag_245:\n        /* \"#utility.yul\":5230:5265   */\n      swap1\n      pop\n        /* \"#utility.yul\":5175:5271   */\n      swap2\n      swap1\n      pop\n      jump\t// out\n        /* \"#utility.yul\":5277:5395   */\n    tag_146:\n        /* \"#utility.yul\":5364:5388   */\n      tag_247\n        /* \"#utility.yul\":5382:5387   */\n      dup2\n        /* \"#utility.yul\":5364:5388   */\n      tag_145\n      jump\t// in\n    tag_247:\n        /* \"#utility.yul\":5359:5362   */\n      dup3\n        /* \"#utility.yul\":5352:5389   */\n      mstore\n        /* \"#utility.yul\":5277:5395   */\n      pop\n      pop\n      jump\t// out\n        /* \"#utility.yul\":5401:5581   */\n    tag_38:\n        /* \"#utility.yul\":5449:5526   */\n      0x4e487b7100000000000000000000000000000000000000000000000000000000\n        /* \"#utility.yul\":5446:5447   */\n      0x00\n        /* \"#utility.yul\":5439:5527   */\n      mstore\n        /* \"#utility.yul\":5546:5550   */\n      0x21\n        /* \"#utility.yul\":5543:5544   */\n      0x04\n        /* \"#utility.yul\":5536:5551   */\n      mstore\n        /* \"#utility.yul\":5570:5574   */\n      0x24\n        /* \"#utility.yul\":5567:5568   */\n      0x00\n        /* \"#utility.yul\":5560:5575   */\n      revert\n        /* \"#utility.yul\":5587:5705   */\n    tag_147:\n        /* \"#utility.yul\":5673:5674   */\n      0x03\n        /* \"#utility.yul\":5666:5671   */\n      dup2\n        /* \"#utility.yul\":5663:5675   */\n      lt\n        /* \"#utility.yul\":5653:5699   */\n      tag_250\n      jumpi\n        /* \"#utility.yul\":5679:5697   */\n      tag_251\n      tag_38\n      jump\t// in\n    tag_251:\n        /* \"#utility.yul\":5653:5699   */\n    tag_250:\n        /* \"#utility.yul\":5587:5705   */\n      pop\n      jump\t// out\n        /* \"#utility.yul\":5711:5848   */\n    tag_148:\n        /* \"#utility.yul\":5761:5768   */\n      0x00\n        /* \"#utility.yul\":5790:5795   */\n      dup2\n        /* \"#utility.yul\":5779:5795   */\n      swap1\n      pop\n        /* \"#utility.yul\":5796:5842   */\n      tag_253\n        /* \"#utility.yul\":5836:5841   */\n      dup3\n        /* \"#utility.yul\":5796:5842   */\n      tag_147\n      jump\t// in\n    tag_253:\n        /* \"#utility.yul\":5711:5848   */\n      swap2\n      swap1\n      pop\n      jump\t// out\n        /* \"#utility.yul\":5854:5991   */\n    tag_149:\n        /* \"#utility.yul\":5915:5924   */\n      0x00\n        /* \"#utility.yul\":5948:5985   */\n      tag_255\n        /* \"#utility.yul\":5979:5984   */\n      dup3\n        /* \"#utility.yul\":5948:5985   */\n      tag_148\n      jump\t// in\n    tag_255:\n        /* \"#utility.yul\":5935:5985   */\n      swap1\n      pop\n        /* \"#utility.yul\":5854:5991   */\n      swap2\n      swap1\n      pop\n      jump\t// out\n        /* \"#utility.yul\":5997:6150   */\n    tag_150:\n        /* \"#utility.yul\":6095:6143   */\n      tag_257\n        /* \"#utility.yul\":6137:6142   */\n      dup2\n        /* \"#utility.yul\":6095:6143   */\n      tag_149\n      jump\t// in\n    tag_257:\n        /* \"#utility.yul\":6090:6093   */\n      dup3\n        /* \"#utility.yul\":6083:6144   */\n      mstore\n        /* \"#utility.yul\":5997:6150   */\n      pop\n      pop\n      jump\t// out\n        /* \"#utility.yul\":6156:6233   */\n    tag_151:\n        /* \"#utility.yul\":6193:6200   */\n      0x00\n        /* \"#utility.yul\":6222:6227   */\n      dup2\n        /* \"#utility.yul\":6211:6227   */\n      swap1\n      pop\n        /* \"#utility.yul\":6156:6233   */\n      swap2\n      swap1\n      pop\n      jump\t// out\n        /* \"#utility.yul\":6239:6357   */\n    tag_152:\n        /* \"#utility.yul\":6326:6350   */\n      tag_260\n        /* \"#utility.yul\":6344:6349   */\n      dup2\n        /* \"#utility.yul\":6326:6350   */\n      tag_151\n      jump\t// in\n    tag_260:\n        /* \"#utility.yul\":6321:6324   */\n      dup3\n        /* \"#utility.yul\":6314:6351   */\n      mstore\n        /* \"#utility.yul\":6239:6357   */\n      pop\n      pop\n      jump\t// out\n        /* \"#utility.yul\":6363:7433   */\n    tag_17:\n        /* \"#utility.yul\":6667:6671   */\n      0x00\n        /* \"#utility.yul\":6705:6708   */\n      0xc0\n        /* \"#utility.yul\":6694:6703   */\n      dup3\n        /* \"#utility.yul\":6690:6709   */\n      add\n        /* \"#utility.yul\":6682:6709   */\n      swap1\n      pop\n        /* \"#utility.yul\":6755:6764   */\n      dup2\n        /* \"#utility.yul\":6749:6753   */\n      dup2\n        /* \"#utility.yul\":6745:6765   */\n      sub\n        /* \"#utility.yul\":6741:6742   */\n      0x00\n        /* \"#utility.yul\":6730:6739   */\n      dup4\n        /* \"#utility.yul\":6726:6743   */\n      add\n        /* \"#utility.yul\":6719:6766   */\n      mstore\n        /* \"#utility.yul\":6783:6861   */\n      tag_262\n        /* \"#utility.yul\":6856:6860   */\n      dup2\n        /* \"#utility.yul\":6847:6853   */\n      dup10\n        /* \"#utility.yul\":6783:6861   */\n      tag_143\n      jump\t// in\n    tag_262:\n        /* \"#utility.yul\":6775:6861   */\n      swap1\n      pop\n        /* \"#utility.yul\":6908:6917   */\n      dup2\n        /* \"#utility.yul\":6902:6906   */\n      dup2\n        /* \"#utility.yul\":6898:6918   */\n      sub\n        /* \"#utility.yul\":6893:6895   */\n      0x20\n        /* \"#utility.yul\":6882:6891   */\n      dup4\n        /* \"#utility.yul\":6878:6896   */\n      add\n        /* \"#utility.yul\":6871:6919   */\n      mstore\n        /* \"#utility.yul\":6936:7014   */\n      tag_263\n        /* \"#utility.yul\":7009:7013   */\n      dup2\n        /* \"#utility.yul\":7000:7006   */\n      dup9\n        /* \"#utility.yul\":6936:7014   */\n      tag_143\n      jump\t// in\n    tag_263:\n        /* \"#utility.yul\":6928:7014   */\n      swap1\n      pop\n        /* \"#utility.yul\":7061:7070   */\n      dup2\n        /* \"#utility.yul\":7055:7059   */\n      dup2\n        /* \"#utility.yul\":7051:7071   */\n      sub\n        /* \"#utility.yul\":7046:7048   */\n      0x40\n        /* \"#utility.yul\":7035:7044   */\n      dup4\n        /* \"#utility.yul\":7031:7049   */\n      add\n        /* \"#utility.yul\":7024:7072   */\n      mstore\n        /* \"#utility.yul\":7089:7167   */\n      tag_264\n        /* \"#utility.yul\":7162:7166   */\n      dup2\n        /* \"#utility.yul\":7153:7159   */\n      dup8\n        /* \"#utility.yul\":7089:7167   */\n      tag_143\n      jump\t// in\n    tag_264:\n        /* \"#utility.yul\":7081:7167   */\n      swap1\n      pop\n        /* \"#utility.yul\":7177:7249   */\n      tag_265\n        /* \"#utility.yul\":7245:7247   */\n      0x60\n        /* \"#utility.yul\":7234:7243   */\n      dup4\n        /* \"#utility.yul\":7230:7248   */\n      add\n        /* \"#utility.yul\":7221:7227   */\n      dup7\n        /* \"#utility.yul\":7177:7249   */\n      tag_146\n      jump\t// in\n    tag_265:\n        /* \"#utility.yul\":7259:7343   */\n      tag_266\n        /* \"#utility.yul\":7338:7341   */\n      0x80\n        /* \"#utility.yul\":7327:7336   */\n      dup4\n        /* \"#utility.yul\":7323:7342   */\n      add\n        /* \"#utility.yul\":7314:7320   */\n      dup6\n        /* \"#utility.yul\":7259:7343   */\n      tag_150\n      jump\t// in\n    tag_266:\n        /* \"#utility.yul\":7353:7426   */\n      tag_267\n        /* \"#utility.yul\":7421:7424   */\n      0xa0\n        /* \"#utility.yul\":7410:7419   */\n      dup4\n        /* \"#utility.yul\":7406:7425   */\n      add\n        /* \"#utility.yul\":7397:7403   */\n      dup5\n        /* \"#utility.yul\":7353:7426   */\n      tag_152\n      jump\t// in\n    tag_267:\n        /* \"#utility.yul\":6363:7433   */\n      swap8\n      swap7\n      pop\n      pop\n      pop\n      pop\n      pop\n      pop\n      pop\n      jump\t// out\n        /* \"#utility.yul\":7439:7561   */\n    tag_153:\n        /* \"#utility.yul\":7512:7536   */\n      tag_269\n        /* \"#utility.yul\":7530:7535   */\n      dup2\n        /* \"#utility.yul\":7512:7536   */\n      tag_145\n      jump\t// in\n    tag_269:\n        /* \"#utility.yul\":7505:7510   */\n      dup2\n        /* \"#utility.yul\":7502:7537   */\n      eq\n        /* \"#utility.yul\":7492:7555   */\n      tag_270\n      jumpi\n        /* \"#utility.yul\":7551:7552   */\n      0x00\n        /* \"#utility.yul\":7548:7549   */\n      dup1\n        /* \"#utility.yul\":7541:7553   */\n      revert\n        /* \"#utility.yul\":7492:7555   */\n    tag_270:\n        /* \"#utility.yul\":7439:7561   */\n      pop\n      jump\t// out\n        /* \"#utility.yul\":7567:7706   */\n    tag_154:\n        /* \"#utility.yul\":7613:7618   */\n      0x00\n        /* \"#utility.yul\":7651:7657   */\n      dup2\n        /* \"#utility.yul\":7638:7658   */\n      calldataload\n        /* \"#utility.yul\":7629:7658   */\n      swap1\n      pop\n        /* \"#utility.yul\":7667:7700   */\n      tag_272\n        /* \"#utility.yul\":7694:7699   */\n      dup2\n        /* \"#utility.yul\":7667:7700   */\n      tag_153\n      jump\t// in\n    tag_272:\n        /* \"#utility.yul\":7567:7706   */\n      swap3\n      swap2\n      pop\n      pop\n      jump\t// out\n        /* \"#utility.yul\":7712:8366   */\n    tag_20:\n        /* \"#utility.yul\":7790:7796   */\n      0x00\n        /* \"#utility.yul\":7798:7804   */\n      dup1\n        /* \"#utility.yul\":7847:7849   */\n      0x40\n        /* \"#utility.yul\":7835:7844   */\n      dup4\n        /* \"#utility.yul\":7826:7833   */\n      dup6\n        /* \"#utility.yul\":7822:7845   */\n      sub\n        /* \"#utility.yul\":7818:7850   */\n      slt\n        /* \"#utility.yul\":7815:7934   */\n      iszero\n      tag_274\n      jumpi\n        /* \"#utility.yul\":7853:7932   */\n      tag_275\n      tag_128\n      jump\t// in\n    tag_275:\n        /* \"#utility.yul\":7815:7934   */\n    tag_274:\n        /* \"#utility.yul\":8001:8002   */\n      0x00\n        /* \"#utility.yul\":7990:7999   */\n      dup4\n        /* \"#utility.yul\":7986:8003   */\n      add\n        /* \"#utility.yul\":7973:8004   */\n      calldataload\n        /* \"#utility.yul\":8031:8049   */\n      0xffffffffffffffff\n        /* \"#utility.yul\":8023:8029   */\n      dup2\n        /* \"#utility.yul\":8020:8050   */\n      gt\n        /* \"#utility.yul\":8017:8134   */\n      iszero\n      tag_276\n      jumpi\n        /* \"#utility.yul\":8053:8132   */\n      tag_277\n      tag_129\n      jump\t// in\n    tag_277:\n        /* \"#utility.yul\":8017:8134   */\n    tag_276:\n        /* \"#utility.yul\":8158:8221   */\n      tag_278\n        /* \"#utility.yul\":8213:8220   */\n      dup6\n        /* \"#utility.yul\":8204:8210   */\n      dup3\n        /* \"#utility.yul\":8193:8202   */\n      dup7\n        /* \"#utility.yul\":8189:8211   */\n      add\n        /* \"#utility.yul\":8158:8221   */\n      tag_139\n      jump\t// in\n    tag_278:\n        /* \"#utility.yul\":8148:8221   */\n      swap3\n      pop\n        /* \"#utility.yul\":7944:8231   */\n      pop\n        /* \"#utility.yul\":8270:8272   */\n      0x20\n        /* \"#utility.yul\":8296:8349   */\n      tag_279\n        /* \"#utility.yul\":8341:8348   */\n      dup6\n        /* \"#utility.yul\":8332:8338   */\n      dup3\n        /* \"#utility.yul\":8321:8330   */\n      dup7\n        /* \"#utility.yul\":8317:8339   */\n      add\n        /* \"#utility.yul\":8296:8349   */\n      tag_154\n      jump\t// in\n    tag_279:\n        /* \"#utility.yul\":8286:8349   */\n      swap2\n      pop\n        /* \"#utility.yul\":8241:8359   */\n      pop\n        /* \"#utility.yul\":7712:8366   */\n      swap3\n      pop\n      swap3\n      swap1\n      pop\n      jump\t// out\n        /* \"#utility.yul\":8372:8484   */\n    tag_155:\n        /* \"#utility.yul\":8458:8459   */\n      0x03\n        /* \"#utility.yul\":8451:8456   */\n      dup2\n        /* \"#utility.yul\":8448:8460   */\n      lt\n        /* \"#utility.yul\":8438:8478   */\n      tag_281\n      jumpi\n        /* \"#utility.yul\":8474:8475   */\n      0x00\n        /* \"#utility.yul\":8471:8472   */\n      dup1\n        /* \"#utility.yul\":8464:8476   */\n      revert\n        /* \"#utility.yul\":8438:8478   */\n    tag_281:\n        /* \"#utility.yul\":8372:8484   */\n      pop\n      jump\t// out\n        /* \"#utility.yul\":8490:8655   */\n    tag_156:\n        /* \"#utility.yul\":8549:8554   */\n      0x00\n        /* \"#utility.yul\":8587:8593   */\n      dup2\n        /* \"#utility.yul\":8574:8594   */\n      calldataload\n        /* \"#utility.yul\":8565:8594   */\n      swap1\n      pop\n        /* \"#utility.yul\":8603:8649   */\n      tag_283\n        /* \"#utility.yul\":8643:8648   */\n      dup2\n        /* \"#utility.yul\":8603:8649   */\n      tag_155\n      jump\t// in\n    tag_283:\n        /* \"#utility.yul\":8490:8655   */\n      swap3\n      swap2\n      pop\n      pop\n      jump\t// out\n        /* \"#utility.yul\":8661:9341   */\n    tag_24:\n        /* \"#utility.yul\":8752:8758   */\n      0x00\n        /* \"#utility.yul\":8760:8766   */\n      dup1\n        /* \"#utility.yul\":8809:8811   */\n      0x40\n        /* \"#utility.yul\":8797:8806   */\n      dup4\n        /* \"#utility.yul\":8788:8795   */\n      dup6\n        /* \"#utility.yul\":8784:8807   */\n      sub\n        /* \"#utility.yul\":8780:8812   */\n      slt\n        /* \"#utility.yul\":8777:8896   */\n      iszero\n      tag_285\n      jumpi\n        /* \"#utility.yul\":8815:8894   */\n      tag_286\n      tag_128\n      jump\t// in\n    tag_286:\n        /* \"#utility.yul\":8777:8896   */\n    tag_285:\n        /* \"#utility.yul\":8963:8964   */\n      0x00\n        /* \"#utility.yul\":8952:8961   */\n      dup4\n        /* \"#utility.yul\":8948:8965   */\n      add\n        /* \"#utility.yul\":8935:8966   */\n      calldataload\n        /* \"#utility.yul\":8993:9011   */\n      0xffffffffffffffff\n        /* \"#utility.yul\":8985:8991   */\n      dup2\n        /* \"#utility.yul\":8982:9012   */\n      gt\n        /* \"#utility.yul\":8979:9096   */\n      iszero\n      tag_287\n      jumpi\n        /* \"#utility.yul\":9015:9094   */\n      tag_288\n      tag_129\n      jump\t// in\n    tag_288:\n        /* \"#utility.yul\":8979:9096   */\n    tag_287:\n        /* \"#utility.yul\":9120:9183   */\n      tag_289\n        /* \"#utility.yul\":9175:9182   */\n      dup6\n        /* \"#utility.yul\":9166:9172   */\n      dup3\n        /* \"#utility.yul\":9155:9164   */\n      dup7\n        /* \"#utility.yul\":9151:9173   */\n      add\n        /* \"#utility.yul\":9120:9183   */\n      tag_139\n      jump\t// in\n    tag_289:\n        /* \"#utility.yul\":9110:9183   */\n      swap3\n      pop\n        /* \"#utility.yul\":8906:9193   */\n      pop\n        /* \"#utility.yul\":9232:9234   */\n      0x20\n        /* \"#utility.yul\":9258:9324   */\n      tag_290\n        /* \"#utility.yul\":9316:9323   */\n      dup6\n        /* \"#utility.yul\":9307:9313   */\n      dup3\n        /* \"#utility.yul\":9296:9305   */\n      dup7\n        /* \"#utility.yul\":9292:9314   */\n      add\n        /* \"#utility.yul\":9258:9324   */\n      tag_156\n      jump\t// in\n    tag_290:\n        /* \"#utility.yul\":9248:9324   */\n      swap2\n      pop\n        /* \"#utility.yul\":9203:9334   */\n      pop\n        /* \"#utility.yul\":8661:9341   */\n      swap3\n      pop\n      swap3\n      swap1\n      pop\n      jump\t// out\n        /* \"#utility.yul\":9347:9495   */\n    tag_157:\n        /* \"#utility.yul\":9449:9460   */\n      0x00\n        /* \"#utility.yul\":9486:9489   */\n      dup2\n        /* \"#utility.yul\":9471:9489   */\n      swap1\n      pop\n        /* \"#utility.yul\":9347:9495   */\n      swap3\n      swap2\n      pop\n      pop\n      jump\t// out\n        /* \"#utility.yul\":9501:9891   */\n    tag_158:\n        /* \"#utility.yul\":9607:9610   */\n      0x00\n        /* \"#utility.yul\":9635:9674   */\n      tag_293\n        /* \"#utility.yul\":9668:9673   */\n      dup3\n        /* \"#utility.yul\":9635:9674   */\n      tag_140\n      jump\t// in\n    tag_293:\n        /* \"#utility.yul\":9690:9779   */\n      tag_294\n        /* \"#utility.yul\":9772:9778   */\n      dup2\n        /* \"#utility.yul\":9767:9770   */\n      dup6\n        /* \"#utility.yul\":9690:9779   */\n      tag_157\n      jump\t// in\n    tag_294:\n        /* \"#utility.yul\":9683:9779   */\n      swap4\n      pop\n        /* \"#utility.yul\":9788:9853   */\n      tag_295\n        /* \"#utility.yul\":9846:9852   */\n      dup2\n        /* \"#utility.yul\":9841:9844   */\n      dup6\n        /* \"#utility.yul\":9834:9838   */\n      0x20\n        /* \"#utility.yul\":9827:9832   */\n      dup7\n        /* \"#utility.yul\":9823:9839   */\n      add\n        /* \"#utility.yul\":9788:9853   */\n      tag_142\n      jump\t// in\n    tag_295:\n        /* \"#utility.yul\":9878:9884   */\n      dup1\n        /* \"#utility.yul\":9873:9876   */\n      dup5\n        /* \"#utility.yul\":9869:9885   */\n      add\n        /* \"#utility.yul\":9862:9885   */\n      swap2\n      pop\n        /* \"#utility.yul\":9611:9891   */\n      pop\n        /* \"#utility.yul\":9501:9891   */\n      swap3\n      swap2\n      pop\n      pop\n      jump\t// out\n        /* \"#utility.yul\":9897:10172   */\n    tag_32:\n        /* \"#utility.yul\":10029:10032   */\n      0x00\n        /* \"#utility.yul\":10051:10146   */\n      tag_297\n        /* \"#utility.yul\":10142:10145   */\n      dup3\n        /* \"#utility.yul\":10133:10139   */\n      dup5\n        /* \"#utility.yul\":10051:10146   */\n      tag_158\n      jump\t// in\n    tag_297:\n        /* \"#utility.yul\":10044:10146   */\n      swap2\n      pop\n        /* \"#utility.yul\":10163:10166   */\n      dup2\n        /* \"#utility.yul\":10156:10166   */\n      swap1\n      pop\n        /* \"#utility.yul\":9897:10172   */\n      swap3\n      swap2\n      pop\n      pop\n      jump\t// out\n        /* \"#utility.yul\":10178:10348   */\n    tag_159:\n        /* \"#utility.yul\":10318:10340   */\n      0x426174636820616c726561647920657869737473000000000000000000000000\n        /* \"#utility.yul\":10314:10315   */\n      0x00\n        /* \"#utility.yul\":10306:10312   */\n      dup3\n        /* \"#utility.yul\":10302:10316   */\n      add\n        /* \"#utility.yul\":10295:10341   */\n      mstore\n        /* \"#utility.yul\":10178:10348   */\n      pop\n      jump\t// out\n        /* \"#utility.yul\":10354:10720   */\n    tag_160:\n        /* \"#utility.yul\":10496:10499   */\n      0x00\n        /* \"#utility.yul\":10517:10584   */\n      tag_300\n        /* \"#utility.yul\":10581:10583   */\n      0x14\n        /* \"#utility.yul\":10576:10579   */\n      dup4\n        /* \"#utility.yul\":10517:10584   */\n      tag_141\n      jump\t// in\n    tag_300:\n        /* \"#utility.yul\":10510:10584   */\n      swap2\n      pop\n        /* \"#utility.yul\":10593:10686   */\n      tag_301\n        /* \"#utility.yul\":10682:10685   */\n      dup3\n        /* \"#utility.yul\":10593:10686   */\n      tag_159\n      jump\t// in\n    tag_301:\n        /* \"#utility.yul\":10711:10713   */\n      0x20\n        /* \"#utility.yul\":10706:10709   */\n      dup3\n        /* \"#utility.yul\":10702:10714   */\n      add\n        /* \"#utility.yul\":10695:10714   */\n      swap1\n      pop\n        /* \"#utility.yul\":10354:10720   */\n      swap2\n      swap1\n      pop\n      jump\t// out\n        /* \"#utility.yul\":10726:11145   */\n    tag_35:\n        /* \"#utility.yul\":10892:10896   */\n      0x00\n        /* \"#utility.yul\":10930:10932   */\n      0x20\n        /* \"#utility.yul\":10919:10928   */\n      dup3\n        /* \"#utility.yul\":10915:10933   */\n      add\n        /* \"#utility.yul\":10907:10933   */\n      swap1\n      pop\n        /* \"#utility.yul\":10979:10988   */\n      dup2\n        /* \"#utility.yul\":10973:10977   */\n      dup2\n        /* \"#utility.yul\":10969:10989   */\n      sub\n        /* \"#utility.yul\":10965:10966   */\n      0x00\n        /* \"#utility.yul\":10954:10963   */\n      dup4\n        /* \"#utility.yul\":10950:10967   */\n      add\n        /* \"#utility.yul\":10943:10990   */\n      mstore\n        /* \"#utility.yul\":11007:11138   */\n      tag_303\n        /* \"#utility.yul\":11133:11137   */\n      dup2\n        /* \"#utility.yul\":11007:11138   */\n      tag_160\n      jump\t// in\n    tag_303:\n        /* \"#utility.yul\":10999:11138   */\n      swap1\n      pop\n        /* \"#utility.yul\":10726:11145   */\n      swap2\n      swap1\n      pop\n      jump\t// out\n        /* \"#utility.yul\":11151:11331   */\n    tag_161:\n        /* \"#utility.yul\":11199:11276   */\n      0x4e487b7100000000000000000000000000000000000000000000000000000000\n        /* \"#utility.yul\":11196:11197   */\n      0x00\n        /* \"#utility.yul\":11189:11277   */\n      mstore\n        /* \"#utility.yul\":11296:11300   */\n      0x22\n        /* \"#utility.yul\":11293:11294   */\n      0x04\n        /* \"#utility.yul\":11286:11301   */\n      mstore\n        /* \"#utility.yul\":11320:11324   */\n      0x24\n        /* \"#utility.yul\":11317:11318   */\n      0x00\n        /* \"#utility.yul\":11310:11325   */\n      revert\n        /* \"#utility.yul\":11337:11657   */\n    tag_49:\n        /* \"#utility.yul\":11381:11387   */\n      0x00\n        /* \"#utility.yul\":11418:11419   */\n      0x02\n        /* \"#utility.yul\":11412:11416   */\n      dup3\n        /* \"#utility.yul\":11408:11420   */\n      div\n        /* \"#utility.yul\":11398:11420   */\n      swap1\n      pop\n        /* \"#utility.yul\":11465:11466   */\n      0x01\n        /* \"#utility.yul\":11459:11463   */\n      dup3\n        /* \"#utility.yul\":11455:11467   */\n      and\n        /* \"#utility.yul\":11486:11504   */\n      dup1\n        /* \"#utility.yul\":11476:11557   */\n      tag_306\n      jumpi\n        /* \"#utility.yul\":11542:11546   */\n      0x7f\n        /* \"#utility.yul\":11534:11540   */\n      dup3\n        /* \"#utility.yul\":11530:11547   */\n      and\n        /* \"#utility.yul\":11520:11547   */\n      swap2\n      pop\n        /* \"#utility.yul\":11476:11557   */\n    tag_306:\n        /* \"#utility.yul\":11604:11606   */\n      0x20\n        /* \"#utility.yul\":11596:11602   */\n      dup3\n        /* \"#utility.yul\":11593:11607   */\n      lt\n        /* \"#utility.yul\":11573:11591   */\n      dup2\n        /* \"#utility.yul\":11570:11608   */\n      sub\n        /* \"#utility.yul\":11567:11651   */\n      tag_307\n      jumpi\n        /* \"#utility.yul\":11623:11641   */\n      tag_308\n      tag_161\n      jump\t// in\n    tag_308:\n        /* \"#utility.yul\":11567:11651   */\n    tag_307:\n        /* \"#utility.yul\":11388:11657   */\n      pop\n        /* \"#utility.yul\":11337:11657   */\n      swap2\n      swap1\n      pop\n      jump\t// out\n        /* \"#utility.yul\":11663:11804   */\n    tag_162:\n        /* \"#utility.yul\":11712:11716   */\n      0x00\n        /* \"#utility.yul\":11735:11738   */\n      dup2\n        /* \"#utility.yul\":11727:11738   */\n      swap1\n      pop\n        /* \"#utility.yul\":11758:11761   */\n      dup2\n        /* \"#utility.yul\":11755:11756   */\n      0x00\n        /* \"#utility.yul\":11748:11762   */\n      mstore\n        /* \"#utility.yul\":11792:11796   */\n      0x20\n        /* \"#utility.yul\":11789:11790   */\n      0x00\n        /* \"#utility.yul\":11779:11797   */\n      keccak256\n        /* \"#utility.yul\":11771:11797   */\n      swap1\n      pop\n        /* \"#utility.yul\":11663:11804   */\n      swap2\n      swap1\n      pop\n      jump\t// out\n        /* \"#utility.yul\":11810:11903   */\n    tag_163:\n        /* \"#utility.yul\":11847:11853   */\n      0x00\n        /* \"#utility.yul\":11894:11896   */\n      0x20\n        /* \"#utility.yul\":11889:11891   */\n      0x1f\n        /* \"#utility.yul\":11882:11887   */\n      dup4\n        /* \"#utility.yul\":11878:11892   */\n      add\n        /* \"#utility.yul\":11874:11897   */\n      div\n        /* \"#utility.yul\":11864:11897   */\n      swap1\n      pop\n        /* \"#utility.yul\":11810:11903   */\n      swap2\n      swap1\n      pop\n      jump\t// out\n        /* \"#utility.yul\":11909:12016   */\n    tag_164:\n        /* \"#utility.yul\":11953:11961   */\n      0x00\n        /* \"#utility.yul\":12003:12008   */\n      dup3\n        /* \"#utility.yul\":11997:12001   */\n      dup3\n        /* \"#utility.yul\":11993:12009   */\n      shl\n        /* \"#utility.yul\":11972:12009   */\n      swap1\n      pop\n        /* \"#utility.yul\":11909:12016   */\n      swap3\n      swap2\n      pop\n      pop\n      jump\t// out\n        /* \"#utility.yul\":12022:12415   */\n    tag_165:\n        /* \"#utility.yul\":12091:12097   */\n      0x00\n        /* \"#utility.yul\":12141:12142   */\n      0x08\n        /* \"#utility.yul\":12129:12139   */\n      dup4\n        /* \"#utility.yul\":12125:12143   */\n      mul\n        /* \"#utility.yul\":12164:12261   */\n      tag_313\n        /* \"#utility.yul\":12194:12260   */\n      0xffffffffffffffffffffffffffffffffffffffffffffffffffffffffffffffff\n        /* \"#utility.yul\":12183:12192   */\n      dup3\n        /* \"#utility.yul\":12164:12261   */\n      tag_164\n      jump\t// in\n    tag_313:\n        /* \"#utility.yul\":12282:12321   */\n      tag_314\n        /* \"#utility.yul\":12312:12320   */\n      dup7\n        /* \"#utility.yul\":12301:12310   */\n      dup4\n        /* \"#utility.yul\":12282:12321   */\n      tag_164\n      jump\t// in\n    tag_314:\n        /* \"#utility.yul\":12270:12321   */\n      swap6\n      pop\n        /* \"#utility.yul\":12354:12358   */\n      dup1\n        /* \"#utility.yul\":12350:12359   */\n      not\n        /* \"#utility.yul\":12343:12348   */\n      dup5\n        /* \"#utility.yul\":12339:12360   */\n      and\n        /* \"#utility.yul\":12330:12360   */\n      swap4\n      pop\n        /* \"#utility.yul\":12403:12407   */\n      dup1\n        /* \"#utility.yul\":12393:12401   */\n      dup7\n        /* \"#utility.yul\":12389:12408   */\n      and\n        /* \"#utility.yul\":12382:12387   */\n      dup5\n        /* \"#utility.yul\":12379:12409   */\n      or\n        /* \"#utility.yul\":12369:12409   */\n      swap3\n      pop\n        /* \"#utility.yul\":12098:12415   */\n      pop\n      pop\n        /* \"#utility.yul\":12022:12415   */\n      swap4\n      swap3\n      pop\n      pop\n      pop\n      jump\t// out\n        /* \"#utility.yul\":12421:12481   */\n    tag_166:\n        /* \"#utility.yul\":12449:12452   */\n      0x00\n        /* \"#utility.yul\":12470:12475   */\n      dup2\n        /* \"#utility.yul\":12463:12475   */\n      swap1\n      pop\n        /* \"#utility.yul\":12421:12481   */\n      swap2\n      swap1\n      pop\n      jump\t// out\n        /* \"#utility.yul\":12487:12629   */\n    tag_167:\n        /* \"#utility.yul\":12537:12546   */\n      0x00\n        /* \"#utility.yul\":12570:12623   */\n      tag_317\n        /* \"#utility.yul\":12588:12622   */\n      tag_318\n        /* \"#utility.yul\":12597:12621   */\n      tag_319\n        /* \"#utility.yul\":12615:12620   */\n      dup5\n        /* \"#utility.yul\":12597:12621   */\n      tag_151\n      jump\t// in\n    tag_319:\n        /* \"#utility.yul\":12588:12622   */\n      tag_166\n      jump\t// in\n    tag_318:\n        /* \"#utility.yul\":12570:12623   */\n      tag_151\n      jump\t// in\n    tag_317:\n        /* \"#utility.yul\":12557:12623   */\n      swap1\n      pop\n        /* \"#utility.yul\":12487:12629   */\n      swap2\n      swap1\n      pop\n      jump\t// out\n        /* \"#utility.yul\":12635:12710   */\n    tag_168:\n        /* \"#utility.yul\":12678:12681   */\n      0x00\n        /* \"#utility.yul\":12699:12704   */\n      dup2\n        /* \"#utility.yul\":12692:12704   */\n      swap1\n      pop\n        /* \"#utility.yul\":12635:12710   */\n      swap2\n      swap1\n      pop\n      jump\t// out\n        /* \"#utility.yul\":12716:12985   */\n    tag_169:\n        /* \"#utility.yul\":12826:12865   */\n      tag_322\n        /* \"#utility.yul\":12857:12864   */\n      dup4\n        /* \"#utility.yul\":12826:12865   */\n      tag_167\n      jump\t// in\n    tag_322:\n        /* \"#utility.yul\":12887:12978   */\n      tag_323\n        /* \"#utility.yul\":12936:12977   */\n      tag_324\n        /* \"#utility.yul\":12960:12976   */\n      dup3\n        /* \"#utility.yul\":12936:12977   */\n      tag_168\n      jump\t// in\n    tag_324:\n        /* \"#utility.yul\":12928:12934   */\n      dup5\n        /* \"#utility.yul\":12921:12925   */\n      dup5\n        /* \"#utility.yul\":12915:12926   */\n      sload\n        /* \"#utility.yul\":12887:12978   */\n      tag_165\n      jump\t// in\n    tag_323:\n        /* \"#utility.yul\":12881:12885   */\n      dup3\n        /* \"#utility.yul\":12874:12979   */\n      sstore\n        /* \"#utility.yul\":12792:12985   */\n      pop\n        /* \"#utility.yul\":12716:12985   */\n      pop\n      pop\n      pop\n      jump\t// out\n        /* \"#utility.yul\":12991:13064   */\n    tag_170:\n        /* \"#utility.yul\":13036:13039   */\n      0x00\n        /* \"#utility.yul\":12991:13064   */\n      swap1\n      jump\t// out\n        /* \"#utility.yul\":13070:13259   */\n    tag_171:\n        /* \"#utility.yul\":13147:13179   */\n      tag_327\n      tag_170\n      jump\t// in\n    tag_327:\n        /* \"#utility.yul\":13188:13253   */\n      tag_328\n        /* \"#utility.yul\":13246:13252   */\n      dup2\n        /* \"#utility.yul\":13238:13244   */\n      dup5\n        /* \"#utility.yul\":13232:13236   */\n      dup5\n        /* \"#utility.yul\":13188:13253   */\n      tag_169\n      jump\t// in\n    tag_328:\n        /* \"#utility.yul\":13123:13259   */\n      pop\n        /* \"#utility.yul\":13070:13259   */\n      pop\n      pop\n      jump\t// out\n        /* \"#utility.yul\":13265:13451   */\n    tag_172:\n        /* \"#utility.yul\":13325:13445   */\n    tag_330:\n        /* \"#utility.yul\":13342:13345   */\n      dup2\n        /* \"#utility.yul\":13335:13340   */\n      dup2\n        /* \"#utility.yul\":13332:13346   */\n      lt\n        /* \"#utility.yul\":13325:13445   */\n      iszero\n      tag_332\n      jumpi\n        /* \"#utility.yul\":13396:13435   */\n      tag_333\n        /* \"#utility.yul\":13433:13434   */\n      0x00\n        /* \"#utility.yul\":13426:13431   */\n      dup3\n        /* \"#utility.yul\":13396:13435   */\n      tag_171\n      jump\t// in\n    tag_333:\n        /* \"#utility.yul\":13369:13370   */\n      0x01\n        /* \"#utility.yul\":13362:13367   */\n      dup2\n        /* \"#utility.yul\":13358:13371   */\n      add\n        /* \"#utility.yul\":13349:13371   */\n      swap1\n      pop\n        /* \"#utility.yul\":13325:13445   */\n      jump(tag_330)\n    tag_332:\n        /* \"#utility.yul\":13265:13451   */\n      pop\n      pop\n      jump\t// out\n        /* \"#utility.yul\":13457:14000   */\n    tag_173:\n        /* \"#utility.yul\":13558:13560   */\n      0x1f\n        /* \"#utility.yul\":13553:13556   */\n      dup3\n        /* \"#utility.yul\":13550:13561   */\n      gt\n        /* \"#utility.yul\":13547:13993   */\n      iszero\n      tag_335\n      jumpi\n        /* \"#utility.yul\":13592:13630   */\n      tag_336\n        /* \"#utility.yul\":13624:13629   */\n      dup2\n        /* \"#utility.yul\":13592:13630   */\n      tag_162\n      jump\t// in\n    tag_336:\n        /* \"#utility.yul\":13676:13705   */\n      tag_337\n        /* \"#utility.yul\":13694:13704   */\n      dup5\n        /* \"#utility.yul\":13676:13705   */\n      tag_163\n      jump\t// in\n    tag_337:\n        /* \"#utility.yul\":13666:13674   */\n      dup2\n        /* \"#utility.yul\":13662:13706   */\n      add\n        /* \"#utility.yul\":13859:13861   */\n      0x20\n        /* \"#utility.yul\":13847:13857   */\n      dup6\n        /* \"#utility.yul\":13844:13862   */\n      lt\n        /* \"#utility.yul\":13841:13890   */\n      iszero\n      tag_338\n      jumpi\n        /* \"#utility.yul\":13880:13888   */\n      dup2\n        /* \"#utility.yul\":13865:13888   */\n      swap1\n      pop\n        /* \"#utility.yul\":13841:13890   */\n    tag_338:\n        /* \"#utility.yul\":13903:13983   */\n      tag_339\n        /* \"#utility.yul\":13959:13981   */\n      tag_340\n        /* \"#utility.yul\":13977:13980   */\n      dup6\n        /* \"#utility.yul\":13959:13981   */\n      tag_163\n      jump\t// in\n    tag_340:\n        /* \"#utility.yul\":13949:13957   */\n      dup4\n        /* \"#utility.yul\":13945:13982   */\n      add\n        /* \"#utility.yul\":13932:13943   */\n      dup3\n        /* \"#utility.yul\":13903:13983   */\n      tag_172\n      jump\t// in\n    tag_339:\n        /* \"#utility.yul\":13562:13993   */\n      pop\n      pop\n        /* \"#utility.yul\":13547:13993   */\n    tag_335:\n        /* \"#utility.yul\":13457:14000   */\n      pop\n      pop\n      pop\n      jump\t// out\n        /* \"#utility.yul\":14006:14123   */\n    tag_174:\n        /* \"#utility.yul\":14060:14068   */\n      0x00\n        /* \"#utility.yul\":14110:14115   */\n      dup3\n        /* \"#utility.yul\":14104:14108   */\n      dup3\n        /* \"#utility.yul\":14100:14116   */\n      shr\n        /* \"#utility.yul\":14079:14116   */\n      swap1\n      pop\n        /* \"#utility.yul\":14006:14123   */\n      swap3\n      swap2\n      pop\n      pop\n      jump\t// out\n        /* \"#utility.yul\":14129:14298   */\n    tag_175:\n        /* \"#utility.yul\":14173:14179   */\n      0x00\n        /* \"#utility.yul\":14206:14257   */\n      tag_343\n        /* \"#utility.yul\":14254:14255   */\n      0x00\n        /* \"#utility.yul\":14250:14256   */\n      not\n        /* \"#utility.yul\":14242:14247   */\n      dup5\n        /* \"#utility.yul\":14239:14240   */\n      0x08\n        /* \"#utility.yul\":14235:14248   */\n      mul\n        /* \"#utility.yul\":14206:14257   */\n      tag_174\n      jump\t// in\n    tag_343:\n        /* \"#utility.yul\":14202:14258   */\n      not\n        /* \"#utility.yul\":14287:14291   */\n      dup1\n        /* \"#utility.yul\":14281:14285   */\n      dup4\n        /* \"#utility.yul\":14277:14292   */\n      and\n        /* \"#utility.yul\":14267:14292   */\n      swap2\n      pop\n        /* \"#utility.yul\":14180:14298   */\n      pop\n        /* \"#utility.yul\":14129:14298   */\n      swap3\n      swap2\n      pop\n      pop\n      jump\t// out\n        /* \"#utility.yul\":14303:14598   */\n    tag_176:\n        /* \"#utility.yul\":14379:14383   */\n      0x00\n        /* \"#utility.yul\":14525:14554   */\n      tag_345\n        /* \"#utility.yul\":14550:14553   */\n      dup4\n        /* \"#utility.yul\":14544:14548   */\n      dup4\n        /* \"#utility.yul\":14525:14554   */\n      tag_175\n      jump\t// in\n    tag_345:\n        /* \"#utility.yul\":14517:14554   */\n      swap2\n      pop\n        /* \"#utility.yul\":14587:14590   */\n      dup3\n        /* \"#utility.yul\":14584:14585   */\n      0x02\n        /* \"#utility.yul\":14580:14591   */\n      mul\n        /* \"#utility.yul\":14574:14578   */\n      dup3\n        /* \"#utility.yul\":14571:14592   */\n      or\n        /* \"#utility.yul\":14563:14592   */\n      swap1\n      pop\n        /* \"#utility.yul\":14303:14598   */\n      swap3\n      swap2\n      pop\n      pop\n      jump\t// out\n        /* \"#utility.yul\":14603:15998   */\n    tag_41:\n        /* \"#utility.yul\":14720:14757   */\n      tag_347\n        /* \"#utility.yul\":14753:14756   */\n      dup3\n        /* \"#utility.yul\":14720:14757   */\n      tag_140\n      jump\t// in\n    tag_347:\n        /* \"#utility.yul\":14822:14840   */\n      0xffffffffffffffff\n        /* \"#utility.yul\":14814:14820   */\n      dup2\n        /* \"#utility.yul\":14811:14841   */\n      gt\n        /* \"#utility.yul\":14808:14864   */\n      iszero\n      tag_348\n      jumpi\n        /* \"#utility.yul\":14844:14862   */\n      tag_349\n      tag_133\n      jump\t// in\n    tag_349:\n        /* \"#utility.yul\":14808:14864   */\n    tag_348:\n        /* \"#utility.yul\":14888:14926   */\n      tag_350\n        /* \"#utility.yul\":14920:14924   */\n      dup3\n        /* \"#utility.yul\":14914:14925   */\n      sload\n        /* \"#utility.yul\":14888:14926   */\n      tag_49\n      jump\t// in\n    tag_350:\n        /* \"#utility.yul\":14973:15040   */\n      tag_351\n        /* \"#utility.yul\":15033:15039   */\n      dup3\n        /* \"#utility.yul\":15025:15031   */\n      dup3\n        /* \"#utility.yul\":15019:15023   */\n      dup6\n        /* \"#utility.yul\":14973:15040   */\n      tag_173\n      jump\t// in\n    tag_351:\n        /* \"#utility.yul\":15067:15068   */\n      0x00\n        /* \"#utility.yul\":15091:15095   */\n      0x20\n        /* \"#utility.yul\":15078:15095   */\n      swap1\n      pop\n        /* \"#utility.yul\":15123:15125   */\n      0x1f\n        /* \"#utility.yul\":15115:15121   */\n      dup4\n        /* \"#utility.yul\":15112:15126   */\n      gt\n        /* \"#utility.yul\":15140:15141   */\n      0x01\n        /* \"#utility.yul\":15135:15753   */\n      dup2\n      eq\n      tag_353\n      jumpi\n        /* \"#utility.yul\":15797:15798   */\n      0x00\n        /* \"#utility.yul\":15814:15820   */\n      dup5\n        /* \"#utility.yul\":15811:15888   */\n      iszero\n      tag_354\n      jumpi\n        /* \"#utility.yul\":15863:15872   */\n      dup3\n        /* \"#utility.yul\":15858:15861   */\n      dup8\n        /* \"#utility.yul\":15854:15873   */\n      add\n        /* \"#utility.yul\":15848:15874   */\n      mload\n        /* \"#utility.yul\":15839:15874   */\n      swap1\n      pop\n        /* \"#utility.yul\":15811:15888   */\n    tag_354:\n        /* \"#utility.yul\":15914:15981   */\n      tag_355\n        /* \"#utility.yul\":15974:15980   */\n      dup6\n        /* \"#utility.yul\":15967:15972   */\n      dup3\n        /* \"#utility.yul\":15914:15981   */\n      tag_176\n      jump\t// in\n    tag_355:\n        /* \"#utility.yul\":15908:15912   */\n      dup7\n        /* \"#utility.yul\":15901:15982   */\n      sstore\n        /* \"#utility.yul\":15770:15992   */\n      pop\n        /* \"#utility.yul\":15105:15992   */\n      jump(tag_352)\n        /* \"#utility.yul\":15135:15753   */\n    tag_353:\n        /* \"#utility.yul\":15187:15191   */\n      0x1f\n        /* \"#utility.yul\":15183:15192   */\n      not\n        /* \"#utility.yul\":15175:15181   */\n      dup5\n        /* \"#utility.yul\":15171:15193   */\n      and\n        /* \"#utility.yul\":15221:15258   */\n      tag_356\n        /* \"#utility.yul\":15253:15257   */\n      dup7\n        /* \"#utility.yul\":15221:15258   */\n      tag_162\n      jump\t// in\n    tag_356:\n        /* \"#utility.yul\":15280:15281   */\n      0x00\n        /* \"#utility.yul\":15294:15502   */\n    tag_357:\n        /* \"#utility.yul\":15308:15315   */\n      dup3\n        /* \"#utility.yul\":15305:15306   */\n      dup2\n        /* \"#utility.yul\":15302:15316   */\n      lt\n        /* \"#utility.yul\":15294:15502   */\n      iszero\n      tag_359\n      jumpi\n        /* \"#utility.yul\":15387:15396   */\n      dup5\n        /* \"#utility.yul\":15382:15385   */\n      dup10\n        /* \"#utility.yul\":15378:15397   */\n      add\n        /* \"#utility.yul\":15372:15398   */\n      mload\n        /* \"#utility.yul\":15364:15370   */\n      dup3\n        /* \"#utility.yul\":15357:15399   */\n      sstore\n        /* \"#utility.yul\":15438:15439   */\n      0x01\n        /* \"#utility.yul\":15430:15436   */\n      dup3\n        /* \"#utility.yul\":15426:15440   */\n      add\n        /* \"#utility.yul\":15416:15440   */\n      swap2\n      pop\n        /* \"#utility.yul\":15485:15487   */\n      0x20\n        /* \"#utility.yul\":15474:15483   */\n      dup6\n        /* \"#utility.yul\":15470:15488   */\n      add\n        /* \"#utility.yul\":15457:15488   */\n      swap5\n      pop\n        /* \"#utility.yul\":15331:15335   */\n      0x20\n        /* \"#utility.yul\":15328:15329   */\n      dup2\n        /* \"#utility.yul\":15324:15336   */\n      add\n        /* \"#utility.yul\":15319:15336   */\n      swap1\n      pop\n        /* \"#utility.yul\":15294:15502   */\n      jump(tag_357)\n    tag_359:\n        /* \"#utility.yul\":15530:15536   */\n      dup7\n        /* \"#utility.yul\":15521:15528   */\n      dup4\n        /* \"#utility.yul\":15518:15537   */\n      lt\n        /* \"#utility.yul\":15515:15694   */\n      iszero\n      tag_360\n      jumpi\n        /* \"#utility.yul\":15588:15597   */\n      dup5\n        /* \"#utility.yul\":15583:15586   */\n      dup10\n        /* \"#utility.yul\":15579:15598   */\n      add\n        /* \"#utility.yul\":15573:15599   */\n      mload\n        /* \"#utility.yul\":15631:15679   */\n      tag_361\n        /* \"#utility.yul\":15673:15677   */\n      0x1f\n        /* \"#utility.yul\":15665:15671   */\n      dup10\n        /* \"#utility.yul\":15661:15678   */\n      and\n        /* \"#utility.yul\":15650:15659   */\n      dup3\n        /* \"#utility.yul\":15631:15679   */\n      tag_175\n      jump\t// in\n    tag_361:\n        /* \"#utility.yul\":15623:15629   */\n      dup4\n        /* \"#utility.yul\":15616:15680   */\n      sstore\n        /* \"#utility.yul\":15538:15694   */\n      pop\n        /* \"#utility.yul\":15515:15694   */\n    tag_360:\n        /* \"#utility.yul\":15740:15741   */\n      0x01\n        /* \"#utility.yul\":15736:15737   */\n      0x02\n        /* \"#utility.yul\":15728:15734   */\n      dup9\n        /* \"#utility.yul\":15724:15738   */\n      mul\n        /* \"#utility.yul\":15720:15742   */\n      add\n        /* \"#utility.yul\":15714:15718   */\n      dup9\n        /* \"#utility.yul\":15707:15743   */\n      sstore\n        /* \"#utility.yul\":15142:15753   */\n      pop\n      pop\n      pop\n        /* \"#utility.yul\":15105:15992   */\n    tag_352:\n      pop\n        /* \"#utility.yul\":14695:15998   */\n      pop\n      pop\n      pop\n        /* \"#utility.yul\":14603:15998   */\n      pop\n      pop\n      jump\t// out\n        /* \"#utility.yul\":16004:16628   */\n    tag_47:\n        /* \"#utility.yul\":16193:16197   */\n      0x00\n        /* \"#utility.yul\":16231:16233   */\n      0x60\n        /* \"#utility.yul\":16220:16229   */\n      dup3\n        /* \"#utility.yul\":16216:16234   */\n      add\n        /* \"#utility.yul\":16208:16234   */\n      swap1\n      pop\n        /* \"#utility.yul\":16280:16289   */\n      dup2\n        /* \"#utility.yul\":16274:16278   */\n      dup2\n        /* \"#utility.yul\":16270:16290   */\n      sub\n        /* \"#utility.yul\":16266:16267   */\n      0x00\n        /* \"#utility.yul\":16255:16264   */\n      dup4\n        /* \"#utility.yul\":16251:16268   */\n      add\n        /* \"#utility.yul\":16244:16291   */\n      mstore\n        /* \"#utility.yul\":16308:16386   */\n      tag_363\n        /* \"#utility.yul\":16381:16385   */\n      dup2\n        /* \"#utility.yul\":16372:16378   */\n      dup7\n        /* \"#utility.yul\":16308:16386   */\n      tag_143\n      jump\t// in\n    tag_363:\n        /* \"#utility.yul\":16300:16386   */\n      swap1\n      pop\n        /* \"#utility.yul\":16433:16442   */\n      dup2\n        /* \"#utility.yul\":16427:16431   */\n      dup2\n        /* \"#utility.yul\":16423:16443   */\n      sub\n        /* \"#utility.yul\":16418:16420   */\n      0x20\n        /* \"#utility.yul\":16407:16416   */\n      dup4\n        /* \"#utility.yul\":16403:16421   */\n      add\n        /* \"#utility.yul\":16396:16444   */\n      mstore\n        /* \"#utility.yul\":16461:16539   */\n      tag_364\n        /* \"#utility.yul\":16534:16538   */\n      dup2\n        /* \"#utility.yul\":16525:16531   */\n      dup6\n        /* \"#utility.yul\":16461:16539   */\n      tag_143\n      jump\t// in\n    tag_364:\n        /* \"#utility.yul\":16453:16539   */\n      swap1\n      pop\n        /* \"#utility.yul\":16549:16621   */\n      tag_365\n        /* \"#utility.yul\":16617:16619   */\n      0x40\n        /* \"#utility.yul\":16606:16615   */\n      dup4\n        /* \"#utility.yul\":16602:16620   */\n      add\n        /* \"#utility.yul\":16593:16599   */\n      dup5\n        /* \"#utility.yul\":16549:16621   */\n      tag_146\n      jump\t// in\n    tag_365:\n        /* \"#utility.yul\":16004:16628   */\n      swap5\n      swap4\n      pop\n      pop\n      pop\n      pop\n      jump\t// out\n        /* \"#utility.yul\":16634:16804   */\n    tag_177:\n        /* \"#utility.yul\":16774:16796   */\n      0x426174636820646f6573206e6f74206578697374000000000000000000000000\n        /* \"#utility.yul\":16770:16771   */\n      0x00\n        /* \"#utility.yul\":16762:16768   */\n      dup3\n        /* \"#utility.yul\":16758:16772   */\n      add\n        /* \"#utility.yul\":16751:16797   */\n      mstore\n        /* \"#utility.yul\":16634:16804   */\n      pop\n      jump\t// out\n        /* \"#utility.yul\":16810:17176   */\n    tag_178:\n        /* \"#utility.yul\":16952:16955   */\n      0x00\n        /* \"#utility.yul\":16973:17040   */\n      tag_368\n        /* \"#utility.yul\":17037:17039   */\n      0x14\n        /* \"#utility.yul\":17032:17035   */\n      dup4\n        /* \"#utility.yul\":16973:17040   */\n      tag_141\n      jump\t// in\n    tag_368:\n        /* \"#utility.yul\":16966:17040   */\n      swap2\n      pop\n        /* \"#utility.yul\":17049:17142   */\n      tag_369\n        /* \"#utility.yul\":17138:17141   */\n      dup3\n        /* \"#utility.yul\":17049:17142   */\n      tag_177\n      jump\t// in\n    tag_369:\n        /* \"#utility.yul\":17167:17169   */\n      0x20\n        /* \"#utility.yul\":17162:17165   */\n      dup3\n        /* \"#utility.yul\":17158:17170   */\n      add\n        /* \"#utility.yul\":17151:17170   */\n      swap1\n      pop\n        /* \"#utility.yul\":16810:17176   */\n      swap2\n      swap1\n      pop\n      jump\t// out\n        /* \"#utility.yul\":17182:17601   */\n    tag_68:\n        /* \"#utility.yul\":17348:17352   */\n      0x00\n        /* \"#utility.yul\":17386:17388   */\n      0x20\n        /* \"#utility.yul\":17375:17384   */\n      dup3\n        /* \"#utility.yul\":17371:17389   */\n      add\n        /* \"#utility.yul\":17363:17389   */\n      swap1\n      pop\n        /* \"#utility.yul\":17435:17444   */\n      dup2\n        /* \"#utility.yul\":17429:17433   */\n      dup2\n        /* \"#utility.yul\":17425:17445   */\n      sub\n        /* \"#utility.yul\":17421:17422   */\n      0x00\n        /* \"#utility.yul\":17410:17419   */\n      dup4\n        /* \"#utility.yul\":17406:17423   */\n      add\n        /* \"#utility.yul\":17399:17446   */\n      mstore\n        /* \"#utility.yul\":17463:17594   */\n      tag_371\n        /* \"#utility.yul\":17589:17593   */\n      dup2\n        /* \"#utility.yul\":17463:17594   */\n      tag_178\n      jump\t// in\n    tag_371:\n        /* \"#utility.yul\":17455:17594   */\n      swap1\n      pop\n        /* \"#utility.yul\":17182:17601   */\n      swap2\n      swap1\n      pop\n      jump\t// out\n        /* \"#utility.yul\":17607:17831   */\n    tag_179:\n        /* \"#utility.yul\":17747:17781   */\n      0x4f6e6c7920746865206f776e65722063616e207472616e736665722074686520\n        /* \"#utility.yul\":17743:17744   */\n      0x00\n        /* \"#utility.yul\":17735:17741   */\n      dup3\n        /* \"#utility.yul\":17731:17745   */\n      add\n        /* \"#utility.yul\":17724:17782   */\n      mstore\n        /* \"#utility.yul\":17816:17823   */\n      0x6261746368000000000000000000000000000000000000000000000000000000\n        /* \"#utility.yul\":17811:17813   */\n      0x20\n        /* \"#utility.yul\":17803:17809   */\n      dup3\n        /* \"#utility.yul\":17799:17814   */\n      add\n        /* \"#utility.yul\":17792:17824   */\n      mstore\n        /* \"#utility.yul\":17607:17831   */\n      pop\n      jump\t// out\n        /* \"#utility.yul\":17837:18203   */\n    tag_180:\n        /* \"#utility.yul\":17979:17982   */\n      0x00\n        /* \"#utility.yul\":18000:18067   */\n      tag_374\n        /* \"#utility.yul\":18064:18066   */\n      0x25\n        /* \"#utility.yul\":18059:18062   */\n      dup4\n        /* \"#utility.yul\":18000:18067   */\n      tag_141\n      jump\t// in\n    tag_374:\n        /* \"#utility.yul\":17993:18067   */\n      swap2\n      pop\n        /* \"#utility.yul\":18076:18169   */\n      tag_375\n        /* \"#utility.yul\":18165:18168   */\n      dup3\n        /* \"#utility.yul\":18076:18169   */\n      tag_179\n      jump\t// in\n    tag_375:\n        /* \"#utility.yul\":18194:18196   */\n      0x40\n        /* \"#utility.yul\":18189:18192   */\n      dup3\n        /* \"#utility.yul\":18185:18197   */\n      add\n        /* \"#utility.yul\":18178:18197   */\n      swap1\n      pop\n        /* \"#utility.yul\":17837:18203   */\n      swap2\n      swap1\n      pop\n      jump\t// out\n        /* \"#utility.yul\":18209:18628   */\n    tag_72:\n        /* \"#utility.yul\":18375:18379   */\n      0x00\n        /* \"#utility.yul\":18413:18415   */\n      0x20\n        /* \"#utility.yul\":18402:18411   */\n      dup3\n        /* \"#utility.yul\":18398:18416   */\n      add\n        /* \"#utility.yul\":18390:18416   */\n      swap1\n      pop\n        /* \"#utility.yul\":18462:18471   */\n      dup2\n        /* \"#utility.yul\":18456:18460   */\n      dup2\n        /* \"#utility.yul\":18452:18472   */\n      sub\n        /* \"#utility.yul\":18448:18449   */\n      0x00\n        /* \"#utility.yul\":18437:18446   */\n      dup4\n        /* \"#utility.yul\":18433:18450   */\n      add\n        /* \"#utility.yul\":18426:18473   */\n      mstore\n        /* \"#utility.yul\":18490:18621   */\n      tag_377\n        /* \"#utility.yul\":18616:18620   */\n      dup2\n        /* \"#utility.yul\":18490:18621   */\n      tag_180\n      jump\t// in\n    tag_377:\n        /* \"#utility.yul\":18482:18621   */\n      swap1\n      pop\n        /* \"#utility.yul\":18209:18628   */\n      swap2\n      swap1\n      pop\n      jump\t// out\n        /* \"#utility.yul\":18634:19167   */\n    tag_76:\n        /* \"#utility.yul\":18803:18807   */\n      0x00\n        /* \"#utility.yul\":18841:18843   */\n      0x60\n        /* \"#utility.yul\":18830:18839   */\n      dup3\n        /* \"#utility.yul\":18826:18844   */\n      add\n        /* \"#utility.yul\":18818:18844   */\n      swap1\n      pop\n        /* \"#utility.yul\":18890:18899   */\n      dup2\n        /* \"#utility.yul\":18884:18888   */\n      dup2\n        /* \"#utility.yul\":18880:18900   */\n      sub\n        /* \"#utility.yul\":18876:18877   */\n      0x00\n        /* \"#utility.yul\":18865:18874   */\n      dup4\n        /* \"#utility.yul\":18861:18878   */\n      add\n        /* \"#utility.yul\":18854:18901   */\n      mstore\n        /* \"#utility.yul\":18918:18996   */\n      tag_379\n        /* \"#utility.yul\":18991:18995   */\n      dup2\n        /* \"#utility.yul\":18982:18988   */\n      dup7\n        /* \"#utility.yul\":18918:18996   */\n      tag_143\n      jump\t// in\n    tag_379:\n        /* \"#utility.yul\":18910:18996   */\n      swap1\n      pop\n        /* \"#utility.yul\":19006:19078   */\n      tag_380\n        /* \"#utility.yul\":19074:19076   */\n      0x20\n        /* \"#utility.yul\":19063:19072   */\n      dup4\n        /* \"#utility.yul\":19059:19077   */\n      add\n        /* \"#utility.yul\":19050:19056   */\n      dup6\n        /* \"#utility.yul\":19006:19078   */\n      tag_146\n      jump\t// in\n    tag_380:\n        /* \"#utility.yul\":19088:19160   */\n      tag_381\n        /* \"#utility.yul\":19156:19158   */\n      0x40\n        /* \"#utility.yul\":19145:19154   */\n      dup4\n        /* \"#utility.yul\":19141:19159   */\n      add\n        /* \"#utility.yul\":19132:19138   */\n      dup5\n        /* \"#utility.yul\":19088:19160   */\n      tag_146\n      jump\t// in\n    tag_381:\n        /* \"#utility.yul\":18634:19167   */\n      swap5\n      swap4\n      pop\n      pop\n      pop\n      pop\n      jump\t// out\n        /* \"#utility.yul\":19173:19402   */\n    tag_181:\n        /* \"#utility.yul\":19313:19347   */\n      0x4f6e6c7920746865206f776e65722063616e2075706461746520746865206261\n        /* \"#utility.yul\":19309:19310   */\n      0x00\n        /* \"#utility.yul\":19301:19307   */\n      dup3\n        /* \"#utility.yul\":19297:19311   */\n      add\n        /* \"#utility.yul\":19290:19348   */\n      mstore\n        /* \"#utility.yul\":19382:19394   */\n      0x7463682073746174757300000000000000000000000000000000000000000000\n        /* \"#utility.yul\":19377:19379   */\n      0x20\n        /* \"#utility.yul\":19369:19375   */\n      dup3\n        /* \"#utility.yul\":19365:19380   */\n      add\n        /* \"#utility.yul\":19358:19395   */\n      mstore\n        /* \"#utility.yul\":19173:19402   */\n      pop\n      jump\t// out\n        /* \"#utility.yul\":19408:19774   */\n    tag_182:\n        /* \"#utility.yul\":19550:19553   */\n      0x00\n        /* \"#utility.yul\":19571:19638   */\n      tag_384\n        /* \"#utility.yul\":19635:19637   */\n      0x2a\n        /* \"#utility.yul\":19630:19633   */\n      dup4\n        /* \"#utility.yul\":19571:19638   */\n      tag_141\n      jump\t// in\n    tag_384:\n        /* \"#utility.yul\":19564:19638   */\n      swap2\n      pop\n        /* \"#utility.yul\":19647:19740   */\n      tag_385\n        /* \"#utility.yul\":19736:19739   */\n      dup3\n        /* \"#utility.yul\":19647:19740   */\n      tag_181\n      jump\t// in\n    tag_385:\n        /* \"#utility.yul\":19765:19767   */\n      0x40\n        /* \"#utility.yul\":19760:19763   */\n      dup3\n        /* \"#utility.yul\":19756:19768   */\n      add\n        /* \"#utility.yul\":19749:19768   */\n      swap1\n      pop\n        /* \"#utility.yul\":19408:19774   */\n      swap2\n      swap1\n      pop\n      jump\t// out\n        /* \"#utility.yul\":19780:20199   */\n    tag_84:\n        /* \"#utility.yul\":19946:19950   */\n      0x00\n        /* \"#utility.yul\":19984:19986   */\n      0x20\n        /* \"#utility.yul\":19973:19982   */\n      dup3\n        /* \"#utility.yul\":19969:19987   */\n      add\n        /* \"#utility.yul\":19961:19987   */\n      swap1\n      pop\n        /* \"#utility.yul\":20033:20042   */\n      dup2\n        /* \"#utility.yul\":20027:20031   */\n      dup2\n        /* \"#utility.yul\":20023:20043   */\n      sub\n        /* \"#utility.yul\":20019:20020   */\n      0x00\n        /* \"#utility.yul\":20008:20017   */\n      dup4\n        /* \"#utility.yul\":20004:20021   */\n      add\n        /* \"#utility.yul\":19997:20044   */\n      mstore\n        /* \"#utility.yul\":20061:20192   */\n      tag_387\n        /* \"#utility.yul\":20187:20191   */\n      dup2\n        /* \"#utility.yul\":20061:20192   */\n      tag_182\n      jump\t// in\n    tag_387:\n        /* \"#utility.yul\":20053:20192   */\n      swap1\n      pop\n        /* \"#utility.yul\":19780:20199   */\n      swap2\n      swap1\n      pop\n      jump\t// out\n        /* \"#utility.yul\":20205:20364   */\n    tag_183:\n        /* \"#utility.yul\":20345:20356   */\n      0x496e7472616e7369740000000000000000000000000000000000000000000000\n        /* \"#utility.yul\":20341:20342   */\n      0x00\n        /* \"#utility.yul\":20333:20339   */\n      dup3\n        /* \"#utility.yul\":20329:20343   */\n      add\n        /* \"#utility.yul\":20322:20357   */\n      mstore\n        /* \"#utility.yul\":20205:20364   */\n      pop\n      jump\t// out\n        /* \"#utility.yul\":20370:20735   */\n    tag_184:\n        /* \"#utility.yul\":20512:20515   */\n      0x00\n        /* \"#utility.yul\":20533:20599   */\n      tag_390\n        /* \"#utility.yul\":20597:20598   */\n      0x09\n        /* \"#utility.yul\":20592:20595   */\n      dup4\n        /* \"#utility.yul\":20533:20599   */\n      tag_141\n      jump\t// in\n    tag_390:\n        /* \"#utility.yul\":20526:20599   */\n      swap2\n      pop\n        /* \"#utility.yul\":20608:20701   */\n      tag_391\n        /* \"#utility.yul\":20697:20700   */\n      dup3\n        /* \"#utility.yul\":20608:20701   */\n      tag_183\n      jump\t// in\n    tag_391:\n        /* \"#utility.yul\":20726:20728   */\n      0x20\n        /* \"#utility.yul\":20721:20724   */\n      dup3\n        /* \"#utility.yul\":20717:20729   */\n      add\n        /* \"#utility.yul\":20710:20729   */\n      swap1\n      pop\n        /* \"#utility.yul\":20370:20735   */\n      swap2\n      swap1\n      pop\n      jump\t// out\n        /* \"#utility.yul\":20741:21160   */\n    tag_95:\n        /* \"#utility.yul\":20907:20911   */\n      0x00\n        /* \"#utility.yul\":20945:20947   */\n      0x20\n        /* \"#utility.yul\":20934:20943   */\n      dup3\n        /* \"#utility.yul\":20930:20948   */\n      add\n        /* \"#utility.yul\":20922:20948   */\n      swap1\n      pop\n        /* \"#utility.yul\":20994:21003   */\n      dup2\n        /* \"#utility.yul\":20988:20992   */\n      dup2\n        /* \"#utility.yul\":20984:21004   */\n      sub\n        /* \"#utility.yul\":20980:20981   */\n      0x00\n        /* \"#utility.yul\":20969:20978   */\n      dup4\n        /* \"#utility.yul\":20965:20982   */\n      add\n        /* \"#utility.yul\":20958:21005   */\n      mstore\n        /* \"#utility.yul\":21022:21153   */\n      tag_393\n        /* \"#utility.yul\":21148:21152   */\n      dup2\n        /* \"#utility.yul\":21022:21153   */\n      tag_184\n      jump\t// in\n    tag_393:\n        /* \"#utility.yul\":21014:21153   */\n      swap1\n      pop\n        /* \"#utility.yul\":20741:21160   */\n      swap2\n      swap1\n      pop\n      jump\t// out\n        /* \"#utility.yul\":21166:21325   */\n    tag_185:\n        /* \"#utility.yul\":21306:21317   */\n      0x44656c6976657265640000000000000000000000000000000000000000000000\n        /* \"#utility.yul\":21302:21303   */\n      0x00\n        /* \"#utility.yul\":21294:21300   */\n      dup3\n        /* \"#utility.yul\":21290:21304   */\n      add\n        /* \"#utility.yul\":21283:21318   */\n      mstore\n        /* \"#utility.yul\":21166:21325   */\n      pop\n      jump\t// out\n        /* \"#utility.yul\":21331:21696   */\n    tag_186:\n        /* \"#utility.yul\":21473:21476   */\n      0x00\n        /* \"#utility.yul\":21494:21560   */\n      tag_396\n        /* \"#utility.yul\":21558:21559   */\n      0x09\n        /* \"#utility.yul\":21553:21556   */\n      dup4\n        /* \"#utility.yul\":21494:21560   */\n      tag_141\n      jump\t// in\n    tag_396:\n        /* \"#utility.yul\":21487:21560   */\n      swap2\n      pop\n        /* \"#utility.yul\":21569:21662   */\n      tag_397\n        /* \"#utility.yul\":21658:21661   */\n      dup3\n        /* \"#utility.yul\":21569:21662   */\n      tag_185\n      jump\t// in\n    tag_397:\n        /* \"#utility.yul\":21687:21689   */\n      0x20\n        /* \"#utility.yul\":21682:21685   */\n      dup3\n        /* \"#utility.yul\":21678:21690   */\n      add\n        /* \"#utility.yul\":21671:21690   */\n      swap1\n      pop\n        /* \"#utility.yul\":21331:21696   */\n      swap2\n      swap1\n      pop\n      jump\t// out\n        /* \"#utility.yul\":21702:22121   */\n    tag_103:\n        /* \"#utility.yul\":21868:21872   */\n      0x00\n        /* \"#utility.yul\":21906:21908   */\n      0x20\n        /* \"#utility.yul\":21895:21904   */\n      dup3\n        /* \"#utility.yul\":21891:21909   */\n      add\n        /* \"#utility.yul\":21883:21909   */\n      swap1\n      pop\n        /* \"#utility.yul\":21955:21964   */\n      dup2\n        /* \"#utility.yul\":21949:21953   */\n      dup2\n        /* \"#utility.yul\":21945:21965   */\n      sub\n        /* \"#utility.yul\":21941:21942   */\n      0x00\n        /* \"#utility.yul\":21930:21939   */\n      dup4\n        /* \"#utility.yul\":21926:21943   */\n      add\n        /* \"#utility.yul\":21919:21966   */\n      mstore\n        /* \"#utility.yul\":21983:22114   */\n      tag_399\n        /* \"#utility.yul\":22109:22113   */\n      dup2\n        /* \"#utility.yul\":21983:22114   */\n      tag_186\n      jump\t// in\n    tag_399:\n        /* \"#utility.yul\":21975:22114   */\n      swap1\n      pop\n        /* \"#utility.yul\":21702:22121   */\n      swap2\n      swap1\n      pop\n      jump\t// out\n\n    auxdata: 0xa26469706673582212202b2b2fca11eb794f909cab10562e28b5e7ee0551f1eadd0b09694ea859820ab364736f6c634300081a0033\n}\n",
				"bytecode": {
					"linkReferences": {},
					"object": "6080604052348015600e575f80fd5b506117c38061001c5f395ff3fe608060405234801561000f575f80fd5b5060043610610055575f3560e01c80637614faf0146100595780637ef1446a14610075578063b401563b146100aa578063b50a3c87146100c6578063f9ca4274146100e2575b5f80fd5b610073600480360381019061006e9190610daf565b610117565b005b61008f600480360381019061008a9190610e53565b6102ee565b6040516100a196959493929190610fc4565b60405180910390f35b6100c460048036038101906100bf9190611062565b6104fb565b005b6100e060048036038101906100db91906110df565b6106eb565b005b6100fc60048036038101906100f79190610e53565b61096d565b60405161010e96959493929190610fc4565b60405180910390f35b5f80846040516101279190611173565b90815260200160405180910390206004015414610179576040517f08c379a0000000000000000000000000000000000000000000000000000000008152600401610170906111d3565b60405180910390fd5b6040518060c001604052808481526020018381526020018281526020013373ffffffffffffffffffffffffffffffffffffffff1681526020015f60028111156101c5576101c4610f39565b5b8152602001428152505f846040516101dd9190611173565b90815260200160405180910390205f820151815f0190816101fe91906113eb565b50602082015181600101908161021491906113eb565b50604082015181600201908161022a91906113eb565b506060820151816003015f6101000a81548173ffffffffffffffffffffffffffffffffffffffff021916908373ffffffffffffffffffffffffffffffffffffffff16021790555060808201518160030160146101000a81548160ff0219169083600281111561029c5761029b610f39565b5b021790555060a082015181600401559050507f14a4819b534290cb8ccfb4060d5410e04c15b9493bccae224d5b9ae9e6f939d08383336040516102e1939291906114ba565b60405180910390a1505050565b5f818051602081018201805184825260208301602085012081835280955050505050505f91509050805f0180546103249061121e565b80601f01602080910402602001604051908101604052809291908181526020018280546103509061121e565b801561039b5780601f106103725761010080835404028352916020019161039b565b820191905f5260205f20905b81548152906001019060200180831161037e57829003601f168201915b5050505050908060010180546103b09061121e565b80601f01602080910402602001604051908101604052809291908181526020018280546103dc9061121e565b80156104275780601f106103fe57610100808354040283529160200191610427565b820191905f5260205f20905b81548152906001019060200180831161040a57829003601f168201915b50505050509080600201805461043c9061121e565b80601f01602080910402602001604051908101604052809291908181526020018280546104689061121e565b80156104b35780601f1061048a576101008083540402835291602001916104b3565b820191905f5260205f20905b81548152906001019060200180831161049657829003601f168201915b505050505090806003015f9054906101000a900473ffffffffffffffffffffffffffffffffffffffff16908060030160149054906101000a900460ff16908060040154905086565b5f808360405161050b9190611173565b9081526020016040518091039020600401540361055d576040517f08c379a000000000000000000000000000000000000000000000000000000000815260040161055490611547565b60405180910390fd5b3373ffffffffffffffffffffffffffffffffffffffff165f836040516105839190611173565b90815260200160405180910390206003015f9054906101000a900473ffffffffffffffffffffffffffffffffffffffff1673ffffffffffffffffffffffffffffffffffffffff161461060a576040517f08c379a0000000000000000000000000000000000000000000000000000000008152600401610601906115d5565b60405180910390fd5b5f808360405161061a9190611173565b90815260200160405180910390206003015f9054906101000a900473ffffffffffffffffffffffffffffffffffffffff169050815f8460405161065d9190611173565b90815260200160405180910390206003015f6101000a81548173ffffffffffffffffffffffffffffffffffffffff021916908373ffffffffffffffffffffffffffffffffffffffff1602179055507fa8b047db3c9b378a978a9cc59c0f75a2671f935a140d6799f8f56104f0ec6dd68382846040516106de939291906115f3565b60405180910390a1505050565b5f80836040516106fb9190611173565b9081526020016040518091039020600401540361074d576040517f08c379a000000000000000000000000000000000000000000000000000000000815260040161074490611547565b60405180910390fd5b3373ffffffffffffffffffffffffffffffffffffffff165f836040516107739190611173565b90815260200160405180910390206003015f9054906101000a900473ffffffffffffffffffffffffffffffffffffffff1673ffffffffffffffffffffffffffffffffffffffff16146107fa576040517f08c379a00000000000000000000000000000000000000000000000000000000081526004016107f19061169f565b60405180910390fd5b805f8360405161080a9190611173565b908152602001604051809103902060030160146101000a81548160ff0219169083600281111561083d5761083c610f39565b5b02179055506001600281111561085657610855610f39565b5b5f836040516108659190611173565b908152602001604051809103902060030160149054906101000a900460ff16600281111561089657610895610f39565b5b146108d6576040517f08c379a00000000000000000000000000000000000000000000000000000000081526004016108cd90611707565b60405180910390fd5b6002808111156108e9576108e8610f39565b5b5f836040516108f89190611173565b908152602001604051809103902060030160149054906101000a900460ff16600281111561092957610928610f39565b5b14610969576040517f08c379a00000000000000000000000000000000000000000000000000000000081526004016109609061176f565b60405180910390fd5b5050565b60608060605f805f805f886040516109859190611173565b90815260200160405180910390206040518060c00160405290815f820180546109ad9061121e565b80601f01602080910402602001604051908101604052809291908181526020018280546109d99061121e565b8015610a245780601f106109fb57610100808354040283529160200191610a24565b820191905f5260205f20905b815481529060010190602001808311610a0757829003601f168201915b50505050508152602001600182018054610a3d9061121e565b80601f0160208091040260200160405190810160405280929190818152602001828054610a699061121e565b8015610ab45780601f10610a8b57610100808354040283529160200191610ab4565b820191905f5260205f20905b815481529060010190602001808311610a9757829003601f168201915b50505050508152602001600282018054610acd9061121e565b80601f0160208091040260200160405190810160405280929190818152602001828054610af99061121e565b8015610b445780601f10610b1b57610100808354040283529160200191610b44565b820191905f5260205f20905b815481529060010190602001808311610b2757829003601f168201915b50505050508152602001600382015f9054906101000a900473ffffffffffffffffffffffffffffffffffffffff1673ffffffffffffffffffffffffffffffffffffffff1673ffffffffffffffffffffffffffffffffffffffff1681526020016003820160149054906101000a900460ff166002811115610bc757610bc6610f39565b5b6002811115610bd957610bd8610f39565b5b815260200160048201548152505090505f8160a0015103610c2f576040517f08c379a0000000000000000000000000000000000000000000000000000000008152600401610c2690611547565b60405180910390fd5b805f015181602001518260400151836060015184608001518560a001519650965096509650965096505091939550919395565b5f604051905090565b5f80fd5b5f80fd5b5f80fd5b5f80fd5b5f601f19601f8301169050919050565b7f4e487b71000000000000000000000000000000000000000000000000000000005f52604160045260245ffd5b610cc182610c7b565b810181811067ffffffffffffffff82111715610ce057610cdf610c8b565b5b80604052505050565b5f610cf2610c62565b9050610cfe8282610cb8565b919050565b5f67ffffffffffffffff821115610d1d57610d1c610c8b565b5b610d2682610c7b565b9050602081019050919050565b828183375f83830152505050565b5f610d53610d4e84610d03565b610ce9565b905082815260208101848484011115610d6f57610d6e610c77565b5b610d7a848285610d33565b509392505050565b5f82601f830112610d9657610d95610c73565b5b8135610da6848260208601610d41565b91505092915050565b5f805f60608486031215610dc657610dc5610c6b565b5b5f84013567ffffffffffffffff811115610de357610de2610c6f565b5b610def86828701610d82565b935050602084013567ffffffffffffffff811115610e1057610e0f610c6f565b5b610e1c86828701610d82565b925050604084013567ffffffffffffffff811115610e3d57610e3c610c6f565b5b610e4986828701610d82565b9150509250925092565b5f60208284031215610e6857610e67610c6b565b5b5f82013567ffffffffffffffff811115610e8557610e84610c6f565b5b610e9184828501610d82565b91505092915050565b5f81519050919050565b5f82825260208201905092915050565b8281835e5f83830152505050565b5f610ecc82610e9a565b610ed68185610ea4565b9350610ee6818560208601610eb4565b610eef81610c7b565b840191505092915050565b5f73ffffffffffffffffffffffffffffffffffffffff82169050919050565b5f610f2382610efa565b9050919050565b610f3381610f19565b82525050565b7f4e487b71000000000000000000000000000000000000000000000000000000005f52602160045260245ffd5b60038110610f7757610f76610f39565b5b50565b5f819050610f8782610f66565b919050565b5f610f9682610f7a565b9050919050565b610fa681610f8c565b82525050565b5f819050919050565b610fbe81610fac565b82525050565b5f60c0820190508181035f830152610fdc8189610ec2565b90508181036020830152610ff08188610ec2565b905081810360408301526110048187610ec2565b90506110136060830186610f2a565b6110206080830185610f9d565b61102d60a0830184610fb5565b979650505050505050565b61104181610f19565b811461104b575f80fd5b50565b5f8135905061105c81611038565b92915050565b5f806040838503121561107857611077610c6b565b5b5f83013567ffffffffffffffff81111561109557611094610c6f565b5b6110a185828601610d82565b92505060206110b28582860161104e565b9150509250929050565b600381106110c8575f80fd5b50565b5f813590506110d9816110bc565b92915050565b5f80604083850312156110f5576110f4610c6b565b5b5f83013567ffffffffffffffff81111561111257611111610c6f565b5b61111e85828601610d82565b925050602061112f858286016110cb565b9150509250929050565b5f81905092915050565b5f61114d82610e9a565b6111578185611139565b9350611167818560208601610eb4565b80840191505092915050565b5f61117e8284611143565b915081905092915050565b7f426174636820616c7265616479206578697374730000000000000000000000005f82015250565b5f6111bd601483610ea4565b91506111c882611189565b602082019050919050565b5f6020820190508181035f8301526111ea816111b1565b9050919050565b7f4e487b71000000000000000000000000000000000000000000000000000000005f52602260045260245ffd5b5f600282049050600182168061123557607f821691505b602082108103611248576112476111f1565b5b50919050565b5f819050815f5260205f209050919050565b5f6020601f8301049050919050565b5f82821b905092915050565b5f600883026112aa7fffffffffffffffffffffffffffffffffffffffffffffffffffffffffffffffff8261126f565b6112b4868361126f565b95508019841693508086168417925050509392505050565b5f819050919050565b5f6112ef6112ea6112e584610fac565b6112cc565b610fac565b9050919050565b5f819050919050565b611308836112d5565b61131c611314826112f6565b84845461127b565b825550505050565b5f90565b611330611324565b61133b8184846112ff565b505050565b5b8181101561135e576113535f82611328565b600181019050611341565b5050565b601f8211156113a3576113748161124e565b61137d84611260565b8101602085101561138c578190505b6113a061139885611260565b830182611340565b50505b505050565b5f82821c905092915050565b5f6113c35f19846008026113a8565b1980831691505092915050565b5f6113db83836113b4565b9150826002028217905092915050565b6113f482610e9a565b67ffffffffffffffff81111561140d5761140c610c8b565b5b611417825461121e565b611422828285611362565b5f60209050601f831160018114611453575f8415611441578287015190505b61144b85826113d0565b8655506114b2565b601f1984166114618661124e565b5f5b8281101561148857848901518255600182019150602085019450602081019050611463565b868310156114a557848901516114a1601f8916826113b4565b8355505b6001600288020188555050505b505050505050565b5f6060820190508181035f8301526114d28186610ec2565b905081810360208301526114e68185610ec2565b90506114f56040830184610f2a565b949350505050565b7f426174636820646f6573206e6f742065786973740000000000000000000000005f82015250565b5f611531601483610ea4565b915061153c826114fd565b602082019050919050565b5f6020820190508181035f83015261155e81611525565b9050919050565b7f4f6e6c7920746865206f776e65722063616e207472616e7366657220746865205f8201527f6261746368000000000000000000000000000000000000000000000000000000602082015250565b5f6115bf602583610ea4565b91506115ca82611565565b604082019050919050565b5f6020820190508181035f8301526115ec816115b3565b9050919050565b5f6060820190508181035f83015261160b8186610ec2565b905061161a6020830185610f2a565b6116276040830184610f2a565b949350505050565b7f4f6e6c7920746865206f776e65722063616e20757064617465207468652062615f8201527f7463682073746174757300000000000000000000000000000000000000000000602082015250565b5f611689602a83610ea4565b91506116948261162f565b604082019050919050565b5f6020820190508181035f8301526116b68161167d565b9050919050565b7f496e7472616e73697400000000000000000000000000000000000000000000005f82015250565b5f6116f1600983610ea4565b91506116fc826116bd565b602082019050919050565b5f6020820190508181035f83015261171e816116e5565b9050919050565b7f44656c69766572656400000000000000000000000000000000000000000000005f82015250565b5f611759600983610ea4565b915061176482611725565b602082019050919050565b5f6020820190508181035f8301526117868161174d565b905091905056fea26469706673582212202b2b2fca11eb794f909cab10562e28b5e7ee0551f1eadd0b09694ea859820ab364736f6c634300081a0033",
					"opcodes": "PUSH1 0x80 PUSH1 0x40 MSTORE CALLVALUE DUP1 ISZERO PUSH1 0xE JUMPI PUSH0 DUP1 REVERT JUMPDEST POP PUSH2 0x17C3 DUP1 PUSH2 0x1C PUSH0 CODECOPY PUSH0 RETURN INVALID PUSH1 0x80 PUSH1 0x40 MSTORE CALLVALUE DUP1 ISZERO PUSH2 0xF JUMPI PUSH0 DUP1 REVERT JUMPDEST POP PUSH1 0x4 CALLDATASIZE LT PUSH2 0x55 JUMPI PUSH0 CALLDATALOAD PUSH1 0xE0 SHR DUP1 PUSH4 0x7614FAF0 EQ PUSH2 0x59 JUMPI DUP1 PUSH4 0x7EF1446A EQ PUSH2 0x75 JUMPI DUP1 PUSH4 0xB401563B EQ PUSH2 0xAA JUMPI DUP1 PUSH4 0xB50A3C87 EQ PUSH2 0xC6 JUMPI DUP1 PUSH4 0xF9CA4274 EQ PUSH2 0xE2 JUMPI JUMPDEST PUSH0 DUP1 REVERT JUMPDEST PUSH2 0x73 PUSH1 0x4 DUP1 CALLDATASIZE SUB DUP2 ADD SWAP1 PUSH2 0x6E SWAP2 SWAP1 PUSH2 0xDAF JUMP JUMPDEST PUSH2 0x117 JUMP JUMPDEST STOP JUMPDEST PUSH2 0x8F PUSH1 0x4 DUP1 CALLDATASIZE SUB DUP2 ADD SWAP1 PUSH2 0x8A SWAP2 SWAP1 PUSH2 0xE53 JUMP JUMPDEST PUSH2 0x2EE JUMP JUMPDEST PUSH1 0x40 MLOAD PUSH2 0xA1 SWAP7 SWAP6 SWAP5 SWAP4 SWAP3 SWAP2 SWAP1 PUSH2 0xFC4 JUMP JUMPDEST PUSH1 0x40 MLOAD DUP1 SWAP2 SUB SWAP1 RETURN JUMPDEST PUSH2 0xC4 PUSH1 0x4 DUP1 CALLDATASIZE SUB DUP2 ADD SWAP1 PUSH2 0xBF SWAP2 SWAP1 PUSH2 0x1062 JUMP JUMPDEST PUSH2 0x4FB JUMP JUMPDEST STOP JUMPDEST PUSH2 0xE0 PUSH1 0x4 DUP1 CALLDATASIZE SUB DUP2 ADD SWAP1 PUSH2 0xDB SWAP2 SWAP1 PUSH2 0x10DF JUMP JUMPDEST PUSH2 0x6EB JUMP JUMPDEST STOP JUMPDEST PUSH2 0xFC PUSH1 0x4 DUP1 CALLDATASIZE SUB DUP2 ADD SWAP1 PUSH2 0xF7 SWAP2 SWAP1 PUSH2 0xE53 JUMP JUMPDEST PUSH2 0x96D JUMP JUMPDEST PUSH1 0x40 MLOAD PUSH2 0x10E SWAP7 SWAP6 SWAP5 SWAP4 SWAP3 SWAP2 SWAP1 PUSH2 0xFC4 JUMP JUMPDEST PUSH1 0x40 MLOAD DUP1 SWAP2 SUB SWAP1 RETURN JUMPDEST PUSH0 DUP1 DUP5 PUSH1 0x40 MLOAD PUSH2 0x127 SWAP2 SWAP1 PUSH2 0x1173 JUMP JUMPDEST SWAP1 DUP2 MSTORE PUSH1 0x20 ADD PUSH1 0x40 MLOAD DUP1 SWAP2 SUB SWAP1 KECCAK256 PUSH1 0x4 ADD SLOAD EQ PUSH2 0x179 JUMPI PUSH1 0x40 MLOAD PUSH32 0x8C379A000000000000000000000000000000000000000000000000000000000 DUP2 MSTORE PUSH1 0x4 ADD PUSH2 0x170 SWAP1 PUSH2 0x11D3 JUMP JUMPDEST PUSH1 0x40 MLOAD DUP1 SWAP2 SUB SWAP1 REVERT JUMPDEST PUSH1 0x40 MLOAD DUP1 PUSH1 0xC0 ADD PUSH1 0x40 MSTORE DUP1 DUP5 DUP2 MSTORE PUSH1 0x20 ADD DUP4 DUP2 MSTORE PUSH1 0x20 ADD DUP3 DUP2 MSTORE PUSH1 0x20 ADD CALLER PUSH20 0xFFFFFFFFFFFFFFFFFFFFFFFFFFFFFFFFFFFFFFFF AND DUP2 MSTORE PUSH1 0x20 ADD PUSH0 PUSH1 0x2 DUP2 GT ISZERO PUSH2 0x1C5 JUMPI PUSH2 0x1C4 PUSH2 0xF39 JUMP JUMPDEST JUMPDEST DUP2 MSTORE PUSH1 0x20 ADD TIMESTAMP DUP2 MSTORE POP PUSH0 DUP5 PUSH1 0x40 MLOAD PUSH2 0x1DD SWAP2 SWAP1 PUSH2 0x1173 JUMP JUMPDEST SWAP1 DUP2 MSTORE PUSH1 0x20 ADD PUSH1 0x40 MLOAD DUP1 SWAP2 SUB SWAP1 KECCAK256 PUSH0 DUP3 ADD MLOAD DUP2 PUSH0 ADD SWAP1 DUP2 PUSH2 0x1FE SWAP2 SWAP1 PUSH2 0x13EB JUMP JUMPDEST POP PUSH1 0x20 DUP3 ADD MLOAD DUP2 PUSH1 0x1 ADD SWAP1 DUP2 PUSH2 0x214 SWAP2 SWAP1 PUSH2 0x13EB JUMP JUMPDEST POP PUSH1 0x40 DUP3 ADD MLOAD DUP2 PUSH1 0x2 ADD SWAP1 DUP2 PUSH2 0x22A SWAP2 SWAP1 PUSH2 0x13EB JUMP JUMPDEST POP PUSH1 0x60 DUP3 ADD MLOAD DUP2 PUSH1 0x3 ADD PUSH0 PUSH2 0x100 EXP DUP2 SLOAD DUP2 PUSH20 0xFFFFFFFFFFFFFFFFFFFFFFFFFFFFFFFFFFFFFFFF MUL NOT AND SWAP1 DUP4 PUSH20 0xFFFFFFFFFFFFFFFFFFFFFFFFFFFFFFFFFFFFFFFF AND MUL OR SWAP1 SSTORE POP PUSH1 0x80 DUP3 ADD MLOAD DUP2 PUSH1 0x3 ADD PUSH1 0x14 PUSH2 0x100 EXP DUP2 SLOAD DUP2 PUSH1 0xFF MUL NOT AND SWAP1 DUP4 PUSH1 0x2 DUP2 GT ISZERO PUSH2 0x29C JUMPI PUSH2 0x29B PUSH2 0xF39 JUMP JUMPDEST JUMPDEST MUL OR SWAP1 SSTORE POP PUSH1 0xA0 DUP3 ADD MLOAD DUP2 PUSH1 0x4 ADD SSTORE SWAP1 POP POP PUSH32 0x14A4819B534290CB8CCFB4060D5410E04C15B9493BCCAE224D5B9AE9E6F939D0 DUP4 DUP4 CALLER PUSH1 0x40 MLOAD PUSH2 0x2E1 SWAP4 SWAP3 SWAP2 SWAP1 PUSH2 0x14BA JUMP JUMPDEST PUSH1 0x40 MLOAD DUP1 SWAP2 SUB SWAP1 LOG1 POP POP POP JUMP JUMPDEST PUSH0 DUP2 DUP1 MLOAD PUSH1 0x20 DUP2 ADD DUP3 ADD DUP1 MLOAD DUP5 DUP3 MSTORE PUSH1 0x20 DUP4 ADD PUSH1 0x20 DUP6 ADD KECCAK256 DUP2 DUP4 MSTORE DUP1 SWAP6 POP POP POP POP POP POP PUSH0 SWAP2 POP SWAP1 POP DUP1 PUSH0 ADD DUP1 SLOAD PUSH2 0x324 SWAP1 PUSH2 0x121E JUMP JUMPDEST DUP1 PUSH1 0x1F ADD PUSH1 0x20 DUP1 SWAP2 DIV MUL PUSH1 0x20 ADD PUSH1 0x40 MLOAD SWAP1 DUP2 ADD PUSH1 0x40 MSTORE DUP1 SWAP3 SWAP2 SWAP1 DUP2 DUP2 MSTORE PUSH1 0x20 ADD DUP3 DUP1 SLOAD PUSH2 0x350 SWAP1 PUSH2 0x121E JUMP JUMPDEST DUP1 ISZERO PUSH2 0x39B JUMPI DUP1 PUSH1 0x1F LT PUSH2 0x372 JUMPI PUSH2 0x100 DUP1 DUP4 SLOAD DIV MUL DUP4 MSTORE SWAP2 PUSH1 0x20 ADD SWAP2 PUSH2 0x39B JUMP JUMPDEST DUP3 ADD SWAP2 SWAP1 PUSH0 MSTORE PUSH1 0x20 PUSH0 KECCAK256 SWAP1 JUMPDEST DUP2 SLOAD DUP2 MSTORE SWAP1 PUSH1 0x1 ADD SWAP1 PUSH1 0x20 ADD DUP1 DUP4 GT PUSH2 0x37E JUMPI DUP3 SWAP1 SUB PUSH1 0x1F AND DUP3 ADD SWAP2 JUMPDEST POP POP POP POP POP SWAP1 DUP1 PUSH1 0x1 ADD DUP1 SLOAD PUSH2 0x3B0 SWAP1 PUSH2 0x121E JUMP JUMPDEST DUP1 PUSH1 0x1F ADD PUSH1 0x20 DUP1 SWAP2 DIV MUL PUSH1 0x20 ADD PUSH1 0x40 MLOAD SWAP1 DUP2 ADD PUSH1 0x40 MSTORE DUP1 SWAP3 SWAP2 SWAP1 DUP2 DUP2 MSTORE PUSH1 0x20 ADD DUP3 DUP1 SLOAD PUSH2 0x3DC SWAP1 PUSH2 0x121E JUMP JUMPDEST DUP1 ISZERO PUSH2 0x427 JUMPI DUP1 PUSH1 0x1F LT PUSH2 0x3FE JUMPI PUSH2 0x100 DUP1 DUP4 SLOAD DIV MUL DUP4 MSTORE SWAP2 PUSH1 0x20 ADD SWAP2 PUSH2 0x427 JUMP JUMPDEST DUP3 ADD SWAP2 SWAP1 PUSH0 MSTORE PUSH1 0x20 PUSH0 KECCAK256 SWAP1 JUMPDEST DUP2 SLOAD DUP2 MSTORE SWAP1 PUSH1 0x1 ADD SWAP1 PUSH1 0x20 ADD DUP1 DUP4 GT PUSH2 0x40A JUMPI DUP3 SWAP1 SUB PUSH1 0x1F AND DUP3 ADD SWAP2 JUMPDEST POP POP POP POP POP SWAP1 DUP1 PUSH1 0x2 ADD DUP1 SLOAD PUSH2 0x43C SWAP1 PUSH2 0x121E JUMP JUMPDEST DUP1 PUSH1 0x1F ADD PUSH1 0x20 DUP1 SWAP2 DIV MUL PUSH1 0x20 ADD PUSH1 0x40 MLOAD SWAP1 DUP2 ADD PUSH1 0x40 MSTORE DUP1 SWAP3 SWAP2 SWAP1 DUP2 DUP2 MSTORE PUSH1 0x20 ADD DUP3 DUP1 SLOAD PUSH2 0x468 SWAP1 PUSH2 0x121E JUMP JUMPDEST DUP1 ISZERO PUSH2 0x4B3 JUMPI DUP1 PUSH1 0x1F LT PUSH2 0x48A JUMPI PUSH2 0x100 DUP1 DUP4 SLOAD DIV MUL DUP4 MSTORE SWAP2 PUSH1 0x20 ADD SWAP2 PUSH2 0x4B3 JUMP JUMPDEST DUP3 ADD SWAP2 SWAP1 PUSH0 MSTORE PUSH1 0x20 PUSH0 KECCAK256 SWAP1 JUMPDEST DUP2 SLOAD DUP2 MSTORE SWAP1 PUSH1 0x1 ADD SWAP1 PUSH1 0x20 ADD DUP1 DUP4 GT PUSH2 0x496 JUMPI DUP3 SWAP1 SUB PUSH1 0x1F AND DUP3 ADD SWAP2 JUMPDEST POP POP POP POP POP SWAP1 DUP1 PUSH1 0x3 ADD PUSH0 SWAP1 SLOAD SWAP1 PUSH2 0x100 EXP SWAP1 DIV PUSH20 0xFFFFFFFFFFFFFFFFFFFFFFFFFFFFFFFFFFFFFFFF AND SWAP1 DUP1 PUSH1 0x3 ADD PUSH1 0x14 SWAP1 SLOAD SWAP1 PUSH2 0x100 EXP SWAP1 DIV PUSH1 0xFF AND SWAP1 DUP1 PUSH1 0x4 ADD SLOAD SWAP1 POP DUP7 JUMP JUMPDEST PUSH0 DUP1 DUP4 PUSH1 0x40 MLOAD PUSH2 0x50B SWAP2 SWAP1 PUSH2 0x1173 JUMP JUMPDEST SWAP1 DUP2 MSTORE PUSH1 0x20 ADD PUSH1 0x40 MLOAD DUP1 SWAP2 SUB SWAP1 KECCAK256 PUSH1 0x4 ADD SLOAD SUB PUSH2 0x55D JUMPI PUSH1 0x40 MLOAD PUSH32 0x8C379A000000000000000000000000000000000000000000000000000000000 DUP2 MSTORE PUSH1 0x4 ADD PUSH2 0x554 SWAP1 PUSH2 0x1547 JUMP JUMPDEST PUSH1 0x40 MLOAD DUP1 SWAP2 SUB SWAP1 REVERT JUMPDEST CALLER PUSH20 0xFFFFFFFFFFFFFFFFFFFFFFFFFFFFFFFFFFFFFFFF AND PUSH0 DUP4 PUSH1 0x40 MLOAD PUSH2 0x583 SWAP2 SWAP1 PUSH2 0x1173 JUMP JUMPDEST SWAP1 DUP2 MSTORE PUSH1 0x20 ADD PUSH1 0x40 MLOAD DUP1 SWAP2 SUB SWAP1 KECCAK256 PUSH1 0x3 ADD PUSH0 SWAP1 SLOAD SWAP1 PUSH2 0x100 EXP SWAP1 DIV PUSH20 0xFFFFFFFFFFFFFFFFFFFFFFFFFFFFFFFFFFFFFFFF AND PUSH20 0xFFFFFFFFFFFFFFFFFFFFFFFFFFFFFFFFFFFFFFFF AND EQ PUSH2 0x60A JUMPI PUSH1 0x40 MLOAD PUSH32 0x8C379A000000000000000000000000000000000000000000000000000000000 DUP2 MSTORE PUSH1 0x4 ADD PUSH2 0x601 SWAP1 PUSH2 0x15D5 JUMP JUMPDEST PUSH1 0x40 MLOAD DUP1 SWAP2 SUB SWAP1 REVERT JUMPDEST PUSH0 DUP1 DUP4 PUSH1 0x40 MLOAD PUSH2 0x61A SWAP2 SWAP1 PUSH2 0x1173 JUMP JUMPDEST SWAP1 DUP2 MSTORE PUSH1 0x20 ADD PUSH1 0x40 MLOAD DUP1 SWAP2 SUB SWAP1 KECCAK256 PUSH1 0x3 ADD PUSH0 SWAP1 SLOAD SWAP1 PUSH2 0x100 EXP SWAP1 DIV PUSH20 0xFFFFFFFFFFFFFFFFFFFFFFFFFFFFFFFFFFFFFFFF AND SWAP1 POP DUP2 PUSH0 DUP5 PUSH1 0x40 MLOAD PUSH2 0x65D SWAP2 SWAP1 PUSH2 0x1173 JUMP JUMPDEST SWAP1 DUP2 MSTORE PUSH1 0x20 ADD PUSH1 0x40 MLOAD DUP1 SWAP2 SUB SWAP1 KECCAK256 PUSH1 0x3 ADD PUSH0 PUSH2 0x100 EXP DUP2 SLOAD DUP2 PUSH20 0xFFFFFFFFFFFFFFFFFFFFFFFFFFFFFFFFFFFFFFFF MUL NOT AND SWAP1 DUP4 PUSH20 0xFFFFFFFFFFFFFFFFFFFFFFFFFFFFFFFFFFFFFFFF AND MUL OR SWAP1 SSTORE POP PUSH32 0xA8B047DB3C9B378A978A9CC59C0F75A2671F935A140D6799F8F56104F0EC6DD6 DUP4 DUP3 DUP5 PUSH1 0x40 MLOAD PUSH2 0x6DE SWAP4 SWAP3 SWAP2 SWAP1 PUSH2 0x15F3 JUMP JUMPDEST PUSH1 0x40 MLOAD DUP1 SWAP2 SUB SWAP1 LOG1 POP POP POP JUMP JUMPDEST PUSH0 DUP1 DUP4 PUSH1 0x40 MLOAD PUSH2 0x6FB SWAP2 SWAP1 PUSH2 0x1173 JUMP JUMPDEST SWAP1 DUP2 MSTORE PUSH1 0x20 ADD PUSH1 0x40 MLOAD DUP1 SWAP2 SUB SWAP1 KECCAK256 PUSH1 0x4 ADD SLOAD SUB PUSH2 0x74D JUMPI PUSH1 0x40 MLOAD PUSH32 0x8C379A000000000000000000000000000000000000000000000000000000000 DUP2 MSTORE PUSH1 0x4 ADD PUSH2 0x744 SWAP1 PUSH2 0x1547 JUMP JUMPDEST PUSH1 0x40 MLOAD DUP1 SWAP2 SUB SWAP1 REVERT JUMPDEST CALLER PUSH20 0xFFFFFFFFFFFFFFFFFFFFFFFFFFFFFFFFFFFFFFFF AND PUSH0 DUP4 PUSH1 0x40 MLOAD PUSH2 0x773 SWAP2 SWAP1 PUSH2 0x1173 JUMP JUMPDEST SWAP1 DUP2 MSTORE PUSH1 0x20 ADD PUSH1 0x40 MLOAD DUP1 SWAP2 SUB SWAP1 KECCAK256 PUSH1 0x3 ADD PUSH0 SWAP1 SLOAD SWAP1 PUSH2 0x100 EXP SWAP1 DIV PUSH20 0xFFFFFFFFFFFFFFFFFFFFFFFFFFFFFFFFFFFFFFFF AND PUSH20 0xFFFFFFFFFFFFFFFFFFFFFFFFFFFFFFFFFFFFFFFF AND EQ PUSH2 0x7FA JUMPI PUSH1 0x40 MLOAD PUSH32 0x8C379A000000000000000000000000000000000000000000000000000000000 DUP2 MSTORE PUSH1 0x4 ADD PUSH2 0x7F1 SWAP1 PUSH2 0x169F JUMP JUMPDEST PUSH1 0x40 MLOAD DUP1 SWAP2 SUB SWAP1 REVERT JUMPDEST DUP1 PUSH0 DUP4 PUSH1 0x40 MLOAD PUSH2 0x80A SWAP2 SWAP1 PUSH2 0x1173 JUMP JUMPDEST SWAP1 DUP2 MSTORE PUSH1 0x20 ADD PUSH1 0x40 MLOAD DUP1 SWAP2 SUB SWAP1 KECCAK256 PUSH1 0x3 ADD PUSH1 0x14 PUSH2 0x100 EXP DUP2 SLOAD DUP2 PUSH1 0xFF MUL NOT AND SWAP1 DUP4 PUSH1 0x2 DUP2 GT ISZERO PUSH2 0x83D JUMPI PUSH2 0x83C PUSH2 0xF39 JUMP JUMPDEST JUMPDEST MUL OR SWAP1 SSTORE POP PUSH1 0x1 PUSH1 0x2 DUP2 GT ISZERO PUSH2 0x856 JUMPI PUSH2 0x855 PUSH2 0xF39 JUMP JUMPDEST JUMPDEST PUSH0 DUP4 PUSH1 0x40 MLOAD PUSH2 0x865 SWAP2 SWAP1 PUSH2 0x1173 JUMP JUMPDEST SWAP1 DUP2 MSTORE PUSH1 0x20 ADD PUSH1 0x40 MLOAD DUP1 SWAP2 SUB SWAP1 KECCAK256 PUSH1 0x3 ADD PUSH1 0x14 SWAP1 SLOAD SWAP1 PUSH2 0x100 EXP SWAP1 DIV PUSH1 0xFF AND PUSH1 0x2 DUP2 GT ISZERO PUSH2 0x896 JUMPI PUSH2 0x895 PUSH2 0xF39 JUMP JUMPDEST JUMPDEST EQ PUSH2 0x8D6 JUMPI PUSH1 0x40 MLOAD PUSH32 0x8C379A000000000000000000000000000000000000000000000000000000000 DUP2 MSTORE PUSH1 0x4 ADD PUSH2 0x8CD SWAP1 PUSH2 0x1707 JUMP JUMPDEST PUSH1 0x40 MLOAD DUP1 SWAP2 SUB SWAP1 REVERT JUMPDEST PUSH1 0x2 DUP1 DUP2 GT ISZERO PUSH2 0x8E9 JUMPI PUSH2 0x8E8 PUSH2 0xF39 JUMP JUMPDEST JUMPDEST PUSH0 DUP4 PUSH1 0x40 MLOAD PUSH2 0x8F8 SWAP2 SWAP1 PUSH2 0x1173 JUMP JUMPDEST SWAP1 DUP2 MSTORE PUSH1 0x20 ADD PUSH1 0x40 MLOAD DUP1 SWAP2 SUB SWAP1 KECCAK256 PUSH1 0x3 ADD PUSH1 0x14 SWAP1 SLOAD SWAP1 PUSH2 0x100 EXP SWAP1 DIV PUSH1 0xFF AND PUSH1 0x2 DUP2 GT ISZERO PUSH2 0x929 JUMPI PUSH2 0x928 PUSH2 0xF39 JUMP JUMPDEST JUMPDEST EQ PUSH2 0x969 JUMPI PUSH1 0x40 MLOAD PUSH32 0x8C379A000000000000000000000000000000000000000000000000000000000 DUP2 MSTORE PUSH1 0x4 ADD PUSH2 0x960 SWAP1 PUSH2 0x176F JUMP JUMPDEST PUSH1 0x40 MLOAD DUP1 SWAP2 SUB SWAP1 REVERT JUMPDEST POP POP JUMP JUMPDEST PUSH1 0x60 DUP1 PUSH1 0x60 PUSH0 DUP1 PUSH0 DUP1 PUSH0 DUP9 PUSH1 0x40 MLOAD PUSH2 0x985 SWAP2 SWAP1 PUSH2 0x1173 JUMP JUMPDEST SWAP1 DUP2 MSTORE PUSH1 0x20 ADD PUSH1 0x40 MLOAD DUP1 SWAP2 SUB SWAP1 KECCAK256 PUSH1 0x40 MLOAD DUP1 PUSH1 0xC0 ADD PUSH1 0x40 MSTORE SWAP1 DUP2 PUSH0 DUP3 ADD DUP1 SLOAD PUSH2 0x9AD SWAP1 PUSH2 0x121E JUMP JUMPDEST DUP1 PUSH1 0x1F ADD PUSH1 0x20 DUP1 SWAP2 DIV MUL PUSH1 0x20 ADD PUSH1 0x40 MLOAD SWAP1 DUP2 ADD PUSH1 0x40 MSTORE DUP1 SWAP3 SWAP2 SWAP1 DUP2 DUP2 MSTORE PUSH1 0x20 ADD DUP3 DUP1 SLOAD PUSH2 0x9D9 SWAP1 PUSH2 0x121E JUMP JUMPDEST DUP1 ISZERO PUSH2 0xA24 JUMPI DUP1 PUSH1 0x1F LT PUSH2 0x9FB JUMPI PUSH2 0x100 DUP1 DUP4 SLOAD DIV MUL DUP4 MSTORE SWAP2 PUSH1 0x20 ADD SWAP2 PUSH2 0xA24 JUMP JUMPDEST DUP3 ADD SWAP2 SWAP1 PUSH0 MSTORE PUSH1 0x20 PUSH0 KECCAK256 SWAP1 JUMPDEST DUP2 SLOAD DUP2 MSTORE SWAP1 PUSH1 0x1 ADD SWAP1 PUSH1 0x20 ADD DUP1 DUP4 GT PUSH2 0xA07 JUMPI DUP3 SWAP1 SUB PUSH1 0x1F AND DUP3 ADD SWAP2 JUMPDEST POP POP POP POP POP DUP2 MSTORE PUSH1 0x20 ADD PUSH1 0x1 DUP3 ADD DUP1 SLOAD PUSH2 0xA3D SWAP1 PUSH2 0x121E JUMP JUMPDEST DUP1 PUSH1 0x1F ADD PUSH1 0x20 DUP1 SWAP2 DIV MUL PUSH1 0x20 ADD PUSH1 0x40 MLOAD SWAP1 DUP2 ADD PUSH1 0x40 MSTORE DUP1 SWAP3 SWAP2 SWAP1 DUP2 DUP2 MSTORE PUSH1 0x20 ADD DUP3 DUP1 SLOAD PUSH2 0xA69 SWAP1 PUSH2 0x121E JUMP JUMPDEST DUP1 ISZERO PUSH2 0xAB4 JUMPI DUP1 PUSH1 0x1F LT PUSH2 0xA8B JUMPI PUSH2 0x100 DUP1 DUP4 SLOAD DIV MUL DUP4 MSTORE SWAP2 PUSH1 0x20 ADD SWAP2 PUSH2 0xAB4 JUMP JUMPDEST DUP3 ADD SWAP2 SWAP1 PUSH0 MSTORE PUSH1 0x20 PUSH0 KECCAK256 SWAP1 JUMPDEST DUP2 SLOAD DUP2 MSTORE SWAP1 PUSH1 0x1 ADD SWAP1 PUSH1 0x20 ADD DUP1 DUP4 GT PUSH2 0xA97 JUMPI DUP3 SWAP1 SUB PUSH1 0x1F AND DUP3 ADD SWAP2 JUMPDEST POP POP POP POP POP DUP2 MSTORE PUSH1 0x20 ADD PUSH1 0x2 DUP3 ADD DUP1 SLOAD PUSH2 0xACD SWAP1 PUSH2 0x121E JUMP JUMPDEST DUP1 PUSH1 0x1F ADD PUSH1 0x20 DUP1 SWAP2 DIV MUL PUSH1 0x20 ADD PUSH1 0x40 MLOAD SWAP1 DUP2 ADD PUSH1 0x40 MSTORE DUP1 SWAP3 SWAP2 SWAP1 DUP2 DUP2 MSTORE PUSH1 0x20 ADD DUP3 DUP1 SLOAD PUSH2 0xAF9 SWAP1 PUSH2 0x121E JUMP JUMPDEST DUP1 ISZERO PUSH2 0xB44 JUMPI DUP1 PUSH1 0x1F LT PUSH2 0xB1B JUMPI PUSH2 0x100 DUP1 DUP4 SLOAD DIV MUL DUP4 MSTORE SWAP2 PUSH1 0x20 ADD SWAP2 PUSH2 0xB44 JUMP JUMPDEST DUP3 ADD SWAP2 SWAP1 PUSH0 MSTORE PUSH1 0x20 PUSH0 KECCAK256 SWAP1 JUMPDEST DUP2 SLOAD DUP2 MSTORE SWAP1 PUSH1 0x1 ADD SWAP1 PUSH1 0x20 ADD DUP1 DUP4 GT PUSH2 0xB27 JUMPI DUP3 SWAP1 SUB PUSH1 0x1F AND DUP3 ADD SWAP2 JUMPDEST POP POP POP POP POP DUP2 MSTORE PUSH1 0x20 ADD PUSH1 0x3 DUP3 ADD PUSH0 SWAP1 SLOAD SWAP1 PUSH2 0x100 EXP SWAP1 DIV PUSH20 0xFFFFFFFFFFFFFFFFFFFFFFFFFFFFFFFFFFFFFFFF AND PUSH20 0xFFFFFFFFFFFFFFFFFFFFFFFFFFFFFFFFFFFFFFFF AND PUSH20 0xFFFFFFFFFFFFFFFFFFFFFFFFFFFFFFFFFFFFFFFF AND DUP2 MSTORE PUSH1 0x20 ADD PUSH1 0x3 DUP3 ADD PUSH1 0x14 SWAP1 SLOAD SWAP1 PUSH2 0x100 EXP SWAP1 DIV PUSH1 0xFF AND PUSH1 0x2 DUP2 GT ISZERO PUSH2 0xBC7 JUMPI PUSH2 0xBC6 PUSH2 0xF39 JUMP JUMPDEST JUMPDEST PUSH1 0x2 DUP2 GT ISZERO PUSH2 0xBD9 JUMPI PUSH2 0xBD8 PUSH2 0xF39 JUMP JUMPDEST JUMPDEST DUP2 MSTORE PUSH1 0x20 ADD PUSH1 0x4 DUP3 ADD SLOAD DUP2 MSTORE POP POP SWAP1 POP PUSH0 DUP2 PUSH1 0xA0 ADD MLOAD SUB PUSH2 0xC2F JUMPI PUSH1 0x40 MLOAD PUSH32 0x8C379A000000000000000000000000000000000000000000000000000000000 DUP2 MSTORE PUSH1 0x4 ADD PUSH2 0xC26 SWAP1 PUSH2 0x1547 JUMP JUMPDEST PUSH1 0x40 MLOAD DUP1 SWAP2 SUB SWAP1 REVERT JUMPDEST DUP1 PUSH0 ADD MLOAD DUP2 PUSH1 0x20 ADD MLOAD DUP3 PUSH1 0x40 ADD MLOAD DUP4 PUSH1 0x60 ADD MLOAD DUP5 PUSH1 0x80 ADD MLOAD DUP6 PUSH1 0xA0 ADD MLOAD SWAP7 POP SWAP7 POP SWAP7 POP SWAP7 POP SWAP7 POP SWAP7 POP POP SWAP2 SWAP4 SWAP6 POP SWAP2 SWAP4 SWAP6 JUMP JUMPDEST PUSH0 PUSH1 0x40 MLOAD SWAP1 POP SWAP1 JUMP JUMPDEST PUSH0 DUP1 REVERT JUMPDEST PUSH0 DUP1 REVERT JUMPDEST PUSH0 DUP1 REVERT JUMPDEST PUSH0 DUP1 REVERT JUMPDEST PUSH0 PUSH1 0x1F NOT PUSH1 0x1F DUP4 ADD AND SWAP1 POP SWAP2 SWAP1 POP JUMP JUMPDEST PUSH32 0x4E487B7100000000000000000000000000000000000000000000000000000000 PUSH0 MSTORE PUSH1 0x41 PUSH1 0x4 MSTORE PUSH1 0x24 PUSH0 REVERT JUMPDEST PUSH2 0xCC1 DUP3 PUSH2 0xC7B JUMP JUMPDEST DUP2 ADD DUP2 DUP2 LT PUSH8 0xFFFFFFFFFFFFFFFF DUP3 GT OR ISZERO PUSH2 0xCE0 JUMPI PUSH2 0xCDF PUSH2 0xC8B JUMP JUMPDEST JUMPDEST DUP1 PUSH1 0x40 MSTORE POP POP POP JUMP JUMPDEST PUSH0 PUSH2 0xCF2 PUSH2 0xC62 JUMP JUMPDEST SWAP1 POP PUSH2 0xCFE DUP3 DUP3 PUSH2 0xCB8 JUMP JUMPDEST SWAP2 SWAP1 POP JUMP JUMPDEST PUSH0 PUSH8 0xFFFFFFFFFFFFFFFF DUP3 GT ISZERO PUSH2 0xD1D JUMPI PUSH2 0xD1C PUSH2 0xC8B JUMP JUMPDEST JUMPDEST PUSH2 0xD26 DUP3 PUSH2 0xC7B JUMP JUMPDEST SWAP1 POP PUSH1 0x20 DUP2 ADD SWAP1 POP SWAP2 SWAP1 POP JUMP JUMPDEST DUP3 DUP2 DUP4 CALLDATACOPY PUSH0 DUP4 DUP4 ADD MSTORE POP POP POP JUMP JUMPDEST PUSH0 PUSH2 0xD53 PUSH2 0xD4E DUP5 PUSH2 0xD03 JUMP JUMPDEST PUSH2 0xCE9 JUMP JUMPDEST SWAP1 POP DUP3 DUP2 MSTORE PUSH1 0x20 DUP2 ADD DUP5 DUP5 DUP5 ADD GT ISZERO PUSH2 0xD6F JUMPI PUSH2 0xD6E PUSH2 0xC77 JUMP JUMPDEST JUMPDEST PUSH2 0xD7A DUP5 DUP3 DUP6 PUSH2 0xD33 JUMP JUMPDEST POP SWAP4 SWAP3 POP POP POP JUMP JUMPDEST PUSH0 DUP3 PUSH1 0x1F DUP4 ADD SLT PUSH2 0xD96 JUMPI PUSH2 0xD95 PUSH2 0xC73 JUMP JUMPDEST JUMPDEST DUP2 CALLDATALOAD PUSH2 0xDA6 DUP5 DUP3 PUSH1 0x20 DUP7 ADD PUSH2 0xD41 JUMP JUMPDEST SWAP2 POP POP SWAP3 SWAP2 POP POP JUMP JUMPDEST PUSH0 DUP1 PUSH0 PUSH1 0x60 DUP5 DUP7 SUB SLT ISZERO PUSH2 0xDC6 JUMPI PUSH2 0xDC5 PUSH2 0xC6B JUMP JUMPDEST JUMPDEST PUSH0 DUP5 ADD CALLDATALOAD PUSH8 0xFFFFFFFFFFFFFFFF DUP2 GT ISZERO PUSH2 0xDE3 JUMPI PUSH2 0xDE2 PUSH2 0xC6F JUMP JUMPDEST JUMPDEST PUSH2 0xDEF DUP7 DUP3 DUP8 ADD PUSH2 0xD82 JUMP JUMPDEST SWAP4 POP POP PUSH1 0x20 DUP5 ADD CALLDATALOAD PUSH8 0xFFFFFFFFFFFFFFFF DUP2 GT ISZERO PUSH2 0xE10 JUMPI PUSH2 0xE0F PUSH2 0xC6F JUMP JUMPDEST JUMPDEST PUSH2 0xE1C DUP7 DUP3 DUP8 ADD PUSH2 0xD82 JUMP JUMPDEST SWAP3 POP POP PUSH1 0x40 DUP5 ADD CALLDATALOAD PUSH8 0xFFFFFFFFFFFFFFFF DUP2 GT ISZERO PUSH2 0xE3D JUMPI PUSH2 0xE3C PUSH2 0xC6F JUMP JUMPDEST JUMPDEST PUSH2 0xE49 DUP7 DUP3 DUP8 ADD PUSH2 0xD82 JUMP JUMPDEST SWAP2 POP POP SWAP3 POP SWAP3 POP SWAP3 JUMP JUMPDEST PUSH0 PUSH1 0x20 DUP3 DUP5 SUB SLT ISZERO PUSH2 0xE68 JUMPI PUSH2 0xE67 PUSH2 0xC6B JUMP JUMPDEST JUMPDEST PUSH0 DUP3 ADD CALLDATALOAD PUSH8 0xFFFFFFFFFFFFFFFF DUP2 GT ISZERO PUSH2 0xE85 JUMPI PUSH2 0xE84 PUSH2 0xC6F JUMP JUMPDEST JUMPDEST PUSH2 0xE91 DUP5 DUP3 DUP6 ADD PUSH2 0xD82 JUMP JUMPDEST SWAP2 POP POP SWAP3 SWAP2 POP POP JUMP JUMPDEST PUSH0 DUP2 MLOAD SWAP1 POP SWAP2 SWAP1 POP JUMP JUMPDEST PUSH0 DUP3 DUP3 MSTORE PUSH1 0x20 DUP3 ADD SWAP1 POP SWAP3 SWAP2 POP POP JUMP JUMPDEST DUP3 DUP2 DUP4 MCOPY PUSH0 DUP4 DUP4 ADD MSTORE POP POP POP JUMP JUMPDEST PUSH0 PUSH2 0xECC DUP3 PUSH2 0xE9A JUMP JUMPDEST PUSH2 0xED6 DUP2 DUP6 PUSH2 0xEA4 JUMP JUMPDEST SWAP4 POP PUSH2 0xEE6 DUP2 DUP6 PUSH1 0x20 DUP7 ADD PUSH2 0xEB4 JUMP JUMPDEST PUSH2 0xEEF DUP2 PUSH2 0xC7B JUMP JUMPDEST DUP5 ADD SWAP2 POP POP SWAP3 SWAP2 POP POP JUMP JUMPDEST PUSH0 PUSH20 0xFFFFFFFFFFFFFFFFFFFFFFFFFFFFFFFFFFFFFFFF DUP3 AND SWAP1 POP SWAP2 SWAP1 POP JUMP JUMPDEST PUSH0 PUSH2 0xF23 DUP3 PUSH2 0xEFA JUMP JUMPDEST SWAP1 POP SWAP2 SWAP1 POP JUMP JUMPDEST PUSH2 0xF33 DUP2 PUSH2 0xF19 JUMP JUMPDEST DUP3 MSTORE POP POP JUMP JUMPDEST PUSH32 0x4E487B7100000000000000000000000000000000000000000000000000000000 PUSH0 MSTORE PUSH1 0x21 PUSH1 0x4 MSTORE PUSH1 0x24 PUSH0 REVERT JUMPDEST PUSH1 0x3 DUP2 LT PUSH2 0xF77 JUMPI PUSH2 0xF76 PUSH2 0xF39 JUMP JUMPDEST JUMPDEST POP JUMP JUMPDEST PUSH0 DUP2 SWAP1 POP PUSH2 0xF87 DUP3 PUSH2 0xF66 JUMP JUMPDEST SWAP2 SWAP1 POP JUMP JUMPDEST PUSH0 PUSH2 0xF96 DUP3 PUSH2 0xF7A JUMP JUMPDEST SWAP1 POP SWAP2 SWAP1 POP JUMP JUMPDEST PUSH2 0xFA6 DUP2 PUSH2 0xF8C JUMP JUMPDEST DUP3 MSTORE POP POP JUMP JUMPDEST PUSH0 DUP2 SWAP1 POP SWAP2 SWAP1 POP JUMP JUMPDEST PUSH2 0xFBE DUP2 PUSH2 0xFAC JUMP JUMPDEST DUP3 MSTORE POP POP JUMP JUMPDEST PUSH0 PUSH1 0xC0 DUP3 ADD SWAP1 POP DUP2 DUP2 SUB PUSH0 DUP4 ADD MSTORE PUSH2 0xFDC DUP2 DUP10 PUSH2 0xEC2 JUMP JUMPDEST SWAP1 POP DUP2 DUP2 SUB PUSH1 0x20 DUP4 ADD MSTORE PUSH2 0xFF0 DUP2 DUP9 PUSH2 0xEC2 JUMP JUMPDEST SWAP1 POP DUP2 DUP2 SUB PUSH1 0x40 DUP4 ADD MSTORE PUSH2 0x1004 DUP2 DUP8 PUSH2 0xEC2 JUMP JUMPDEST SWAP1 POP PUSH2 0x1013 PUSH1 0x60 DUP4 ADD DUP7 PUSH2 0xF2A JUMP JUMPDEST PUSH2 0x1020 PUSH1 0x80 DUP4 ADD DUP6 PUSH2 0xF9D JUMP JUMPDEST PUSH2 0x102D PUSH1 0xA0 DUP4 ADD DUP5 PUSH2 0xFB5 JUMP JUMPDEST SWAP8 SWAP7 POP POP POP POP POP POP POP JUMP JUMPDEST PUSH2 0x1041 DUP2 PUSH2 0xF19 JUMP JUMPDEST DUP2 EQ PUSH2 0x104B JUMPI PUSH0 DUP1 REVERT JUMPDEST POP JUMP JUMPDEST PUSH0 DUP2 CALLDATALOAD SWAP1 POP PUSH2 0x105C DUP2 PUSH2 0x1038 JUMP JUMPDEST SWAP3 SWAP2 POP POP JUMP JUMPDEST PUSH0 DUP1 PUSH1 0x40 DUP4 DUP6 SUB SLT ISZERO PUSH2 0x1078 JUMPI PUSH2 0x1077 PUSH2 0xC6B JUMP JUMPDEST JUMPDEST PUSH0 DUP4 ADD CALLDATALOAD PUSH8 0xFFFFFFFFFFFFFFFF DUP2 GT ISZERO PUSH2 0x1095 JUMPI PUSH2 0x1094 PUSH2 0xC6F JUMP JUMPDEST JUMPDEST PUSH2 0x10A1 DUP6 DUP3 DUP7 ADD PUSH2 0xD82 JUMP JUMPDEST SWAP3 POP POP PUSH1 0x20 PUSH2 0x10B2 DUP6 DUP3 DUP7 ADD PUSH2 0x104E JUMP JUMPDEST SWAP2 POP POP SWAP3 POP SWAP3 SWAP1 POP JUMP JUMPDEST PUSH1 0x3 DUP2 LT PUSH2 0x10C8 JUMPI PUSH0 DUP1 REVERT JUMPDEST POP JUMP JUMPDEST PUSH0 DUP2 CALLDATALOAD SWAP1 POP PUSH2 0x10D9 DUP2 PUSH2 0x10BC JUMP JUMPDEST SWAP3 SWAP2 POP POP JUMP JUMPDEST PUSH0 DUP1 PUSH1 0x40 DUP4 DUP6 SUB SLT ISZERO PUSH2 0x10F5 JUMPI PUSH2 0x10F4 PUSH2 0xC6B JUMP JUMPDEST JUMPDEST PUSH0 DUP4 ADD CALLDATALOAD PUSH8 0xFFFFFFFFFFFFFFFF DUP2 GT ISZERO PUSH2 0x1112 JUMPI PUSH2 0x1111 PUSH2 0xC6F JUMP JUMPDEST JUMPDEST PUSH2 0x111E DUP6 DUP3 DUP7 ADD PUSH2 0xD82 JUMP JUMPDEST SWAP3 POP POP PUSH1 0x20 PUSH2 0x112F DUP6 DUP3 DUP7 ADD PUSH2 0x10CB JUMP JUMPDEST SWAP2 POP POP SWAP3 POP SWAP3 SWAP1 POP JUMP JUMPDEST PUSH0 DUP2 SWAP1 POP SWAP3 SWAP2 POP POP JUMP JUMPDEST PUSH0 PUSH2 0x114D DUP3 PUSH2 0xE9A JUMP JUMPDEST PUSH2 0x1157 DUP2 DUP6 PUSH2 0x1139 JUMP JUMPDEST SWAP4 POP PUSH2 0x1167 DUP2 DUP6 PUSH1 0x20 DUP7 ADD PUSH2 0xEB4 JUMP JUMPDEST DUP1 DUP5 ADD SWAP2 POP POP SWAP3 SWAP2 POP POP JUMP JUMPDEST PUSH0 PUSH2 0x117E DUP3 DUP5 PUSH2 0x1143 JUMP JUMPDEST SWAP2 POP DUP2 SWAP1 POP SWAP3 SWAP2 POP POP JUMP JUMPDEST PUSH32 0x426174636820616C726561647920657869737473000000000000000000000000 PUSH0 DUP3 ADD MSTORE POP JUMP JUMPDEST PUSH0 PUSH2 0x11BD PUSH1 0x14 DUP4 PUSH2 0xEA4 JUMP JUMPDEST SWAP2 POP PUSH2 0x11C8 DUP3 PUSH2 0x1189 JUMP JUMPDEST PUSH1 0x20 DUP3 ADD SWAP1 POP SWAP2 SWAP1 POP JUMP JUMPDEST PUSH0 PUSH1 0x20 DUP3 ADD SWAP1 POP DUP2 DUP2 SUB PUSH0 DUP4 ADD MSTORE PUSH2 0x11EA DUP2 PUSH2 0x11B1 JUMP JUMPDEST SWAP1 POP SWAP2 SWAP1 POP JUMP JUMPDEST PUSH32 0x4E487B7100000000000000000000000000000000000000000000000000000000 PUSH0 MSTORE PUSH1 0x22 PUSH1 0x4 MSTORE PUSH1 0x24 PUSH0 REVERT JUMPDEST PUSH0 PUSH1 0x2 DUP3 DIV SWAP1 POP PUSH1 0x1 DUP3 AND DUP1 PUSH2 0x1235 JUMPI PUSH1 0x7F DUP3 AND SWAP2 POP JUMPDEST PUSH1 0x20 DUP3 LT DUP2 SUB PUSH2 0x1248 JUMPI PUSH2 0x1247 PUSH2 0x11F1 JUMP JUMPDEST JUMPDEST POP SWAP2 SWAP1 POP JUMP JUMPDEST PUSH0 DUP2 SWAP1 POP DUP2 PUSH0 MSTORE PUSH1 0x20 PUSH0 KECCAK256 SWAP1 POP SWAP2 SWAP1 POP JUMP JUMPDEST PUSH0 PUSH1 0x20 PUSH1 0x1F DUP4 ADD DIV SWAP1 POP SWAP2 SWAP1 POP JUMP JUMPDEST PUSH0 DUP3 DUP3 SHL SWAP1 POP SWAP3 SWAP2 POP POP JUMP JUMPDEST PUSH0 PUSH1 0x8 DUP4 MUL PUSH2 0x12AA PUSH32 0xFFFFFFFFFFFFFFFFFFFFFFFFFFFFFFFFFFFFFFFFFFFFFFFFFFFFFFFFFFFFFFFF DUP3 PUSH2 0x126F JUMP JUMPDEST PUSH2 0x12B4 DUP7 DUP4 PUSH2 0x126F JUMP JUMPDEST SWAP6 POP DUP1 NOT DUP5 AND SWAP4 POP DUP1 DUP7 AND DUP5 OR SWAP3 POP POP POP SWAP4 SWAP3 POP POP POP JUMP JUMPDEST PUSH0 DUP2 SWAP1 POP SWAP2 SWAP1 POP JUMP JUMPDEST PUSH0 PUSH2 0x12EF PUSH2 0x12EA PUSH2 0x12E5 DUP5 PUSH2 0xFAC JUMP JUMPDEST PUSH2 0x12CC JUMP JUMPDEST PUSH2 0xFAC JUMP JUMPDEST SWAP1 POP SWAP2 SWAP1 POP JUMP JUMPDEST PUSH0 DUP2 SWAP1 POP SWAP2 SWAP1 POP JUMP JUMPDEST PUSH2 0x1308 DUP4 PUSH2 0x12D5 JUMP JUMPDEST PUSH2 0x131C PUSH2 0x1314 DUP3 PUSH2 0x12F6 JUMP JUMPDEST DUP5 DUP5 SLOAD PUSH2 0x127B JUMP JUMPDEST DUP3 SSTORE POP POP POP POP JUMP JUMPDEST PUSH0 SWAP1 JUMP JUMPDEST PUSH2 0x1330 PUSH2 0x1324 JUMP JUMPDEST PUSH2 0x133B DUP2 DUP5 DUP5 PUSH2 0x12FF JUMP JUMPDEST POP POP POP JUMP JUMPDEST JUMPDEST DUP2 DUP2 LT ISZERO PUSH2 0x135E JUMPI PUSH2 0x1353 PUSH0 DUP3 PUSH2 0x1328 JUMP JUMPDEST PUSH1 0x1 DUP2 ADD SWAP1 POP PUSH2 0x1341 JUMP JUMPDEST POP POP JUMP JUMPDEST PUSH1 0x1F DUP3 GT ISZERO PUSH2 0x13A3 JUMPI PUSH2 0x1374 DUP2 PUSH2 0x124E JUMP JUMPDEST PUSH2 0x137D DUP5 PUSH2 0x1260 JUMP JUMPDEST DUP2 ADD PUSH1 0x20 DUP6 LT ISZERO PUSH2 0x138C JUMPI DUP2 SWAP1 POP JUMPDEST PUSH2 0x13A0 PUSH2 0x1398 DUP6 PUSH2 0x1260 JUMP JUMPDEST DUP4 ADD DUP3 PUSH2 0x1340 JUMP JUMPDEST POP POP JUMPDEST POP POP POP JUMP JUMPDEST PUSH0 DUP3 DUP3 SHR SWAP1 POP SWAP3 SWAP2 POP POP JUMP JUMPDEST PUSH0 PUSH2 0x13C3 PUSH0 NOT DUP5 PUSH1 0x8 MUL PUSH2 0x13A8 JUMP JUMPDEST NOT DUP1 DUP4 AND SWAP2 POP POP SWAP3 SWAP2 POP POP JUMP JUMPDEST PUSH0 PUSH2 0x13DB DUP4 DUP4 PUSH2 0x13B4 JUMP JUMPDEST SWAP2 POP DUP3 PUSH1 0x2 MUL DUP3 OR SWAP1 POP SWAP3 SWAP2 POP POP JUMP JUMPDEST PUSH2 0x13F4 DUP3 PUSH2 0xE9A JUMP JUMPDEST PUSH8 0xFFFFFFFFFFFFFFFF DUP2 GT ISZERO PUSH2 0x140D JUMPI PUSH2 0x140C PUSH2 0xC8B JUMP JUMPDEST JUMPDEST PUSH2 0x1417 DUP3 SLOAD PUSH2 0x121E JUMP JUMPDEST PUSH2 0x1422 DUP3 DUP3 DUP6 PUSH2 0x1362 JUMP JUMPDEST PUSH0 PUSH1 0x20 SWAP1 POP PUSH1 0x1F DUP4 GT PUSH1 0x1 DUP2 EQ PUSH2 0x1453 JUMPI PUSH0 DUP5 ISZERO PUSH2 0x1441 JUMPI DUP3 DUP8 ADD MLOAD SWAP1 POP JUMPDEST PUSH2 0x144B DUP6 DUP3 PUSH2 0x13D0 JUMP JUMPDEST DUP7 SSTORE POP PUSH2 0x14B2 JUMP JUMPDEST PUSH1 0x1F NOT DUP5 AND PUSH2 0x1461 DUP7 PUSH2 0x124E JUMP JUMPDEST PUSH0 JUMPDEST DUP3 DUP2 LT ISZERO PUSH2 0x1488 JUMPI DUP5 DUP10 ADD MLOAD DUP3 SSTORE PUSH1 0x1 DUP3 ADD SWAP2 POP PUSH1 0x20 DUP6 ADD SWAP5 POP PUSH1 0x20 DUP2 ADD SWAP1 POP PUSH2 0x1463 JUMP JUMPDEST DUP7 DUP4 LT ISZERO PUSH2 0x14A5 JUMPI DUP5 DUP10 ADD MLOAD PUSH2 0x14A1 PUSH1 0x1F DUP10 AND DUP3 PUSH2 0x13B4 JUMP JUMPDEST DUP4 SSTORE POP JUMPDEST PUSH1 0x1 PUSH1 0x2 DUP9 MUL ADD DUP9 SSTORE POP POP POP JUMPDEST POP POP POP POP POP POP JUMP JUMPDEST PUSH0 PUSH1 0x60 DUP3 ADD SWAP1 POP DUP2 DUP2 SUB PUSH0 DUP4 ADD MSTORE PUSH2 0x14D2 DUP2 DUP7 PUSH2 0xEC2 JUMP JUMPDEST SWAP1 POP DUP2 DUP2 SUB PUSH1 0x20 DUP4 ADD MSTORE PUSH2 0x14E6 DUP2 DUP6 PUSH2 0xEC2 JUMP JUMPDEST SWAP1 POP PUSH2 0x14F5 PUSH1 0x40 DUP4 ADD DUP5 PUSH2 0xF2A JUMP JUMPDEST SWAP5 SWAP4 POP POP POP POP JUMP JUMPDEST PUSH32 0x426174636820646F6573206E6F74206578697374000000000000000000000000 PUSH0 DUP3 ADD MSTORE POP JUMP JUMPDEST PUSH0 PUSH2 0x1531 PUSH1 0x14 DUP4 PUSH2 0xEA4 JUMP JUMPDEST SWAP2 POP PUSH2 0x153C DUP3 PUSH2 0x14FD JUMP JUMPDEST PUSH1 0x20 DUP3 ADD SWAP1 POP SWAP2 SWAP1 POP JUMP JUMPDEST PUSH0 PUSH1 0x20 DUP3 ADD SWAP1 POP DUP2 DUP2 SUB PUSH0 DUP4 ADD MSTORE PUSH2 0x155E DUP2 PUSH2 0x1525 JUMP JUMPDEST SWAP1 POP SWAP2 SWAP1 POP JUMP JUMPDEST PUSH32 0x4F6E6C7920746865206F776E65722063616E207472616E736665722074686520 PUSH0 DUP3 ADD MSTORE PUSH32 0x6261746368000000000000000000000000000000000000000000000000000000 PUSH1 0x20 DUP3 ADD MSTORE POP JUMP JUMPDEST PUSH0 PUSH2 0x15BF PUSH1 0x25 DUP4 PUSH2 0xEA4 JUMP JUMPDEST SWAP2 POP PUSH2 0x15CA DUP3 PUSH2 0x1565 JUMP JUMPDEST PUSH1 0x40 DUP3 ADD SWAP1 POP SWAP2 SWAP1 POP JUMP JUMPDEST PUSH0 PUSH1 0x20 DUP3 ADD SWAP1 POP DUP2 DUP2 SUB PUSH0 DUP4 ADD MSTORE PUSH2 0x15EC DUP2 PUSH2 0x15B3 JUMP JUMPDEST SWAP1 POP SWAP2 SWAP1 POP JUMP JUMPDEST PUSH0 PUSH1 0x60 DUP3 ADD SWAP1 POP DUP2 DUP2 SUB PUSH0 DUP4 ADD MSTORE PUSH2 0x160B DUP2 DUP7 PUSH2 0xEC2 JUMP JUMPDEST SWAP1 POP PUSH2 0x161A PUSH1 0x20 DUP4 ADD DUP6 PUSH2 0xF2A JUMP JUMPDEST PUSH2 0x1627 PUSH1 0x40 DUP4 ADD DUP5 PUSH2 0xF2A JUMP JUMPDEST SWAP5 SWAP4 POP POP POP POP JUMP JUMPDEST PUSH32 0x4F6E6C7920746865206F776E65722063616E2075706461746520746865206261 PUSH0 DUP3 ADD MSTORE PUSH32 0x7463682073746174757300000000000000000000000000000000000000000000 PUSH1 0x20 DUP3 ADD MSTORE POP JUMP JUMPDEST PUSH0 PUSH2 0x1689 PUSH1 0x2A DUP4 PUSH2 0xEA4 JUMP JUMPDEST SWAP2 POP PUSH2 0x1694 DUP3 PUSH2 0x162F JUMP JUMPDEST PUSH1 0x40 DUP3 ADD SWAP1 POP SWAP2 SWAP1 POP JUMP JUMPDEST PUSH0 PUSH1 0x20 DUP3 ADD SWAP1 POP DUP2 DUP2 SUB PUSH0 DUP4 ADD MSTORE PUSH2 0x16B6 DUP2 PUSH2 0x167D JUMP JUMPDEST SWAP1 POP SWAP2 SWAP1 POP JUMP JUMPDEST PUSH32 0x496E7472616E7369740000000000000000000000000000000000000000000000 PUSH0 DUP3 ADD MSTORE POP JUMP JUMPDEST PUSH0 PUSH2 0x16F1 PUSH1 0x9 DUP4 PUSH2 0xEA4 JUMP JUMPDEST SWAP2 POP PUSH2 0x16FC DUP3 PUSH2 0x16BD JUMP JUMPDEST PUSH1 0x20 DUP3 ADD SWAP1 POP SWAP2 SWAP1 POP JUMP JUMPDEST PUSH0 PUSH1 0x20 DUP3 ADD SWAP1 POP DUP2 DUP2 SUB PUSH0 DUP4 ADD MSTORE PUSH2 0x171E DUP2 PUSH2 0x16E5 JUMP JUMPDEST SWAP1 POP SWAP2 SWAP1 POP JUMP JUMPDEST PUSH32 0x44656C6976657265640000000000000000000000000000000000000000000000 PUSH0 DUP3 ADD MSTORE POP JUMP JUMPDEST PUSH0 PUSH2 0x1759 PUSH1 0x9 DUP4 PUSH2 0xEA4 JUMP JUMPDEST SWAP2 POP PUSH2 0x1764 DUP3 PUSH2 0x1725 JUMP JUMPDEST PUSH1 0x20 DUP3 ADD SWAP1 POP SWAP2 SWAP1 POP JUMP JUMPDEST PUSH0 PUSH1 0x20 DUP3 ADD SWAP1 POP DUP2 DUP2 SUB PUSH0 DUP4 ADD MSTORE PUSH2 0x1786 DUP2 PUSH2 0x174D JUMP JUMPDEST SWAP1 POP SWAP2 SWAP1 POP JUMP INVALID LOG2 PUSH5 0x6970667358 0x22 SLT KECCAK256 0x2B 0x2B 0x2F 0xCA GT 0xEB PUSH26 0x4F909CAB10562E28B5E7EE0551F1EADD0B09694EA859820AB364 PUSH20 0x6F6C634300081A00330000000000000000000000 "
				},
				"gasEstimates": {
					"creation": {
						"codeDepositCost": "1216600",
						"executionCost": "1266",
						"totalCost": "1217866"
					},
					"external": {
						"batches(string)": "infinite",
						"createDrugBatch(string,string,string)": "infinite",
						"getBatch(string)": "infinite",
						"transferBatch(string,address)": "infinite",
						"updateBatchStatus(string,uint8)": "infinite"
					}
				},
				"methodIdentifiers": {
					"batches(string)": "7ef1446a",
					"createDrugBatch(string,string,string)": "7614faf0",
					"getBatch(string)": "f9ca4274",
					"transferBatch(string,address)": "b401563b",
					"updateBatchStatus(string,uint8)": "b50a3c87"
				}
			},
			"storageLayout": {
				"storage": [
					{
						"astId": 24,
						"contract": "contracts/PharmaSupplyChain.sol:PharmaSupplyChain",
						"label": "batches",
						"offset": 0,
						"slot": "0",
						"type": "t_mapping(t_string_memory_ptr,t_struct(DrugBatch)19_storage)"
					}
				],
				"types": {
					"t_address": {
						"encoding": "inplace",
						"label": "address",
						"numberOfBytes": "20"
					},
					"t_enum(BatchStatus)5": {
						"encoding": "inplace",
						"label": "enum PharmaSupplyChain.BatchStatus",
						"numberOfBytes": "1"
					},
					"t_mapping(t_string_memory_ptr,t_struct(DrugBatch)19_storage)": {
						"encoding": "mapping",
						"key": "t_string_memory_ptr",
						"label": "mapping(string => struct PharmaSupplyChain.DrugBatch)",
						"numberOfBytes": "32",
						"value": "t_struct(DrugBatch)19_storage"
					},
					"t_string_memory_ptr": {
						"encoding": "bytes",
						"label": "string",
						"numberOfBytes": "32"
					},
					"t_string_storage": {
						"encoding": "bytes",
						"label": "string",
						"numberOfBytes": "32"
					},
					"t_struct(DrugBatch)19_storage": {
						"encoding": "inplace",
						"label": "struct PharmaSupplyChain.DrugBatch",
						"members": [
							{
								"astId": 7,
								"contract": "contracts/PharmaSupplyChain.sol:PharmaSupplyChain",
								"label": "batchNumber",
								"offset": 0,
								"slot": "0",
								"type": "t_string_storage"
							},
							{
								"astId": 9,
								"contract": "contracts/PharmaSupplyChain.sol:PharmaSupplyChain",
								"label": "manufacturer",
								"offset": 0,
								"slot": "1",
								"type": "t_string_storage"
							},
							{
								"astId": 11,
								"contract": "contracts/PharmaSupplyChain.sol:PharmaSupplyChain",
								"label": "expirationDate",
								"offset": 0,
								"slot": "2",
								"type": "t_string_storage"
							},
							{
								"astId": 13,
								"contract": "contracts/PharmaSupplyChain.sol:PharmaSupplyChain",
								"label": "owner",
								"offset": 0,
								"slot": "3",
								"type": "t_address"
							},
							{
								"astId": 16,
								"contract": "contracts/PharmaSupplyChain.sol:PharmaSupplyChain",
								"label": "status",
								"offset": 20,
								"slot": "3",
								"type": "t_enum(BatchStatus)5"
							},
							{
								"astId": 18,
								"contract": "contracts/PharmaSupplyChain.sol:PharmaSupplyChain",
								"label": "createdAt",
								"offset": 0,
								"slot": "4",
								"type": "t_uint256"
							}
						],
						"numberOfBytes": "160"
					},
					"t_uint256": {
						"encoding": "inplace",
						"label": "uint256",
						"numberOfBytes": "32"
					}
				}
			},
			"userdoc": {
				"kind": "user",
				"methods": {},
				"version": 1
			}
		}
	}
}